{
  "_format": "hh-sol-artifact-1",
  "contractName": "Paynvest",
  "sourceName": "contracts/Paynvest.sol",
  "abi": [
    {
      "inputs": [
        {
          "internalType": "address",
          "name": "owner_",
          "type": "address"
        },
        {
          "internalType": "contract IERC20",
          "name": "weth_",
          "type": "address"
        },
        {
          "internalType": "contract IPapayaSimplified",
          "name": "papaya_",
          "type": "address"
        },
        {
          "internalType": "contract IOrderMixin",
          "name": "limit_order_",
          "type": "address"
        },
        {
          "internalType": "address",
          "name": "TOKEN_PAIR_PRICE_FEED_",
          "type": "address"
        }
      ],
      "stateMutability": "nonpayable",
      "type": "constructor"
    },
    {
      "inputs": [],
      "name": "ForceApproveFailed",
      "type": "error"
    },
    {
      "inputs": [],
      "name": "SafeTransferFromFailed",
      "type": "error"
    },
    {
      "inputs": [],
      "name": "WrongAmount",
      "type": "error"
    },
    {
      "inputs": [],
      "name": "WrongMakingAmount",
      "type": "error"
    },
    {
      "anonymous": false,
      "inputs": [
        {
          "indexed": false,
          "internalType": "uint256",
          "name": "makingAmount",
          "type": "uint256"
        },
        {
          "indexed": false,
          "internalType": "uint256",
          "name": "takingAmount",
          "type": "uint256"
        },
        {
          "indexed": false,
          "internalType": "bytes32",
          "name": "orderHash",
          "type": "bytes32"
        }
      ],
      "name": "Claimed",
      "type": "event"
    },
    {
      "inputs": [],
      "name": "CLAIM_PERIOD",
      "outputs": [
        {
          "internalType": "uint32",
          "name": "",
          "type": "uint32"
        }
      ],
      "stateMutability": "view",
      "type": "function"
    },
    {
      "inputs": [],
      "name": "DECIMALS_SCALE",
      "outputs": [
        {
          "internalType": "uint256",
          "name": "",
          "type": "uint256"
        }
      ],
      "stateMutability": "view",
      "type": "function"
    },
    {
      "inputs": [],
      "name": "LIMIT_ORDER",
      "outputs": [
        {
          "internalType": "contract IOrderMixin",
          "name": "",
          "type": "address"
        }
      ],
      "stateMutability": "view",
      "type": "function"
    },
    {
      "inputs": [],
      "name": "PAPAYA",
      "outputs": [
        {
          "internalType": "contract IPapayaSimplified",
          "name": "",
          "type": "address"
        }
      ],
      "stateMutability": "view",
      "type": "function"
    },
    {
      "inputs": [],
      "name": "TOKEN",
      "outputs": [
        {
          "internalType": "contract IERC20",
          "name": "",
          "type": "address"
        }
      ],
      "stateMutability": "view",
      "type": "function"
    },
    {
      "inputs": [],
      "name": "TOKEN_PAIR_PRICE_FEED",
      "outputs": [
        {
          "internalType": "contract AggregatorV3Interface",
          "name": "",
          "type": "address"
        }
      ],
      "stateMutability": "view",
      "type": "function"
    },
    {
      "inputs": [],
      "name": "WETH",
      "outputs": [
        {
          "internalType": "contract IERC20",
          "name": "",
          "type": "address"
        }
      ],
      "stateMutability": "view",
      "type": "function"
    },
    {
      "inputs": [
        {
          "internalType": "address",
          "name": "account",
          "type": "address"
        }
      ],
      "name": "balanceOf",
      "outputs": [
        {
          "internalType": "uint256",
          "name": "",
          "type": "uint256"
        }
      ],
      "stateMutability": "view",
      "type": "function"
    },
    {
      "inputs": [
        {
          "components": [
            {
              "internalType": "uint256",
              "name": "salt",
              "type": "uint256"
            },
            {
              "internalType": "Address",
              "name": "maker",
              "type": "uint256"
            },
            {
              "internalType": "Address",
              "name": "receiver",
              "type": "uint256"
            },
            {
              "internalType": "Address",
              "name": "makerAsset",
              "type": "uint256"
            },
            {
              "internalType": "Address",
              "name": "takerAsset",
              "type": "uint256"
            },
            {
              "internalType": "uint256",
              "name": "makingAmount",
              "type": "uint256"
            },
            {
              "internalType": "uint256",
              "name": "takingAmount",
              "type": "uint256"
            },
            {
              "internalType": "MakerTraits",
              "name": "makerTraits",
              "type": "uint256"
            }
          ],
          "internalType": "struct IOrderMixin.Order",
          "name": "order",
          "type": "tuple"
        },
        {
          "internalType": "bytes",
          "name": "signature",
          "type": "bytes"
        },
        {
          "internalType": "uint256",
          "name": "amount",
          "type": "uint256"
        },
        {
          "internalType": "TakerTraits",
          "name": "takerTraits",
          "type": "uint256"
        }
      ],
      "name": "claim",
      "outputs": [],
      "stateMutability": "nonpayable",
      "type": "function"
    },
    {
      "inputs": [
        {
          "internalType": "bytes32",
          "name": "hash",
          "type": "bytes32"
        },
        {
          "internalType": "bytes",
          "name": "signature",
          "type": "bytes"
        }
      ],
      "name": "isValidSignature",
      "outputs": [
        {
          "internalType": "bytes4",
          "name": "",
          "type": "bytes4"
        }
      ],
      "stateMutability": "view",
      "type": "function"
    },
    {
      "inputs": [],
      "name": "latestRoundData",
      "outputs": [
        {
          "internalType": "int256",
          "name": "tokenPrice",
          "type": "int256"
        }
      ],
      "stateMutability": "view",
      "type": "function"
    },
    {
      "inputs": [],
      "name": "owner",
      "outputs": [
        {
          "internalType": "address",
          "name": "",
          "type": "address"
        }
      ],
      "stateMutability": "view",
      "type": "function"
    },
    {
      "inputs": [
        {
          "internalType": "address",
          "name": "from",
          "type": "address"
        },
        {
          "internalType": "uint32",
          "name": "streamStarts",
          "type": "uint32"
        },
        {
          "internalType": "uint256",
          "name": "encodedRates",
          "type": "uint256"
        }
      ],
      "name": "streamCreated",
      "outputs": [],
      "stateMutability": "nonpayable",
      "type": "function"
    },
    {
      "inputs": [
        {
          "internalType": "address",
          "name": "from",
          "type": "address"
        },
        {
          "internalType": "uint32",
          "name": "streamDeadline",
          "type": "uint32"
        },
        {
          "internalType": "uint256",
          "name": "encodedRates",
          "type": "uint256"
        }
      ],
      "name": "streamRevoked",
      "outputs": [],
      "stateMutability": "nonpayable",
      "type": "function"
    },
    {
      "inputs": [
        {
          "internalType": "address",
          "name": "account",
          "type": "address"
        }
      ],
      "name": "users",
      "outputs": [
        {
          "internalType": "uint256",
          "name": "balance",
          "type": "uint256"
        },
        {
          "internalType": "uint96",
          "name": "rate",
          "type": "uint96"
        },
        {
          "internalType": "uint32",
          "name": "updated",
          "type": "uint32"
        }
      ],
      "stateMutability": "view",
      "type": "function"
    },
    {
      "inputs": [
        {
          "internalType": "uint256",
          "name": "amount",
          "type": "uint256"
        }
      ],
      "name": "withdraw",
      "outputs": [],
      "stateMutability": "nonpayable",
      "type": "function"
    }
  ],
  "bytecode": "0x61016080604052346101ba5760a081611a2d8038038091610020828561021a565b8339810103126101ba5761003381610251565b9061004060208201610251565b604082015190926001600160a01b0382169290918381036101ba576060820151916001600160a01b03831683036101ba57608061007d9101610251565b60809390935260e051604051631057fdf960e31b815290602090829060049082906001600160a01b03165afa9081156101c6575f916101d1575b509060049560209594939260c05260a05260e0526101005260018060a01b0316610120526040519283809262c9cccd60e51b82525afa9081156101c6575f91610190575b50610140526040516117c7908161026682396080518181816104020152611245015260a0518181816103080152610e24015260c05181818161047101526109ca015260e05181818161052a015281816107f3015261143d0152610100518181816107280152610a0001526101205181818161013b015281816108890152610f9c01526101405181818161094301526110300152f35b90506020813d6020116101be575b816101ab6020938361021a565b810103126101ba57515f6100fb565b5f80fd5b3d915061019e565b6040513d5f823e3d90fd5b9493929190506020853d602011610212575b816101f06020938361021a565b810103126101ba57600495610206602096610251565b919293949550956100b7565b3d91506101e3565b601f909101601f19168101906001600160401b0382119082101761023d57604052565b634e487b7160e01b5f52604160045260245ffd5b51906001600160a01b03821682036101ba5756fe60806040526004361015610011575f80fd5b5f5f3560e01c80631626ba7e14611053578063193999a014610ffb57806321241dfe14610fc057806325b5b0de14610f525780632e1a7d4d14610d7257806341b967711461074c578063463e7e33146106dd578063485ca67f1461054e57806368187eb8146104df57806370a082311461049557806382bfefc8146104265780638da5cb5b146103b7578063a87430ba1461032c578063ad5c4648146102bd578063ec70efdb146101b85763feaf968c146100ca575f80fd5b346101b557807ffffffffffffffffffffffffffffffffffffffffffffffffffffffffffffffffc3601126101b5576040517ffeaf968c00000000000000000000000000000000000000000000000000000000815260a08160048173ffffffffffffffffffffffffffffffffffffffff7f0000000000000000000000000000000000000000000000000000000000000000165afa9081156101aa5760209291610176575b50604051908152f35b610198915060a03d60a0116101a3575b6101908183611111565b8101906112da565b50505090505f61016d565b503d610186565b6040513d84823e3d90fd5b80fd5b50346101b55761028e6101ca366111dc565b905073ffffffffffffffffffffffffffffffffffffffff8160e01c9283865463ffffffff811615610291575b5050169081855260026020526bffffffffffffffffffffffff6001604087200191167fffffffffffffffffffffffffffffffffffffffff0000000000000000000000008254161790558352600260205260016040842001907fffffffffffffffffffffffffffffffff00000000ffffffffffffffffffffffff6fffffffff00000000000000000000000083549260601b169116179055565b80f35b7fffffffffffffffffffffffffffffffffffffffffffffffffffffffff0000000016178655835f6101f6565b50346101b557807ffffffffffffffffffffffffffffffffffffffffffffffffffffffffffffffffc3601126101b557602060405173ffffffffffffffffffffffffffffffffffffffff7f0000000000000000000000000000000000000000000000000000000000000000168152f35b50346101b55760207ffffffffffffffffffffffffffffffffffffffffffffffffffffffffffffffffc3601126101b557604060609173ffffffffffffffffffffffffffffffffffffffff61037e6111b9565b16815260026020522063ffffffff600182549201546040519283526bffffffffffffffffffffffff81166020840152831c166040820152f35b50346101b557807ffffffffffffffffffffffffffffffffffffffffffffffffffffffffffffffffc3601126101b557602060405173ffffffffffffffffffffffffffffffffffffffff7f0000000000000000000000000000000000000000000000000000000000000000168152f35b50346101b557807ffffffffffffffffffffffffffffffffffffffffffffffffffffffffffffffffc3601126101b557602060405173ffffffffffffffffffffffffffffffffffffffff7f0000000000000000000000000000000000000000000000000000000000000000168152f35b50346101b55760207ffffffffffffffffffffffffffffffffffffffffffffffffffffffffffffffffc3601126101b55760206104d76104d26111b9565b611366565b604051908152f35b50346101b557807ffffffffffffffffffffffffffffffffffffffffffffffffffffffffffffffffc3601126101b557602060405173ffffffffffffffffffffffffffffffffffffffff7f0000000000000000000000000000000000000000000000000000000000000000168152f35b50346101b55773ffffffffffffffffffffffffffffffffffffffff610572366111dc565b5050168082526002602052622835c061059b63ffffffff600160408620015460601c16426112b6565b06600181018091116106b057622835c0810290808204622835c014901517156106b0576105dd6105d66106319263ffffffff86541690611322565b42906112b6565b8284526002602052622835c061062a6bffffffffffffffffffffffff60016040882001541692858752600260205261062563ffffffff600160408a20015460601c16426112b6565b611322565b069061130f565b8061063a578280f35b6001546106469161130f565b818352600260205261065d60408420918254611322565b9055815260026020526040812060010180547fffffffffffffffffffffffffffffffff00000000ffffffffffffffffffffffff164260601b6fffffffff000000000000000000000000161790555f808280f35b6024837f4e487b710000000000000000000000000000000000000000000000000000000081526011600452fd5b50346101b557807ffffffffffffffffffffffffffffffffffffffffffffffffffffffffffffffffc3601126101b557602060405173ffffffffffffffffffffffffffffffffffffffff7f0000000000000000000000000000000000000000000000000000000000000000168152f35b5034610c99577ffffffffffffffffffffffffffffffffffffffffffffffffffffffffffffffffc36016101608112610c995761010013610c99576101043567ffffffffffffffff8111610c995736602382011215610c995780600401359067ffffffffffffffff8211610c99573660248383010111610c99576040517f70a082310000000000000000000000000000000000000000000000000000000081523060048201527f000000000000000000000000000000000000000000000000000000000000000073ffffffffffffffffffffffffffffffffffffffff16919061012435602082602481875afa918215610c8e575f92610d3e575b506040517ffeaf968c00000000000000000000000000000000000000000000000000000000815260a08160048173ffffffffffffffffffffffffffffffffffffffff7f0000000000000000000000000000000000000000000000000000000000000000165afa908115610c8e575f91610d1a575b505f549063ffffffff8260201c169163ffffffff8314610ced578263ffffffff61092b61094094610625610936957fffffffffffffffffffffffffffffffffffffffffffffffff00000000ffffffff67ffffffff0000000060016109689b0160201b1691161794855f5560015461130f565b9160201c169061132f565b806001558461130f565b927f00000000000000000000000000000000000000000000000000000000000000009061132f565b9360a43592838603610cc5578203610c9d57803b15610c99575f80916024604051809481937f2e1a7d4d0000000000000000000000000000000000000000000000000000000083528a60048401525af18015610c8e57610c74575b50908486927f000000000000000000000000000000000000000000000000000000000000000073ffffffffffffffffffffffffffffffffffffffff7f00000000000000000000000000000000000000000000000000000000000000001696610a2c81898461169e565b15610bb3575b5050602494927fffffffffffffffffffffffffffffffffffffffffffffffffffffffffffffffe0601f6060989694610184946040519b8c9a8b998a977fcc713a0400000000000000000000000000000000000000000000000000000000895260043560048a01528235838a015260443560448a015260643560648a015260843560848a015260a489015260c43560c489015260e43560e48901526101606101048901528261016489015201878701378686838701015261012485015261014435610144850152011681010301925af180156101aa57829183908492610b4d575b50916060917f5ca98748aee67479889c029151254c5adddcde4e34b424bcb03b2ea4bc23a7e39360405192835260208301526040820152a180f35b925050506060813d606011610bab575b81610b6a60609383611111565b81010312610ba7578051602082015160409092015190917f5ca98748aee67479889c029151254c5adddcde4e34b424bcb03b2ea4bc23a7e3610b12565b5080fd5b3d9150610b5d565b919394909250508560208960446040517f095ea7b300000000000000000000000000000000000000000000000000000000815284600482015282602482015282875af180610c52575b15928315610c3f575b505050610c1757908486925f80610a32565b6004867f19be9a90000000000000000000000000000000000000000000000000000000008152fd5b610c49935061169e565b155f8581610c05565b50503d15610c6a57856001895114601f3d1116610bfc565b85823b1515610bfc565b8596505f610c8491939293611111565b5f959190916109c3565b6040513d5f823e3d90fd5b5f80fd5b7f49986e73000000000000000000000000000000000000000000000000000000005f5260045ffd5b7f5845b37b000000000000000000000000000000000000000000000000000000005f5260045ffd5b7f4e487b71000000000000000000000000000000000000000000000000000000005f52601160045260245ffd5b610d33915060a03d60a0116101a3576101908183611111565b50505090505f6108b9565b9091506020813d602011610d6a575b81610d5a60209383611111565b81010312610c995751905f610845565b3d9150610d4d565b34610c995760207ffffffffffffffffffffffffffffffffffffffffffffffffffffffffffffffffc360112610c9957335f90815260026020526040902060010154600435906bffffffffffffffffffffffff811690610dda9060601c63ffffffff16426112b6565b90622835c0610dea92069061130f565b80610ed9575b50335f5260026020528060405f205410610c9d57335f52600260205260405f20610e1b8282546112b6565b905560205f60647f000000000000000000000000000000000000000000000000000000000000000093604051907f23b872dd000000000000000000000000000000000000000000000000000000008252306004830152336024830152604482015282855af19081610eb7575b5015610e8f57005b7ff4059071000000000000000000000000000000000000000000000000000000005f5260045ffd5b90503d15610ed1575060015f5114601f3d11165b81610e87565b3b1515610ecb565b600154610ee59161130f565b335f526002602052610efc60405f20918254611322565b9055335f90815260026020526040902060010180547fffffffffffffffffffffffffffffffff00000000ffffffffffffffffffffffff164260601b6fffffffff0000000000000000000000001617905581610df0565b34610c99575f7ffffffffffffffffffffffffffffffffffffffffffffffffffffffffffffffffc360112610c9957602060405173ffffffffffffffffffffffffffffffffffffffff7f0000000000000000000000000000000000000000000000000000000000000000168152f35b34610c99575f7ffffffffffffffffffffffffffffffffffffffffffffffffffffffffffffffffc360112610c99576020604051622835c08152f35b34610c99575f7ffffffffffffffffffffffffffffffffffffffffffffffffffffffffffffffffc360112610c995760206040517f00000000000000000000000000000000000000000000000000000000000000008152f35b34610c995760407ffffffffffffffffffffffffffffffffffffffffffffffffffffffffffffffffc360112610c995760243567ffffffffffffffff8111610c995736602382011215610c99578060040135906110ae8261117f565b6110bb6040519182611111565b8281523660248484010111610c99575f602084819560246110e79601838601378301015260043561123e565b7fffffffff0000000000000000000000000000000000000000000000000000000060405191168152f35b90601f7fffffffffffffffffffffffffffffffffffffffffffffffffffffffffffffffe0910116810190811067ffffffffffffffff82111761115257604052565b7f4e487b71000000000000000000000000000000000000000000000000000000005f52604160045260245ffd5b67ffffffffffffffff811161115257601f017fffffffffffffffffffffffffffffffffffffffffffffffffffffffffffffffe01660200190565b6004359073ffffffffffffffffffffffffffffffffffffffff82168203610c9957565b7ffffffffffffffffffffffffffffffffffffffffffffffffffffffffffffffffc6060910112610c995760043573ffffffffffffffffffffffffffffffffffffffff81168103610c99579060243563ffffffff81168103610c99579060443590565b90611269917f000000000000000000000000000000000000000000000000000000000000000061149f565b15611292577f1626ba7e0000000000000000000000000000000000000000000000000000000090565b7fffffffff0000000000000000000000000000000000000000000000000000000090565b91908203918211610ced57565b519069ffffffffffffffffffff82168203610c9957565b908160a0910312610c99576112ee816112c3565b9160208201519160408101519161130c6080606084015193016112c3565b90565b81810292918115918404141715610ced57565b91908201809211610ced57565b8115611339570490565b7f4e487b71000000000000000000000000000000000000000000000000000000005f52601260045260245ffd5b73ffffffffffffffffffffffffffffffffffffffff163081146113f3578061130c915f5260026020526113ed6113e4622835c06113b363ffffffff600160405f20015460601c16426112b6565b06835f52600260205260405f2054935f5260026020526bffffffffffffffffffffffff600160405f2001541661130f565b6001549061130f565b90611322565b506040517f70a0823100000000000000000000000000000000000000000000000000000000815230600482015260208160248173ffffffffffffffffffffffffffffffffffffffff7f0000000000000000000000000000000000000000000000000000000000000000165afa908115610c8e575f91611470575090565b90506020813d602011611497575b8161148b60209383611111565b81010312610c99575190565b3d915061147e565b91823b611512576114af91611664565b5060048110156114e5571591826114c557505090565b73ffffffffffffffffffffffffffffffffffffffff919250811691161490565b7f4e487b71000000000000000000000000000000000000000000000000000000005f52602160045260245ffd5b6040519060208201927f1626ba7e0000000000000000000000000000000000000000000000000000000084526024830152604060448301528051908160648401525f5b82811061164e57505091816115c66084827fffffffffffffffffffffffffffffffffffffffffffffffffffffffffffffffe0601f885f85819c9a9b829c0101520116810103017fffffffffffffffffffffffffffffffffffffffffffffffffffffffffffffffe08101835282611111565b51915afa3d15611647573d6115da8161117f565b906115e86040519283611111565b81523d5f602083013e5b81611639575b81611601575090565b9050602081805181010312610c9957602001517f1626ba7e000000000000000000000000000000000000000000000000000000001490565b9050602081511015906115f8565b60606115f2565b8060208092840101516084828701015201611555565b81519190604183036116945761168d9250602082015190606060408401519301515f1a90611702565b9192909190565b50505f9160029190565b929160446020925f92604051917f095ea7b30000000000000000000000000000000000000000000000000000000083526004830152602482015282865af191826116e55750565b9091503d156116fc575060015f5114601f3d111690565b3b151590565b91907f7fffffffffffffffffffffffffffffff5d576e7357a4501ddfe92f46681b20a08411611786579160209360809260ff5f9560405194855216868401526040830152606082015282805260015afa15610c8e575f5173ffffffffffffffffffffffffffffffffffffffff81161561177c57905f905f90565b505f906001905f90565b5050505f916003919056fea2646970667358221220d992fbf695a6ff4b4f22845c6a0c9253b2be19983d2b6eff8efde2bdd5ffc8fb64736f6c634300081c0033",
  "linkReferences": {},
  "deployedLinkReferences": {}
}