{
  "_format": "hh-sol-artifact-1",
  "contractName": "Paynvest",
  "sourceName": "contracts/Paynvest.sol",
  "abi": [
    {
      "inputs": [
        {
          "internalType": "contract IERC20",
          "name": "weth_",
          "type": "address"
        },
        {
          "internalType": "address",
          "name": "token_",
          "type": "address"
        },
        {
          "internalType": "address",
          "name": "TOKEN_PAIR_PRICE_FEED_",
          "type": "address"
        },
        {
          "internalType": "contract IPapayaSimplified",
          "name": "papaya_",
          "type": "address"
        },
        {
          "internalType": "address",
          "name": "limit_order_protocol_",
          "type": "address"
        }
      ],
      "stateMutability": "nonpayable",
      "type": "constructor"
    },
    {
      "inputs": [],
      "name": "SafeTransferFromFailed",
      "type": "error"
    },
    {
      "inputs": [],
      "name": "WrongAmount",
      "type": "error"
    },
    {
      "inputs": [],
      "name": "WrongMakingAmount",
      "type": "error"
    },
    {
      "anonymous": false,
      "inputs": [
        {
          "indexed": false,
          "internalType": "uint256",
          "name": "makingAmount",
          "type": "uint256"
        },
        {
          "indexed": false,
          "internalType": "uint256",
          "name": "takingAmount",
          "type": "uint256"
        },
        {
          "indexed": false,
          "internalType": "bytes32",
          "name": "orderHash",
          "type": "bytes32"
        }
      ],
      "name": "Claimed",
      "type": "event"
    },
    {
      "inputs": [],
      "name": "CLAIM_PERIOD",
      "outputs": [
        {
          "internalType": "uint32",
          "name": "",
          "type": "uint32"
        }
      ],
      "stateMutability": "view",
      "type": "function"
    },
    {
      "inputs": [],
      "name": "LIMIT_ORDER_PROTOCOL",
      "outputs": [
        {
          "internalType": "address",
          "name": "",
          "type": "address"
        }
      ],
      "stateMutability": "view",
      "type": "function"
    },
    {
      "inputs": [],
      "name": "PAPAYA",
      "outputs": [
        {
          "internalType": "contract IPapayaSimplified",
          "name": "",
          "type": "address"
        }
      ],
      "stateMutability": "view",
      "type": "function"
    },
    {
      "inputs": [],
      "name": "TOKEN",
      "outputs": [
        {
          "internalType": "contract IERC20",
          "name": "",
          "type": "address"
        }
      ],
      "stateMutability": "view",
      "type": "function"
    },
    {
      "inputs": [],
      "name": "TOKEN_PAIR_PRICE_FEED",
      "outputs": [
        {
          "internalType": "contract AggregatorV3Interface",
          "name": "",
          "type": "address"
        }
      ],
      "stateMutability": "view",
      "type": "function"
    },
    {
      "inputs": [],
      "name": "WETH",
      "outputs": [
        {
          "internalType": "contract IERC20",
          "name": "",
          "type": "address"
        }
      ],
      "stateMutability": "view",
      "type": "function"
    },
    {
      "inputs": [
        {
          "internalType": "address",
          "name": "account",
          "type": "address"
        }
      ],
      "name": "balanceOf",
      "outputs": [
        {
          "internalType": "uint256",
          "name": "",
          "type": "uint256"
        }
      ],
      "stateMutability": "view",
      "type": "function"
    },
    {
      "inputs": [
        {
          "components": [
            {
              "internalType": "uint256",
              "name": "salt",
              "type": "uint256"
            },
            {
              "internalType": "Address",
              "name": "maker",
              "type": "uint256"
            },
            {
              "internalType": "Address",
              "name": "receiver",
              "type": "uint256"
            },
            {
              "internalType": "Address",
              "name": "makerAsset",
              "type": "uint256"
            },
            {
              "internalType": "Address",
              "name": "takerAsset",
              "type": "uint256"
            },
            {
              "internalType": "uint256",
              "name": "makingAmount",
              "type": "uint256"
            },
            {
              "internalType": "uint256",
              "name": "takingAmount",
              "type": "uint256"
            },
            {
              "internalType": "MakerTraits",
              "name": "makerTraits",
              "type": "uint256"
            }
          ],
          "internalType": "struct IOrderMixin.Order",
          "name": "order",
          "type": "tuple"
        },
        {
          "internalType": "bytes",
          "name": "signature",
          "type": "bytes"
        },
        {
          "internalType": "uint256",
          "name": "amount",
          "type": "uint256"
        },
        {
          "internalType": "TakerTraits",
          "name": "takerTraits",
          "type": "uint256"
        }
      ],
      "name": "claim",
      "outputs": [],
      "stateMutability": "nonpayable",
      "type": "function"
    },
    {
      "inputs": [
        {
          "internalType": "bytes32",
          "name": "hash",
          "type": "bytes32"
        },
        {
          "internalType": "bytes",
          "name": "signature",
          "type": "bytes"
        }
      ],
      "name": "isValidSignature",
      "outputs": [
        {
          "internalType": "bytes4",
          "name": "",
          "type": "bytes4"
        }
      ],
      "stateMutability": "view",
      "type": "function"
    },
    {
      "inputs": [],
      "name": "latestRoundData",
      "outputs": [
        {
          "internalType": "int256",
          "name": "tokenPrice",
          "type": "int256"
        }
      ],
      "stateMutability": "view",
      "type": "function"
    },
    {
      "inputs": [],
      "name": "owner",
      "outputs": [
        {
          "internalType": "address",
          "name": "",
          "type": "address"
        }
      ],
      "stateMutability": "view",
      "type": "function"
    },
    {
      "inputs": [
        {
          "internalType": "address",
          "name": "from",
          "type": "address"
        },
        {
          "internalType": "uint32",
          "name": "streamStarts",
          "type": "uint32"
        },
        {
          "internalType": "uint256",
          "name": "encodedRates",
          "type": "uint256"
        }
      ],
      "name": "streamCreated",
      "outputs": [],
      "stateMutability": "nonpayable",
      "type": "function"
    },
    {
      "inputs": [
        {
          "internalType": "address",
          "name": "from",
          "type": "address"
        },
        {
          "internalType": "uint32",
          "name": "streamDeadline",
          "type": "uint32"
        },
        {
          "internalType": "uint256",
          "name": "encodedRates",
          "type": "uint256"
        }
      ],
      "name": "streamRevoked",
      "outputs": [],
      "stateMutability": "nonpayable",
      "type": "function"
    },
    {
      "inputs": [
        {
          "internalType": "address",
          "name": "account",
          "type": "address"
        }
      ],
      "name": "users",
      "outputs": [
        {
          "internalType": "uint256",
          "name": "balance",
          "type": "uint256"
        },
        {
          "internalType": "uint96",
          "name": "rate",
          "type": "uint96"
        },
        {
          "internalType": "uint32",
          "name": "updated",
          "type": "uint32"
        }
      ],
      "stateMutability": "view",
      "type": "function"
    },
    {
      "inputs": [
        {
          "internalType": "uint256",
          "name": "amount",
          "type": "uint256"
        }
      ],
      "name": "withdraw",
      "outputs": [],
      "stateMutability": "nonpayable",
      "type": "function"
    }
  ],
  "bytecode": "0x61014060405234801561001157600080fd5b5060405161262338038061262383398181016040528101906100339190610256565b3373ffffffffffffffffffffffffffffffffffffffff1660808173ffffffffffffffffffffffffffffffffffffffff16815250508373ffffffffffffffffffffffffffffffffffffffff1660e08173ffffffffffffffffffffffffffffffffffffffff16815250508473ffffffffffffffffffffffffffffffffffffffff1660c08173ffffffffffffffffffffffffffffffffffffffff16815250508173ffffffffffffffffffffffffffffffffffffffff166101008173ffffffffffffffffffffffffffffffffffffffff16815250508073ffffffffffffffffffffffffffffffffffffffff1660a08173ffffffffffffffffffffffffffffffffffffffff16815250508273ffffffffffffffffffffffffffffffffffffffff166101208173ffffffffffffffffffffffffffffffffffffffff168152505050505050506102d1565b600080fd5b600073ffffffffffffffffffffffffffffffffffffffff82169050919050565b60006101a78261017c565b9050919050565b60006101b98261019c565b9050919050565b6101c9816101ae565b81146101d457600080fd5b50565b6000815190506101e6816101c0565b92915050565b6101f58161019c565b811461020057600080fd5b50565b600081519050610212816101ec565b92915050565b60006102238261019c565b9050919050565b61023381610218565b811461023e57600080fd5b50565b6000815190506102508161022a565b92915050565b600080600080600060a0868803121561027257610271610177565b5b6000610280888289016101d7565b955050602061029188828901610203565b94505060406102a288828901610203565b93505060606102b388828901610241565b92505060806102c488828901610203565b9150509295509295909350565b60805160a05160c05160e05161010051610120516122bd610366600039600081816103470152818161053b0152610d6f01526000818161049d015281816106650152818161092801526109810152600081816106f00152610b600152600081816104510152610bfa01526000818161072c015281816107af0152610c1e0152600081816102f30152610b8401526122bd6000f3fe608060405234801561001057600080fd5b50600436106100f55760003560e01c806370a0823111610097578063ad5c464811610066578063ad5c464814610276578063c145938414610294578063ec70efdb146102b2578063feaf968c146102ce576100f5565b806370a08231146101d857806382bfefc8146102085780638da5cb5b14610226578063a87430ba14610244576100f5565b80632e1a7d4d116100d35780632e1a7d4d1461016657806341b9677114610182578063485ca67f1461019e57806368187eb8146101ba576100f5565b80631626ba7e146100fa57806321241dfe1461012a57806325b5b0de14610148575b600080fd5b610114600480360381019061010f9190611569565b6102ec565b6040516101219190611600565b60405180910390f35b61013261033e565b60405161013f919061163a565b60405180910390f35b610150610345565b60405161015d91906116d4565b60405180910390f35b610180600480360381019061017b9190611725565b610369565b005b61019c60048036038101906101979190611803565b610499565b005b6101b860048036038101906101b391906118f9565b61085d565b005b6101c2610926565b6040516101cf919061196d565b60405180910390f35b6101f260048036038101906101ed9190611988565b61094a565b6040516101ff91906119c4565b60405180910390f35b610210610b5e565b60405161021d9190611a00565b60405180910390f35b61022e610b82565b60405161023b9190611a2a565b60405180910390f35b61025e60048036038101906102599190611988565b610ba6565b60405161026d93929190611a6c565b60405180910390f35b61027e610bf8565b60405161028b9190611a00565b60405180910390f35b61029c610c1c565b6040516102a99190611a2a565b60405180910390f35b6102cc60048036038101906102c791906118f9565b610c40565b005b6102d6610d6b565b6040516102e39190611abc565b60405180910390f35b60006103197f00000000000000000000000000000000000000000000000000000000000000008484610e0e565b1561032d57631626ba7e60e01b9050610338565b63ffffffff60e01b90505b92915050565b622835c081565b7f000000000000000000000000000000000000000000000000000000000000000081565b610374336000610ebd565b80600260003373ffffffffffffffffffffffffffffffffffffffff1673ffffffffffffffffffffffffffffffffffffffff1681526020019081526020016000206000015410156103f0576040517f49986e7300000000000000000000000000000000000000000000000000000000815260040160405180910390fd5b80600260003373ffffffffffffffffffffffffffffffffffffffff1673ffffffffffffffffffffffffffffffffffffffff16815260200190815260200160002060000160008282546104429190611b06565b925050819055506104963033837f000000000000000000000000000000000000000000000000000000000000000073ffffffffffffffffffffffffffffffffffffffff1661106c909392919063ffffffff16565b50565b60007f000000000000000000000000000000000000000000000000000000000000000073ffffffffffffffffffffffffffffffffffffffff166370a08231306040518263ffffffff1660e01b81526004016104f49190611a2a565b602060405180830381865afa158015610511573d6000803e3d6000fd5b505050506040513d601f19601f820116820180604052508101906105359190611b4f565b905060007f000000000000000000000000000000000000000000000000000000000000000073ffffffffffffffffffffffffffffffffffffffff1663feaf968c6040518163ffffffff1660e01b815260040160a060405180830381865afa1580156105a4573d6000803e3d6000fd5b505050506040513d601f19601f820116820180604052508101906105c89190611bea565b5050509150506000600481819054906101000a900463ffffffff16809291906105f090611c65565b91906101000a81548163ffffffff021916908363ffffffff16021790555063ffffffff16600160008282546106259190611c91565b92505081905550600060049054906101000a900463ffffffff1663ffffffff16816001546106539190611cd3565b61065d9190611d36565b6001819055507f000000000000000000000000000000000000000000000000000000000000000073ffffffffffffffffffffffffffffffffffffffff16632e1a7d4d836040518263ffffffff1660e01b81526004016106bc91906119c4565b600060405180830381600087803b1580156106d657600080fd5b505af11580156106ea573d6000803e3d6000fd5b505050507f000000000000000000000000000000000000000000000000000000000000000073ffffffffffffffffffffffffffffffffffffffff1663095ea7b37f0000000000000000000000000000000000000000000000000000000000000000866040518363ffffffff1660e01b8152600401610769929190611d67565b6020604051808303816000875af1158015610788573d6000803e3d6000fd5b505050506040513d601f19601f820116820180604052508101906107ac9190611dc8565b507f000000000000000000000000000000000000000000000000000000000000000073ffffffffffffffffffffffffffffffffffffffff1663cc713a0488888888886040518663ffffffff1660e01b815260040161080e959493929190612010565b6060604051808303816000875af115801561082d573d6000803e3d6000fd5b505050506040513d601f19601f820116820180604052508101906108519190612077565b50505050505050505050565b60006108c2600260008673ffffffffffffffffffffffffffffffffffffffff1673ffffffffffffffffffffffffffffffffffffffff168152602001908152602001600020600101600c9054906101000a900463ffffffff1663ffffffff16600061110b565b905060004260008054906101000a900463ffffffff1663ffffffff16622835c063ffffffff166001856108f59190611cd3565b6108ff9190611c91565b6109099190611cd3565b6109139190611b06565b905061091f8582610ebd565b5050505050565b7f000000000000000000000000000000000000000000000000000000000000000081565b60003073ffffffffffffffffffffffffffffffffffffffff168273ffffffffffffffffffffffffffffffffffffffff1603610a20577f000000000000000000000000000000000000000000000000000000000000000073ffffffffffffffffffffffffffffffffffffffff166370a08231306040518263ffffffff1660e01b81526004016109d89190611a2a565b602060405180830381865afa1580156109f5573d6000803e3d6000fd5b505050506040513d601f19601f82011682018060405250810190610a199190611b4f565b9050610b59565b6000610a85600260008573ffffffffffffffffffffffffffffffffffffffff1673ffffffffffffffffffffffffffffffffffffffff168152602001908152602001600020600101600c9054906101000a900463ffffffff1663ffffffff16600061110b565b905060015481600260008673ffffffffffffffffffffffffffffffffffffffff1673ffffffffffffffffffffffffffffffffffffffff16815260200190815260200160002060010160009054906101000a90046bffffffffffffffffffffffff166bffffffffffffffffffffffff16610afe9190611c91565b610b089190611c91565b600260008573ffffffffffffffffffffffffffffffffffffffff1673ffffffffffffffffffffffffffffffffffffffff16815260200190815260200160002060000154610b559190611cd3565b9150505b919050565b7f000000000000000000000000000000000000000000000000000000000000000081565b7f000000000000000000000000000000000000000000000000000000000000000081565b60026020528060005260406000206000915090508060000154908060010160009054906101000a90046bffffffffffffffffffffffff169080600101600c9054906101000a900463ffffffff16905083565b7f000000000000000000000000000000000000000000000000000000000000000081565b7f000000000000000000000000000000000000000000000000000000000000000081565b600080610c4c83611140565b93505050915060008060009054906101000a900463ffffffff1663ffffffff1603610c9257806000806101000a81548163ffffffff021916908363ffffffff1602179055505b81600260008773ffffffffffffffffffffffffffffffffffffffff1673ffffffffffffffffffffffffffffffffffffffff16815260200190815260200160002060010160006101000a8154816bffffffffffffffffffffffff02191690836bffffffffffffffffffffffff16021790555080600260008773ffffffffffffffffffffffffffffffffffffffff1673ffffffffffffffffffffffffffffffffffffffff168152602001908152602001600020600101600c6101000a81548163ffffffff021916908363ffffffff1602179055505050505050565b60007f000000000000000000000000000000000000000000000000000000000000000073ffffffffffffffffffffffffffffffffffffffff1663feaf968c6040518163ffffffff1660e01b815260040160a060405180830381865afa158015610dd8573d6000803e3d6000fd5b505050506040513d601f19601f82011682018060405250810190610dfc9190611bea565b90919293509091509050508091505090565b6000808473ffffffffffffffffffffffffffffffffffffffff163b03610ea857600080610e3b8585611165565b509150915060006003811115610e5457610e536120ca565b5b816003811115610e6757610e666120ca565b5b148015610e9f57508573ffffffffffffffffffffffffffffffffffffffff168273ffffffffffffffffffffffffffffffffffffffff16145b92505050610eb6565b610eb38484846111c1565b90505b9392505050565b6000610f21600260008573ffffffffffffffffffffffffffffffffffffffff1673ffffffffffffffffffffffffffffffffffffffff168152602001908152602001600020600101600c9054906101000a900463ffffffff1663ffffffff168361110b565b600260008573ffffffffffffffffffffffffffffffffffffffff1673ffffffffffffffffffffffffffffffffffffffff16815260200190815260200160002060010160009054906101000a90046bffffffffffffffffffffffff166bffffffffffffffffffffffff16610f949190611c91565b905060008111156110675760015481610fad9190611c91565b600260008573ffffffffffffffffffffffffffffffffffffffff1673ffffffffffffffffffffffffffffffffffffffff1681526020019081526020016000206000016000828254610ffe9190611cd3565b9250508190555042600260008573ffffffffffffffffffffffffffffffffffffffff1673ffffffffffffffffffffffffffffffffffffffff168152602001908152602001600020600101600c6101000a81548163ffffffff021916908363ffffffff1602179055505b505050565b60006323b872dd60e01b905060006040518281528560048201528460248201528360448201526020600060648360008b5af1915081156110cb573d600081146110c157600160005114601f3d111692506110c9565b6000883b1192505b505b5080611103576040517ff405907100000000000000000000000000000000000000000000000000000000815260040160405180910390fd5b505050505050565b6000622835c063ffffffff168284426111249190611b06565b61112e9190611cd3565b6111389190611d36565b905092915050565b600080600080849350606085901c925060c085901c915060e085901c90509193509193565b600080600060418451036111aa5760008060006020870151925060408701519150606087015160001a905061119c888285856112e5565b9550955095505050506111ba565b60006002855160001b9250925092505b9250925092565b60008060008573ffffffffffffffffffffffffffffffffffffffff1685856040516024016111f0929190612176565b604051602081830303815290604052631626ba7e60e01b6020820180517bffffffffffffffffffffffffffffffffffffffffffffffffffffffff838183161783525050505060405161124291906121e2565b600060405180830381855afa9150503d806000811461127d576040519150601f19603f3d011682016040523d82523d6000602084013e611282565b606091505b509150915081801561129657506020815110155b80156112da5750631626ba7e60e01b7bffffffffffffffffffffffffffffffffffffffffffffffffffffffff1916818060200190518101906112d891906121f9565b145b925050509392505050565b60008060007f7fffffffffffffffffffffffffffffff5d576e7357a4501ddfe92f46681b20a08460001c11156113255760006003859250925092506113cf565b60006001888888886040516000815260200160405260405161134a9493929190612242565b6020604051602081039080840390855afa15801561136c573d6000803e3d6000fd5b505050602060405103519050600073ffffffffffffffffffffffffffffffffffffffff168173ffffffffffffffffffffffffffffffffffffffff16036113c057600060016000801b935093509350506113cf565b8060008060001b935093509350505b9450945094915050565b6000604051905090565b600080fd5b600080fd5b6000819050919050565b611400816113ed565b811461140b57600080fd5b50565b60008135905061141d816113f7565b92915050565b600080fd5b600080fd5b6000601f19601f8301169050919050565b7f4e487b7100000000000000000000000000000000000000000000000000000000600052604160045260246000fd5b6114768261142d565b810181811067ffffffffffffffff821117156114955761149461143e565b5b80604052505050565b60006114a86113d9565b90506114b4828261146d565b919050565b600067ffffffffffffffff8211156114d4576114d361143e565b5b6114dd8261142d565b9050602081019050919050565b82818337600083830152505050565b600061150c611507846114b9565b61149e565b90508281526020810184848401111561152857611527611428565b5b6115338482856114ea565b509392505050565b600082601f8301126115505761154f611423565b5b81356115608482602086016114f9565b91505092915050565b600080604083850312156115805761157f6113e3565b5b600061158e8582860161140e565b925050602083013567ffffffffffffffff8111156115af576115ae6113e8565b5b6115bb8582860161153b565b9150509250929050565b60007fffffffff0000000000000000000000000000000000000000000000000000000082169050919050565b6115fa816115c5565b82525050565b600060208201905061161560008301846115f1565b92915050565b600063ffffffff82169050919050565b6116348161161b565b82525050565b600060208201905061164f600083018461162b565b92915050565b600073ffffffffffffffffffffffffffffffffffffffff82169050919050565b6000819050919050565b600061169a61169561169084611655565b611675565b611655565b9050919050565b60006116ac8261167f565b9050919050565b60006116be826116a1565b9050919050565b6116ce816116b3565b82525050565b60006020820190506116e960008301846116c5565b92915050565b6000819050919050565b611702816116ef565b811461170d57600080fd5b50565b60008135905061171f816116f9565b92915050565b60006020828403121561173b5761173a6113e3565b5b600061174984828501611710565b91505092915050565b600080fd5b6000610100828403121561176e5761176d611752565b5b81905092915050565b600080fd5b600080fd5b60008083601f84011261179757611796611423565b5b8235905067ffffffffffffffff8111156117b4576117b3611777565b5b6020830191508360018202830111156117d0576117cf61177c565b5b9250929050565b6117e0816116ef565b81146117eb57600080fd5b50565b6000813590506117fd816117d7565b92915050565b600080600080600061016086880312156118205761181f6113e3565b5b600061182e88828901611757565b95505061010086013567ffffffffffffffff8111156118505761184f6113e8565b5b61185c88828901611781565b945094505061012061187088828901611710565b925050610140611882888289016117ee565b9150509295509295909350565b600061189a82611655565b9050919050565b6118aa8161188f565b81146118b557600080fd5b50565b6000813590506118c7816118a1565b92915050565b6118d68161161b565b81146118e157600080fd5b50565b6000813590506118f3816118cd565b92915050565b600080600060608486031215611912576119116113e3565b5b6000611920868287016118b8565b9350506020611931868287016118e4565b925050604061194286828701611710565b9150509250925092565b6000611957826116a1565b9050919050565b6119678161194c565b82525050565b6000602082019050611982600083018461195e565b92915050565b60006020828403121561199e5761199d6113e3565b5b60006119ac848285016118b8565b91505092915050565b6119be816116ef565b82525050565b60006020820190506119d960008301846119b5565b92915050565b60006119ea826116a1565b9050919050565b6119fa816119df565b82525050565b6000602082019050611a1560008301846119f1565b92915050565b611a248161188f565b82525050565b6000602082019050611a3f6000830184611a1b565b92915050565b60006bffffffffffffffffffffffff82169050919050565b611a6681611a45565b82525050565b6000606082019050611a8160008301866119b5565b611a8e6020830185611a5d565b611a9b604083018461162b565b949350505050565b6000819050919050565b611ab681611aa3565b82525050565b6000602082019050611ad16000830184611aad565b92915050565b7f4e487b7100000000000000000000000000000000000000000000000000000000600052601160045260246000fd5b6000611b11826116ef565b9150611b1c836116ef565b9250828203905081811115611b3457611b33611ad7565b5b92915050565b600081519050611b49816116f9565b92915050565b600060208284031215611b6557611b646113e3565b5b6000611b7384828501611b3a565b91505092915050565b600069ffffffffffffffffffff82169050919050565b611b9b81611b7c565b8114611ba657600080fd5b50565b600081519050611bb881611b92565b92915050565b611bc781611aa3565b8114611bd257600080fd5b50565b600081519050611be481611bbe565b92915050565b600080600080600060a08688031215611c0657611c056113e3565b5b6000611c1488828901611ba9565b9550506020611c2588828901611bd5565b9450506040611c3688828901611b3a565b9350506060611c4788828901611b3a565b9250506080611c5888828901611ba9565b9150509295509295909350565b6000611c708261161b565b915063ffffffff8203611c8657611c85611ad7565b5b600182019050919050565b6000611c9c826116ef565b9150611ca7836116ef565b9250828202611cb5816116ef565b91508282048414831517611ccc57611ccb611ad7565b5b5092915050565b6000611cde826116ef565b9150611ce9836116ef565b9250828201905080821115611d0157611d00611ad7565b5b92915050565b7f4e487b7100000000000000000000000000000000000000000000000000000000600052601260045260246000fd5b6000611d41826116ef565b9150611d4c836116ef565b925082611d5c57611d5b611d07565b5b828204905092915050565b6000604082019050611d7c6000830185611a1b565b611d8960208301846119b5565b9392505050565b60008115159050919050565b611da581611d90565b8114611db057600080fd5b50565b600081519050611dc281611d9c565b92915050565b600060208284031215611dde57611ddd6113e3565b5b6000611dec84828501611db3565b91505092915050565b6000611e046020840184611710565b905092915050565b611e15816116ef565b82525050565b611e24816116ef565b8114611e2f57600080fd5b50565b600081359050611e4181611e1b565b92915050565b6000611e566020840184611e32565b905092915050565b6000611e79611e74611e6f846116ef565b611675565b6116ef565b9050919050565b611e8981611e5e565b82525050565b611e98816116ef565b8114611ea357600080fd5b50565b600081359050611eb581611e8f565b92915050565b6000611eca6020840184611ea6565b905092915050565b611edb81611e5e565b82525050565b6101008201611ef36000830183611df5565b611f006000850182611e0c565b50611f0e6020830183611e47565b611f1b6020850182611e80565b50611f296040830183611e47565b611f366040850182611e80565b50611f446060830183611e47565b611f516060850182611e80565b50611f5f6080830183611e47565b611f6c6080850182611e80565b50611f7a60a0830183611df5565b611f8760a0850182611e0c565b50611f9560c0830183611df5565b611fa260c0850182611e0c565b50611fb060e0830183611ebb565b611fbd60e0850182611ed2565b50505050565b600082825260208201905092915050565b6000611fe08385611fc3565b9350611fed8385846114ea565b611ff68361142d565b840190509392505050565b61200a81611e5e565b82525050565b6000610160820190506120266000830188611ee1565b81810361010083015261203a818688611fd4565b905061204a6101208301856119b5565b612058610140830184612001565b9695505050505050565b600081519050612071816113f7565b92915050565b6000806000606084860312156120905761208f6113e3565b5b600061209e86828701611b3a565b93505060206120af86828701611b3a565b92505060406120c086828701612062565b9150509250925092565b7f4e487b7100000000000000000000000000000000000000000000000000000000600052602160045260246000fd5b612102816113ed565b82525050565b600081519050919050565b60005b83811015612131578082015181840152602081019050612116565b60008484015250505050565b600061214882612108565b6121528185611fc3565b9350612162818560208601612113565b61216b8161142d565b840191505092915050565b600060408201905061218b60008301856120f9565b818103602083015261219d818461213d565b90509392505050565b600081905092915050565b60006121bc82612108565b6121c681856121a6565b93506121d6818560208601612113565b80840191505092915050565b60006121ee82846121b1565b915081905092915050565b60006020828403121561220f5761220e6113e3565b5b600061221d84828501612062565b91505092915050565b600060ff82169050919050565b61223c81612226565b82525050565b600060808201905061225760008301876120f9565b6122646020830186612233565b61227160408301856120f9565b61227e60608301846120f9565b9594505050505056fea26469706673582212205c853ab3e1d0c4d8fc68b26ce37d8042ab1177d5faf988a0fb40a0ec209bbaeb64736f6c634300081c0033",
  "linkReferences": {},
  "deployedLinkReferences": {}
}