{
  "_format": "hh-sol-artifact-1",
  "contractName": "Paynvest",
  "sourceName": "contracts/Paynvest.sol",
  "abi": [
    {
      "inputs": [
        {
          "internalType": "address",
          "name": "owner_",
          "type": "address"
        },
        {
          "internalType": "contract IERC20",
          "name": "usdc_",
          "type": "address"
        },
        {
          "internalType": "contract IERC20",
          "name": "weth_",
          "type": "address"
        },
        {
          "internalType": "contract IPapayaSimplified",
          "name": "papaya_",
          "type": "address"
        },
        {
          "internalType": "contract IOrderMixin",
          "name": "limit_order_",
          "type": "address"
        },
        {
          "internalType": "address",
          "name": "token_price_feed_",
          "type": "address"
        },
        {
          "internalType": "uint256",
          "name": "token_scaled_",
          "type": "uint256"
        }
      ],
      "stateMutability": "nonpayable",
      "type": "constructor"
    },
    {
      "inputs": [],
      "name": "ForceApproveFailed",
      "type": "error"
    },
    {
      "inputs": [],
      "name": "SafeTransferFromFailed",
      "type": "error"
    },
    {
      "inputs": [],
      "name": "WrongAmount",
      "type": "error"
    },
    {
      "inputs": [],
      "name": "WrongMakingAmount",
      "type": "error"
    },
    {
      "anonymous": false,
      "inputs": [
        {
          "indexed": false,
          "internalType": "uint256",
          "name": "makingAmount",
          "type": "uint256"
        },
        {
          "indexed": false,
          "internalType": "uint256",
          "name": "takingAmount",
          "type": "uint256"
        },
        {
          "indexed": false,
          "internalType": "bytes32",
          "name": "orderHash",
          "type": "bytes32"
        }
      ],
      "name": "Claimed",
      "type": "event"
    },
    {
      "inputs": [],
      "name": "CLAIM_PERIOD",
      "outputs": [
        {
          "internalType": "uint32",
          "name": "",
          "type": "uint32"
        }
      ],
      "stateMutability": "view",
      "type": "function"
    },
    {
      "inputs": [],
      "name": "LIMIT_ORDER",
      "outputs": [
        {
          "internalType": "contract IOrderMixin",
          "name": "",
          "type": "address"
        }
      ],
      "stateMutability": "view",
      "type": "function"
    },
    {
      "inputs": [],
      "name": "PAPAYA",
      "outputs": [
        {
          "internalType": "contract IPapayaSimplified",
          "name": "",
          "type": "address"
        }
      ],
      "stateMutability": "view",
      "type": "function"
    },
    {
      "inputs": [],
      "name": "TOKEN_PRICE_FEED",
      "outputs": [
        {
          "internalType": "contract AggregatorV3Interface",
          "name": "",
          "type": "address"
        }
      ],
      "stateMutability": "view",
      "type": "function"
    },
    {
      "inputs": [],
      "name": "TOKEN_SCALED",
      "outputs": [
        {
          "internalType": "uint256",
          "name": "",
          "type": "uint256"
        }
      ],
      "stateMutability": "view",
      "type": "function"
    },
    {
      "inputs": [],
      "name": "USDC",
      "outputs": [
        {
          "internalType": "contract IERC20",
          "name": "",
          "type": "address"
        }
      ],
      "stateMutability": "view",
      "type": "function"
    },
    {
      "inputs": [],
      "name": "WETH",
      "outputs": [
        {
          "internalType": "contract IERC20",
          "name": "",
          "type": "address"
        }
      ],
      "stateMutability": "view",
      "type": "function"
    },
    {
      "inputs": [
        {
          "internalType": "address",
          "name": "account",
          "type": "address"
        }
      ],
      "name": "balanceOf",
      "outputs": [
        {
          "internalType": "uint256",
          "name": "",
          "type": "uint256"
        }
      ],
      "stateMutability": "view",
      "type": "function"
    },
    {
      "inputs": [
        {
          "components": [
            {
              "internalType": "uint256",
              "name": "salt",
              "type": "uint256"
            },
            {
              "internalType": "Address",
              "name": "maker",
              "type": "uint256"
            },
            {
              "internalType": "Address",
              "name": "receiver",
              "type": "uint256"
            },
            {
              "internalType": "Address",
              "name": "makerAsset",
              "type": "uint256"
            },
            {
              "internalType": "Address",
              "name": "takerAsset",
              "type": "uint256"
            },
            {
              "internalType": "uint256",
              "name": "makingAmount",
              "type": "uint256"
            },
            {
              "internalType": "uint256",
              "name": "takingAmount",
              "type": "uint256"
            },
            {
              "internalType": "MakerTraits",
              "name": "makerTraits",
              "type": "uint256"
            }
          ],
          "internalType": "struct IOrderMixin.Order",
          "name": "order",
          "type": "tuple"
        },
        {
          "internalType": "bytes",
          "name": "signature",
          "type": "bytes"
        },
        {
          "internalType": "uint256",
          "name": "amount",
          "type": "uint256"
        },
        {
          "internalType": "TakerTraits",
          "name": "takerTraits",
          "type": "uint256"
        }
      ],
      "name": "claim",
      "outputs": [],
      "stateMutability": "nonpayable",
      "type": "function"
    },
    {
      "inputs": [
        {
          "internalType": "bytes32",
          "name": "hash",
          "type": "bytes32"
        },
        {
          "internalType": "bytes",
          "name": "signature",
          "type": "bytes"
        }
      ],
      "name": "isValidSignature",
      "outputs": [
        {
          "internalType": "bytes4",
          "name": "",
          "type": "bytes4"
        }
      ],
      "stateMutability": "view",
      "type": "function"
    },
    {
      "inputs": [],
      "name": "latestRoundData",
      "outputs": [
        {
          "internalType": "int256",
          "name": "tokenPrice",
          "type": "int256"
        }
      ],
      "stateMutability": "view",
      "type": "function"
    },
    {
      "inputs": [],
      "name": "owner",
      "outputs": [
        {
          "internalType": "address",
          "name": "",
          "type": "address"
        }
      ],
      "stateMutability": "view",
      "type": "function"
    },
    {
      "inputs": [
        {
          "internalType": "address",
          "name": "from",
          "type": "address"
        },
        {
          "internalType": "uint32",
          "name": "streamStarts",
          "type": "uint32"
        },
        {
          "internalType": "uint256",
          "name": "encodedRates",
          "type": "uint256"
        }
      ],
      "name": "streamCreated",
      "outputs": [],
      "stateMutability": "nonpayable",
      "type": "function"
    },
    {
      "inputs": [
        {
          "internalType": "address",
          "name": "from",
          "type": "address"
        },
        {
          "internalType": "uint32",
          "name": "streamDeadline",
          "type": "uint32"
        },
        {
          "internalType": "uint256",
          "name": "encodedRates",
          "type": "uint256"
        }
      ],
      "name": "streamRevoked",
      "outputs": [],
      "stateMutability": "nonpayable",
      "type": "function"
    },
    {
      "inputs": [
        {
          "internalType": "address",
          "name": "account",
          "type": "address"
        }
      ],
      "name": "users",
      "outputs": [
        {
          "internalType": "uint256",
          "name": "balance",
          "type": "uint256"
        },
        {
          "internalType": "uint96",
          "name": "rate",
          "type": "uint96"
        },
        {
          "internalType": "uint32",
          "name": "updated",
          "type": "uint32"
        }
      ],
      "stateMutability": "view",
      "type": "function"
    },
    {
      "inputs": [
        {
          "internalType": "uint256",
          "name": "amount",
          "type": "uint256"
        }
      ],
      "name": "withdraw",
      "outputs": [],
      "stateMutability": "nonpayable",
      "type": "function"
    }
  ],
  "bytecode": "0x6101603461015257601f61194838819003918201601f19168301916001600160401b038311848410176101565780849260e094604052833981010312610152576100488161016a565b906100556020820161016a565b6100616040830161016a565b6060830151906001600160a01b0382168203610152576080840151926001600160a01b03841684036101525760c061009b60a0870161016a565b95015160809690965260c05260a05260e052610100526001600160a01b031661012052610140526040516117c9908161017f82396080518181816104710152611247015260a0518181816103770152610eec015260c0518181816104e00152610a92015260e051818181610599015281816108bb015261143f0152610100518181816107f00152610ac801526101205181818161013b0152818161020301526109510152610140518181816107820152610a0b0152f35b5f80fd5b634e487b7160e01b5f52604160045260245ffd5b51906001600160a01b03821682036101525756fe60806040526004361015610011575f80fd5b5f5f3560e01c80631626ba7e1461105557806321241dfe1461101a5780632e1a7d4d14610e3a57806341b9677114610814578063463e7e33146107a5578063475329331461074c578063485ca67f146105bd57806368187eb81461054e57806370a082311461050457806389a30271146104955780638da5cb5b14610426578063a87430ba1461039b578063ad5c46481461032c578063ec70efdb14610227578063f469f77a146101b85763feaf968c146100ca575f80fd5b346101b557807ffffffffffffffffffffffffffffffffffffffffffffffffffffffffffffffffc3601126101b5576040517ffeaf968c00000000000000000000000000000000000000000000000000000000815260a08160048173ffffffffffffffffffffffffffffffffffffffff7f0000000000000000000000000000000000000000000000000000000000000000165afa9081156101aa5760209291610176575b50604051908152f35b610198915060a03d60a0116101a3575b6101908183611113565b8101906112dc565b50505090505f61016d565b503d610186565b6040513d84823e3d90fd5b80fd5b50346101b557807ffffffffffffffffffffffffffffffffffffffffffffffffffffffffffffffffc3601126101b557602060405173ffffffffffffffffffffffffffffffffffffffff7f0000000000000000000000000000000000000000000000000000000000000000168152f35b50346101b5576102fd610239366111de565b905073ffffffffffffffffffffffffffffffffffffffff8160e01c9283865463ffffffff811615610300575b5050169081855260026020526bffffffffffffffffffffffff6001604087200191167fffffffffffffffffffffffffffffffffffffffff0000000000000000000000008254161790558352600260205260016040842001907fffffffffffffffffffffffffffffffff00000000ffffffffffffffffffffffff6fffffffff00000000000000000000000083549260601b169116179055565b80f35b7fffffffffffffffffffffffffffffffffffffffffffffffffffffffff0000000016178655835f610265565b50346101b557807ffffffffffffffffffffffffffffffffffffffffffffffffffffffffffffffffc3601126101b557602060405173ffffffffffffffffffffffffffffffffffffffff7f0000000000000000000000000000000000000000000000000000000000000000168152f35b50346101b55760207ffffffffffffffffffffffffffffffffffffffffffffffffffffffffffffffffc3601126101b557604060609173ffffffffffffffffffffffffffffffffffffffff6103ed6111bb565b16815260026020522063ffffffff600182549201546040519283526bffffffffffffffffffffffff81166020840152831c166040820152f35b50346101b557807ffffffffffffffffffffffffffffffffffffffffffffffffffffffffffffffffc3601126101b557602060405173ffffffffffffffffffffffffffffffffffffffff7f0000000000000000000000000000000000000000000000000000000000000000168152f35b50346101b557807ffffffffffffffffffffffffffffffffffffffffffffffffffffffffffffffffc3601126101b557602060405173ffffffffffffffffffffffffffffffffffffffff7f0000000000000000000000000000000000000000000000000000000000000000168152f35b50346101b55760207ffffffffffffffffffffffffffffffffffffffffffffffffffffffffffffffffc3601126101b55760206105466105416111bb565b611368565b604051908152f35b50346101b557807ffffffffffffffffffffffffffffffffffffffffffffffffffffffffffffffffc3601126101b557602060405173ffffffffffffffffffffffffffffffffffffffff7f0000000000000000000000000000000000000000000000000000000000000000168152f35b50346101b55773ffffffffffffffffffffffffffffffffffffffff6105e1366111de565b5050168082526002602052622835c061060a63ffffffff600160408620015460601c16426112b8565b066001810180911161071f57622835c0810290808204622835c0149015171561071f5761064c6106456106a09263ffffffff86541690611324565b42906112b8565b8284526002602052622835c06106996bffffffffffffffffffffffff60016040882001541692858752600260205261069463ffffffff600160408a20015460601c16426112b8565b611324565b0690611311565b806106a9578280f35b6001546106b591611311565b81835260026020526106cc60408420918254611324565b9055815260026020526040812060010180547fffffffffffffffffffffffffffffffff00000000ffffffffffffffffffffffff164260601b6fffffffff000000000000000000000000161790555f808280f35b6024837f4e487b710000000000000000000000000000000000000000000000000000000081526011600452fd5b50346101b557807ffffffffffffffffffffffffffffffffffffffffffffffffffffffffffffffffc3601126101b55760206040517f00000000000000000000000000000000000000000000000000000000000000008152f35b50346101b557807ffffffffffffffffffffffffffffffffffffffffffffffffffffffffffffffffc3601126101b557602060405173ffffffffffffffffffffffffffffffffffffffff7f0000000000000000000000000000000000000000000000000000000000000000168152f35b5034610d61577ffffffffffffffffffffffffffffffffffffffffffffffffffffffffffffffffc36016101608112610d615761010013610d61576101043567ffffffffffffffff8111610d615736602382011215610d615780600401359067ffffffffffffffff8211610d61573660248383010111610d61576040517f70a082310000000000000000000000000000000000000000000000000000000081523060048201527f000000000000000000000000000000000000000000000000000000000000000073ffffffffffffffffffffffffffffffffffffffff16919061012435602082602481875afa918215610d56575f92610e06575b506040517ffeaf968c00000000000000000000000000000000000000000000000000000000815260a08160048173ffffffffffffffffffffffffffffffffffffffff7f0000000000000000000000000000000000000000000000000000000000000000165afa908115610d56575f91610de2575b505f549063ffffffff8260201c169163ffffffff8314610db5578263ffffffff6109f3610a08946106946109fe957fffffffffffffffffffffffffffffffffffffffffffffffff00000000ffffffff67ffffffff000000006001610a309b0160201b1691161794855f55600154611311565b9160201c1690611331565b8060015584611311565b927f000000000000000000000000000000000000000000000000000000000000000090611331565b9360a43592838603610d8d578203610d6557803b15610d61575f80916024604051809481937f2e1a7d4d0000000000000000000000000000000000000000000000000000000083528a60048401525af18015610d5657610d3c575b50908486927f000000000000000000000000000000000000000000000000000000000000000073ffffffffffffffffffffffffffffffffffffffff7f00000000000000000000000000000000000000000000000000000000000000001696610af48189846116a0565b15610c7b575b5050602494927fffffffffffffffffffffffffffffffffffffffffffffffffffffffffffffffe0601f6060989694610184946040519b8c9a8b998a977fcc713a0400000000000000000000000000000000000000000000000000000000895260043560048a01528235838a015260443560448a015260643560648a015260843560848a015260a489015260c43560c489015260e43560e48901526101606101048901528261016489015201878701378686838701015261012485015261014435610144850152011681010301925af180156101aa57829183908492610c15575b50916060917f5ca98748aee67479889c029151254c5adddcde4e34b424bcb03b2ea4bc23a7e39360405192835260208301526040820152a180f35b925050506060813d606011610c73575b81610c3260609383611113565b81010312610c6f578051602082015160409092015190917f5ca98748aee67479889c029151254c5adddcde4e34b424bcb03b2ea4bc23a7e3610bda565b5080fd5b3d9150610c25565b919394909250508560208960446040517f095ea7b300000000000000000000000000000000000000000000000000000000815284600482015282602482015282875af180610d1a575b15928315610d07575b505050610cdf57908486925f80610afa565b6004867f19be9a90000000000000000000000000000000000000000000000000000000008152fd5b610d1193506116a0565b155f8581610ccd565b50503d15610d3257856001895114601f3d1116610cc4565b85823b1515610cc4565b8596505f610d4c91939293611113565b5f95919091610a8b565b6040513d5f823e3d90fd5b5f80fd5b7f49986e73000000000000000000000000000000000000000000000000000000005f5260045ffd5b7f5845b37b000000000000000000000000000000000000000000000000000000005f5260045ffd5b7f4e487b71000000000000000000000000000000000000000000000000000000005f52601160045260245ffd5b610dfb915060a03d60a0116101a3576101908183611113565b50505090505f610981565b9091506020813d602011610e32575b81610e2260209383611113565b81010312610d615751905f61090d565b3d9150610e15565b34610d615760207ffffffffffffffffffffffffffffffffffffffffffffffffffffffffffffffffc360112610d6157335f90815260026020526040902060010154600435906bffffffffffffffffffffffff811690610ea29060601c63ffffffff16426112b8565b90622835c0610eb2920690611311565b80610fa1575b50335f5260026020528060405f205410610d6557335f52600260205260405f20610ee38282546112b8565b905560205f60647f000000000000000000000000000000000000000000000000000000000000000093604051907f23b872dd000000000000000000000000000000000000000000000000000000008252306004830152336024830152604482015282855af19081610f7f575b5015610f5757005b7ff4059071000000000000000000000000000000000000000000000000000000005f5260045ffd5b90503d15610f99575060015f5114601f3d11165b81610f4f565b3b1515610f93565b600154610fad91611311565b335f526002602052610fc460405f20918254611324565b9055335f90815260026020526040902060010180547fffffffffffffffffffffffffffffffff00000000ffffffffffffffffffffffff164260601b6fffffffff0000000000000000000000001617905581610eb8565b34610d61575f7ffffffffffffffffffffffffffffffffffffffffffffffffffffffffffffffffc360112610d61576020604051622835c08152f35b34610d615760407ffffffffffffffffffffffffffffffffffffffffffffffffffffffffffffffffc360112610d615760243567ffffffffffffffff8111610d615736602382011215610d61578060040135906110b082611181565b6110bd6040519182611113565b8281523660248484010111610d61575f602084819560246110e996018386013783010152600435611240565b7fffffffff0000000000000000000000000000000000000000000000000000000060405191168152f35b90601f7fffffffffffffffffffffffffffffffffffffffffffffffffffffffffffffffe0910116810190811067ffffffffffffffff82111761115457604052565b7f4e487b71000000000000000000000000000000000000000000000000000000005f52604160045260245ffd5b67ffffffffffffffff811161115457601f017fffffffffffffffffffffffffffffffffffffffffffffffffffffffffffffffe01660200190565b6004359073ffffffffffffffffffffffffffffffffffffffff82168203610d6157565b7ffffffffffffffffffffffffffffffffffffffffffffffffffffffffffffffffc6060910112610d615760043573ffffffffffffffffffffffffffffffffffffffff81168103610d61579060243563ffffffff81168103610d61579060443590565b9061126b917f00000000000000000000000000000000000000000000000000000000000000006114a1565b15611294577f1626ba7e0000000000000000000000000000000000000000000000000000000090565b7fffffffff0000000000000000000000000000000000000000000000000000000090565b91908203918211610db557565b519069ffffffffffffffffffff82168203610d6157565b908160a0910312610d61576112f0816112c5565b9160208201519160408101519161130e6080606084015193016112c5565b90565b81810292918115918404141715610db557565b91908201809211610db557565b811561133b570490565b7f4e487b71000000000000000000000000000000000000000000000000000000005f52601260045260245ffd5b73ffffffffffffffffffffffffffffffffffffffff163081146113f5578061130e915f5260026020526113ef6113e6622835c06113b563ffffffff600160405f20015460601c16426112b8565b06835f52600260205260405f2054935f5260026020526bffffffffffffffffffffffff600160405f20015416611311565b60015490611311565b90611324565b506040517f70a0823100000000000000000000000000000000000000000000000000000000815230600482015260208160248173ffffffffffffffffffffffffffffffffffffffff7f0000000000000000000000000000000000000000000000000000000000000000165afa908115610d56575f91611472575090565b90506020813d602011611499575b8161148d60209383611113565b81010312610d61575190565b3d9150611480565b91823b611514576114b191611666565b5060048110156114e7571591826114c757505090565b73ffffffffffffffffffffffffffffffffffffffff919250811691161490565b7f4e487b71000000000000000000000000000000000000000000000000000000005f52602160045260245ffd5b6040519060208201927f1626ba7e0000000000000000000000000000000000000000000000000000000084526024830152604060448301528051908160648401525f5b82811061165057505091816115c86084827fffffffffffffffffffffffffffffffffffffffffffffffffffffffffffffffe0601f885f85819c9a9b829c0101520116810103017fffffffffffffffffffffffffffffffffffffffffffffffffffffffffffffffe08101835282611113565b51915afa3d15611649573d6115dc81611181565b906115ea6040519283611113565b81523d5f602083013e5b8161163b575b81611603575090565b9050602081805181010312610d6157602001517f1626ba7e000000000000000000000000000000000000000000000000000000001490565b9050602081511015906115fa565b60606115f4565b8060208092840101516084828701015201611557565b81519190604183036116965761168f9250602082015190606060408401519301515f1a90611704565b9192909190565b50505f9160029190565b929160446020925f92604051917f095ea7b30000000000000000000000000000000000000000000000000000000083526004830152602482015282865af191826116e75750565b9091503d156116fe575060015f5114601f3d111690565b3b151590565b91907f7fffffffffffffffffffffffffffffff5d576e7357a4501ddfe92f46681b20a08411611788579160209360809260ff5f9560405194855216868401526040830152606082015282805260015afa15610d56575f5173ffffffffffffffffffffffffffffffffffffffff81161561177e57905f905f90565b505f906001905f90565b5050505f916003919056fea264697066735822122080305a9870b4ce67c0809253581ceec888ce6202514b508f409cd8a0b0b7fcde64736f6c634300081c0033",
  "linkReferences": {},
  "deployedLinkReferences": {}
}