{
  "_format": "hh-sol-artifact-1",
  "contractName": "Paynvest",
  "sourceName": "contracts/Paynvest.sol",
  "abi": [
    {
      "inputs": [
        {
          "internalType": "address",
          "name": "owner_",
          "type": "address"
        },
        {
          "internalType": "contract IERC20",
          "name": "usdc_",
          "type": "address"
        },
        {
          "internalType": "contract IERC20",
          "name": "weth_",
          "type": "address"
        }
      ],
      "stateMutability": "nonpayable",
      "type": "constructor"
    },
    {
      "inputs": [],
      "name": "SafeTransferFromFailed",
      "type": "error"
    },
    {
      "inputs": [],
      "name": "WrongAmount",
      "type": "error"
    },
    {
      "inputs": [],
      "name": "CLAIM_PERIOD",
      "outputs": [
        {
          "internalType": "uint32",
          "name": "",
          "type": "uint32"
        }
      ],
      "stateMutability": "view",
      "type": "function"
    },
    {
      "inputs": [
        {
          "internalType": "address",
          "name": "account",
          "type": "address"
        }
      ],
      "name": "balanceOf",
      "outputs": [
        {
          "internalType": "uint256",
          "name": "balance",
          "type": "uint256"
        }
      ],
      "stateMutability": "view",
      "type": "function"
    },
    {
      "inputs": [],
      "name": "claim",
      "outputs": [],
      "stateMutability": "nonpayable",
      "type": "function"
    },
    {
      "inputs": [
        {
          "internalType": "bytes32",
          "name": "hash",
          "type": "bytes32"
        },
        {
          "internalType": "bytes",
          "name": "signature",
          "type": "bytes"
        }
      ],
      "name": "isValidSignature",
      "outputs": [
        {
          "internalType": "bytes4",
          "name": "",
          "type": "bytes4"
        }
      ],
      "stateMutability": "view",
      "type": "function"
    },
    {
      "inputs": [
        {
          "internalType": "address",
          "name": "from",
          "type": "address"
        },
        {
          "internalType": "uint32",
          "name": "streamStarts",
          "type": "uint32"
        },
        {
          "internalType": "uint256",
          "name": "encodedRates",
          "type": "uint256"
        }
      ],
      "name": "streamCreated",
      "outputs": [],
      "stateMutability": "nonpayable",
      "type": "function"
    },
    {
      "inputs": [
        {
          "internalType": "address",
          "name": "from",
          "type": "address"
        },
        {
          "internalType": "uint32",
          "name": "streamDeadline",
          "type": "uint32"
        },
        {
          "internalType": "uint256",
          "name": "encodedRates",
          "type": "uint256"
        }
      ],
      "name": "streamRevoked",
      "outputs": [],
      "stateMutability": "nonpayable",
      "type": "function"
    },
    {
      "inputs": [
        {
          "internalType": "address",
          "name": "account",
          "type": "address"
        }
      ],
      "name": "users",
      "outputs": [
        {
          "internalType": "uint256",
          "name": "balance",
          "type": "uint256"
        },
        {
          "internalType": "uint96",
          "name": "rate",
          "type": "uint96"
        },
        {
          "internalType": "uint32",
          "name": "streamStarted",
          "type": "uint32"
        }
      ],
      "stateMutability": "view",
      "type": "function"
    },
    {
      "inputs": [
        {
          "internalType": "uint256",
          "name": "amount",
          "type": "uint256"
        }
      ],
      "name": "withdraw",
      "outputs": [],
      "stateMutability": "nonpayable",
      "type": "function"
    }
  ],
  "bytecode": "0x60e03461009a57601f610bb238819003918201601f19168301916001600160401b0383118484101761009e5780849260609460405283398101031261009a578051906001600160a01b038216820361009a576100696040610062602084016100b2565b92016100b2565b9160805260c05260a052604051610aeb90816100c782396080518161077e015260a05181610474015260c051815050f35b5f80fd5b634e487b7160e01b5f52604160045260245ffd5b51906001600160a01b038216820361009a5756fe60806040526004361015610011575f80fd5b5f3560e01c80631626ba7e1461058c57806321241dfe146105515780632e1a7d4d146103c2578063485ca67f146102a95780634e71d92d1461027957806370a08231146101cb578063a87430ba146101415763ec70efdb14610071575f80fd5b3461013d5773ffffffffffffffffffffffffffffffffffffffff61009436610715565b929190505f5463ffffffff81161561010d575b50165f90815260026020526040902060010180547fffffffffffffffffffffffffffffffff00000000000000000000000000000000166bffffffffffffffffffffffff83161760809290921c6fffffffff00000000000000000000000016919091179055005b7fffffffffffffffffffffffffffffffffffffffffffffffffffffffff000000008460e01c9116175f555f6100a7565b5f80fd5b3461013d5760207ffffffffffffffffffffffffffffffffffffffffffffffffffffffffffffffffc36011261013d5773ffffffffffffffffffffffffffffffffffffffff61018d6106f2565b165f526002602052606060405f2063ffffffff600182549201546040519283526bffffffffffffffffffffffff81166020840152831c166040820152f35b3461013d5760207ffffffffffffffffffffffffffffffffffffffffffffffffffffffffffffffffc36011261013d57602061027161026873ffffffffffffffffffffffffffffffffffffffff61021f6106f2565b16805f5260028452622835c061024563ffffffff600160405f20015460601c16426107ef565b06905f52600284526bffffffffffffffffffffffff600160405f20015416610809565b60015490610809565b604051908152f35b3461013d575f7ffffffffffffffffffffffffffffffffffffffffffffffffffffffffffffffffc36011261013d57005b3461013d5773ffffffffffffffffffffffffffffffffffffffff6102cc36610715565b505016805f526002602052622835c06102f563ffffffff600160405f20015460601c16426107ef565b066001810180911161039557622835c0810290808204622835c014901517156103955761026861033a6103336103849363ffffffff5f5416906107fc565b42906107ef565b5f848152600260205260409020600101546bffffffffffffffffffffffff811691622835c09161037d91906103789060601c63ffffffff16426107ef565b6107fc565b0690610809565b905f52600260205260405f20555f80f35b7f4e487b71000000000000000000000000000000000000000000000000000000005f52601160045260245ffd5b3461013d5760207ffffffffffffffffffffffffffffffffffffffffffffffffffffffffffffffffc36011261013d57335f90815260026020526040902060010154600435906bffffffffffffffffffffffff81169061042a9060601c63ffffffff16426107ef565b61043d91622835c0610268920690610809565b335f908152600260205260409020819055811161052957335f52600260205260405f2061046b8282546107ef565b905560205f60647f000000000000000000000000000000000000000000000000000000000000000093604051907f23b872dd000000000000000000000000000000000000000000000000000000008252306004830152336024830152604482015282855af19081610507575b50156104df57005b7ff4059071000000000000000000000000000000000000000000000000000000005f5260045ffd5b90503d15610521575060015f5114601f3d11165b816104d7565b3b151561051b565b7f49986e73000000000000000000000000000000000000000000000000000000005f5260045ffd5b3461013d575f7ffffffffffffffffffffffffffffffffffffffffffffffffffffffffffffffffc36011261013d576020604051622835c08152f35b3461013d5760407ffffffffffffffffffffffffffffffffffffffffffffffffffffffffffffffffc36011261013d5760243567ffffffffffffffff811161013d573660238201121561013d578060040135906105e7826106b8565b6105f4604051918261064a565b828152366024848401011161013d575f6020848195602461062096018386013783010152600435610777565b7fffffffff0000000000000000000000000000000000000000000000000000000060405191168152f35b90601f7fffffffffffffffffffffffffffffffffffffffffffffffffffffffffffffffe0910116810190811067ffffffffffffffff82111761068b57604052565b7f4e487b71000000000000000000000000000000000000000000000000000000005f52604160045260245ffd5b67ffffffffffffffff811161068b57601f017fffffffffffffffffffffffffffffffffffffffffffffffffffffffffffffffe01660200190565b6004359073ffffffffffffffffffffffffffffffffffffffff8216820361013d57565b7ffffffffffffffffffffffffffffffffffffffffffffffffffffffffffffffffc606091011261013d5760043573ffffffffffffffffffffffffffffffffffffffff8116810361013d579060243563ffffffff8116810361013d579060443590565b906107a2917f000000000000000000000000000000000000000000000000000000000000000061081c565b156107cb577f1626ba7e0000000000000000000000000000000000000000000000000000000090565b7fffffffff0000000000000000000000000000000000000000000000000000000090565b9190820391821161039557565b9190820180921161039557565b8181029291811591840414171561039557565b91823b61088f5761082c916109e1565b5060048110156108625715918261084257505090565b73ffffffffffffffffffffffffffffffffffffffff919250811691161490565b7f4e487b71000000000000000000000000000000000000000000000000000000005f52602160045260245ffd5b6040519060208201927f1626ba7e0000000000000000000000000000000000000000000000000000000084526024830152604060448301528051908160648401525f5b8281106109cb57505091816109436084827fffffffffffffffffffffffffffffffffffffffffffffffffffffffffffffffe0601f885f85819c9a9b829c0101520116810103017fffffffffffffffffffffffffffffffffffffffffffffffffffffffffffffffe0810183528261064a565b51915afa3d156109c4573d610957816106b8565b90610965604051928361064a565b81523d5f602083013e5b816109b6575b8161097e575090565b905060208180518101031261013d57602001517f1626ba7e000000000000000000000000000000000000000000000000000000001490565b905060208151101590610975565b606061096f565b80602080928401015160848287010152016108d2565b8151919060418303610a1157610a0a9250602082015190606060408401519301515f1a90610a1b565b9192909190565b50505f9160029190565b91907f7fffffffffffffffffffffffffffffff5d576e7357a4501ddfe92f46681b20a08411610aaa579160209360809260ff5f9560405194855216868401526040830152606082015282805260015afa15610a9f575f5173ffffffffffffffffffffffffffffffffffffffff811615610a9557905f905f90565b505f906001905f90565b6040513d5f823e3d90fd5b5050505f916003919056fea2646970667358221220dfdb0bac84332f24aef238c39ac61a7f7ea0b287ade916191e8cadc6af897d9b64736f6c634300081c0033",
  "linkReferences": {},
  "deployedLinkReferences": {}
}