{
  "_format": "hh-sol-artifact-1",
  "contractName": "Paynvest",
  "sourceName": "contracts/Paynvest.sol",
  "abi": [
    {
      "inputs": [
        {
          "internalType": "address",
          "name": "owner_",
          "type": "address"
        },
        {
          "internalType": "contract IERC20",
          "name": "usdc_",
          "type": "address"
        },
        {
          "internalType": "contract IERC20",
          "name": "weth_",
          "type": "address"
        }
      ],
      "stateMutability": "nonpayable",
      "type": "constructor"
    },
    {
      "inputs": [],
      "name": "SafeTransferFromFailed",
      "type": "error"
    },
    {
      "inputs": [],
      "name": "WrongAmount",
      "type": "error"
    },
    {
      "inputs": [],
      "name": "CLAIM_PERIOD",
      "outputs": [
        {
          "internalType": "uint32",
          "name": "",
          "type": "uint32"
        }
      ],
      "stateMutability": "view",
      "type": "function"
    },
    {
      "inputs": [],
      "name": "claim",
      "outputs": [],
      "stateMutability": "nonpayable",
      "type": "function"
    },
    {
      "inputs": [
        {
          "internalType": "bytes32",
          "name": "hash",
          "type": "bytes32"
        },
        {
          "internalType": "bytes",
          "name": "signature",
          "type": "bytes"
        }
      ],
      "name": "isValidSignature",
      "outputs": [
        {
          "internalType": "bytes4",
          "name": "",
          "type": "bytes4"
        }
      ],
      "stateMutability": "view",
      "type": "function"
    },
    {
      "inputs": [
        {
          "internalType": "address",
          "name": "from",
          "type": "address"
        },
        {
          "internalType": "uint32",
          "name": "streamStarts",
          "type": "uint32"
        },
        {
          "internalType": "uint256",
          "name": "encodedRates",
          "type": "uint256"
        }
      ],
      "name": "streamCreated",
      "outputs": [],
      "stateMutability": "nonpayable",
      "type": "function"
    },
    {
      "inputs": [
        {
          "internalType": "address",
          "name": "from",
          "type": "address"
        },
        {
          "internalType": "uint32",
          "name": "streamDeadline",
          "type": "uint32"
        },
        {
          "internalType": "uint256",
          "name": "encodedRates",
          "type": "uint256"
        }
      ],
      "name": "streamRevoked",
      "outputs": [],
      "stateMutability": "nonpayable",
      "type": "function"
    },
    {
      "inputs": [
        {
          "internalType": "address",
          "name": "account",
          "type": "address"
        }
      ],
      "name": "users",
      "outputs": [
        {
          "internalType": "uint256",
          "name": "balance",
          "type": "uint256"
        },
        {
          "internalType": "uint96",
          "name": "rate",
          "type": "uint96"
        },
        {
          "internalType": "uint32",
          "name": "streamStarted",
          "type": "uint32"
        }
      ],
      "stateMutability": "view",
      "type": "function"
    },
    {
      "inputs": [
        {
          "internalType": "uint256",
          "name": "amount",
          "type": "uint256"
        }
      ],
      "name": "withdraw",
      "outputs": [],
      "stateMutability": "nonpayable",
      "type": "function"
    }
  ],
  "bytecode": "0x60e03461009a57601f610b0b38819003918201601f19168301916001600160401b0383118484101761009e5780849260609460405283398101031261009a578051906001600160a01b038216820361009a576100696040610062602084016100b2565b92016100b2565b9160805260c05260a052604051610a4490816100c78239608051816106d7015260a051816103f0015260c051815050f35b5f80fd5b634e487b7160e01b5f52604160045260245ffd5b51906001600160a01b038216820361009a5756fe60806040526004361015610011575f80fd5b5f5f3560e01c80631626ba7e1461050857806321241dfe146104cd5780632e1a7d4d1461033e578063485ca67f1461022c5780634e71d92d146101fa578063a87430ba146101675763ec70efdb14610067575f80fd5b346101645773ffffffffffffffffffffffffffffffffffffffff61008a3661066e565b92919050835463ffffffff811615610134575b50168083526002602052600160408420016bffffffffffffffffffffffff83167fffffffffffffffffffffffffffffffffffffffff0000000000000000000000008254161790558252600260205260016040832001907fffffffffffffffffffffffffffffffff00000000ffffffffffffffffffffffff6fffffffff00000000000000000000000083549260801c16911617905580f35b7fffffffffffffffffffffffffffffffffffffffffffffffffffffffff000000008460e01c91161784555f61009d565b80fd5b50346101645760207ffffffffffffffffffffffffffffffffffffffffffffffffffffffffffffffffc3601126101645760043573ffffffffffffffffffffffffffffffffffffffff81168091036101f657816040916060935260026020522063ffffffff600182549201546040519283526bffffffffffffffffffffffff81166020840152831c166040820152f35b5080fd5b503461016457807ffffffffffffffffffffffffffffffffffffffffffffffffffffffffffffffffc3601126101645780f35b3461033a5761023a3661066e565b505050335f526002602052622835c061026363ffffffff600160405f20015460601c1642610748565b066001810180911161030d57622835c0810290808204622835c0149015171561030d576102f36102a86102fc926102a3429163ffffffff5f541690610755565b610748565b335f908152600260205260409020600101546bffffffffffffffffffffffff811691622835c0916102ec91906102e79060601c63ffffffff1642610748565b610755565b0690610762565b60015490610762565b335f52600260205260405f20555f80f35b7f4e487b71000000000000000000000000000000000000000000000000000000005f52601160045260245ffd5b5f80fd5b3461033a5760207ffffffffffffffffffffffffffffffffffffffffffffffffffffffffffffffffc36011261033a57335f90815260026020526040902060010154600435906bffffffffffffffffffffffff8116906103a69060601c63ffffffff1642610748565b6103b991622835c06102f3920690610762565b335f90815260026020526040902081905581116104a557335f52600260205260405f206103e7828254610748565b905560205f60647f000000000000000000000000000000000000000000000000000000000000000093604051907f23b872dd000000000000000000000000000000000000000000000000000000008252306004830152336024830152604482015282855af19081610483575b501561045b57005b7ff4059071000000000000000000000000000000000000000000000000000000005f5260045ffd5b90503d1561049d575060015f5114601f3d11165b81610453565b3b1515610497565b7f49986e73000000000000000000000000000000000000000000000000000000005f5260045ffd5b3461033a575f7ffffffffffffffffffffffffffffffffffffffffffffffffffffffffffffffffc36011261033a576020604051622835c08152f35b3461033a5760407ffffffffffffffffffffffffffffffffffffffffffffffffffffffffffffffffc36011261033a5760243567ffffffffffffffff811161033a573660238201121561033a5780600401359061056382610634565b61057060405191826105c6565b828152366024848401011161033a575f6020848195602461059c960183860137830101526004356106d0565b7fffffffff0000000000000000000000000000000000000000000000000000000060405191168152f35b90601f7fffffffffffffffffffffffffffffffffffffffffffffffffffffffffffffffe0910116810190811067ffffffffffffffff82111761060757604052565b7f4e487b71000000000000000000000000000000000000000000000000000000005f52604160045260245ffd5b67ffffffffffffffff811161060757601f017fffffffffffffffffffffffffffffffffffffffffffffffffffffffffffffffe01660200190565b7ffffffffffffffffffffffffffffffffffffffffffffffffffffffffffffffffc606091011261033a5760043573ffffffffffffffffffffffffffffffffffffffff8116810361033a579060243563ffffffff8116810361033a579060443590565b906106fb917f0000000000000000000000000000000000000000000000000000000000000000610775565b15610724577f1626ba7e0000000000000000000000000000000000000000000000000000000090565b7fffffffff0000000000000000000000000000000000000000000000000000000090565b9190820391821161030d57565b9190820180921161030d57565b8181029291811591840414171561030d57565b91823b6107e8576107859161093a565b5060048110156107bb5715918261079b57505090565b73ffffffffffffffffffffffffffffffffffffffff919250811691161490565b7f4e487b71000000000000000000000000000000000000000000000000000000005f52602160045260245ffd5b6040519060208201927f1626ba7e0000000000000000000000000000000000000000000000000000000084526024830152604060448301528051908160648401525f5b828110610924575050918161089c6084827fffffffffffffffffffffffffffffffffffffffffffffffffffffffffffffffe0601f885f85819c9a9b829c0101520116810103017fffffffffffffffffffffffffffffffffffffffffffffffffffffffffffffffe081018352826105c6565b51915afa3d1561091d573d6108b081610634565b906108be60405192836105c6565b81523d5f602083013e5b8161090f575b816108d7575090565b905060208180518101031261033a57602001517f1626ba7e000000000000000000000000000000000000000000000000000000001490565b9050602081511015906108ce565b60606108c8565b806020809284010151608482870101520161082b565b815191906041830361096a576109639250602082015190606060408401519301515f1a90610974565b9192909190565b50505f9160029190565b91907f7fffffffffffffffffffffffffffffff5d576e7357a4501ddfe92f46681b20a08411610a03579160209360809260ff5f9560405194855216868401526040830152606082015282805260015afa156109f8575f5173ffffffffffffffffffffffffffffffffffffffff8116156109ee57905f905f90565b505f906001905f90565b6040513d5f823e3d90fd5b5050505f916003919056fea264697066735822122056b8f7bad23732adcc0c1480b717d000ed18461e6bb749ba7220c3821d3cf6a764736f6c634300081c0033",
  "linkReferences": {},
  "deployedLinkReferences": {}
}