{
  "_format": "hh-sol-artifact-1",
  "contractName": "Paynvest",
  "sourceName": "contracts/Paynvest.sol",
  "abi": [
    {
      "inputs": [
        {
          "internalType": "contract IERC20",
          "name": "weth_",
          "type": "address"
        },
        {
          "internalType": "address",
          "name": "token_",
          "type": "address"
        },
        {
          "internalType": "address",
          "name": "TOKEN_PAIR_PRICE_FEED_",
          "type": "address"
        },
        {
          "internalType": "contract IPapayaSimplified",
          "name": "papaya_",
          "type": "address"
        },
        {
          "internalType": "address",
          "name": "limit_order_protocol_",
          "type": "address"
        }
      ],
      "stateMutability": "nonpayable",
      "type": "constructor"
    },
    {
      "inputs": [],
      "name": "ForceApproveFailed",
      "type": "error"
    },
    {
      "inputs": [],
      "name": "SafeTransferFromFailed",
      "type": "error"
    },
    {
      "inputs": [],
      "name": "WrongAmount",
      "type": "error"
    },
    {
      "inputs": [],
      "name": "WrongMakingAmount",
      "type": "error"
    },
    {
      "anonymous": false,
      "inputs": [
        {
          "indexed": false,
          "internalType": "uint256",
          "name": "makingAmount",
          "type": "uint256"
        },
        {
          "indexed": false,
          "internalType": "uint256",
          "name": "takingAmount",
          "type": "uint256"
        },
        {
          "indexed": false,
          "internalType": "bytes32",
          "name": "orderHash",
          "type": "bytes32"
        }
      ],
      "name": "Claimed",
      "type": "event"
    },
    {
      "inputs": [],
      "name": "CLAIM_PERIOD",
      "outputs": [
        {
          "internalType": "uint32",
          "name": "",
          "type": "uint32"
        }
      ],
      "stateMutability": "view",
      "type": "function"
    },
    {
      "inputs": [],
      "name": "DECIMALS_SCALE",
      "outputs": [
        {
          "internalType": "uint256",
          "name": "",
          "type": "uint256"
        }
      ],
      "stateMutability": "view",
      "type": "function"
    },
    {
      "inputs": [],
      "name": "LIMIT_ORDER_PROTOCOL",
      "outputs": [
        {
          "internalType": "address",
          "name": "",
          "type": "address"
        }
      ],
      "stateMutability": "view",
      "type": "function"
    },
    {
      "inputs": [],
      "name": "PAPAYA",
      "outputs": [
        {
          "internalType": "contract IPapayaSimplified",
          "name": "",
          "type": "address"
        }
      ],
      "stateMutability": "view",
      "type": "function"
    },
    {
      "inputs": [],
      "name": "TOKEN",
      "outputs": [
        {
          "internalType": "contract IERC20",
          "name": "",
          "type": "address"
        }
      ],
      "stateMutability": "view",
      "type": "function"
    },
    {
      "inputs": [],
      "name": "TOKEN_PAIR_PRICE_FEED",
      "outputs": [
        {
          "internalType": "contract AggregatorV3Interface",
          "name": "",
          "type": "address"
        }
      ],
      "stateMutability": "view",
      "type": "function"
    },
    {
      "inputs": [],
      "name": "WETH",
      "outputs": [
        {
          "internalType": "contract IERC20",
          "name": "",
          "type": "address"
        }
      ],
      "stateMutability": "view",
      "type": "function"
    },
    {
      "inputs": [
        {
          "internalType": "address",
          "name": "account",
          "type": "address"
        }
      ],
      "name": "balanceOf",
      "outputs": [
        {
          "internalType": "uint256",
          "name": "",
          "type": "uint256"
        }
      ],
      "stateMutability": "view",
      "type": "function"
    },
    {
      "inputs": [
        {
          "internalType": "uint256",
          "name": "tokenAmount",
          "type": "uint256"
        }
      ],
      "name": "claim",
      "outputs": [],
      "stateMutability": "nonpayable",
      "type": "function"
    },
    {
      "inputs": [
        {
          "internalType": "bytes32",
          "name": "hash",
          "type": "bytes32"
        },
        {
          "internalType": "bytes",
          "name": "signature",
          "type": "bytes"
        }
      ],
      "name": "isValidSignature",
      "outputs": [
        {
          "internalType": "bytes4",
          "name": "",
          "type": "bytes4"
        }
      ],
      "stateMutability": "view",
      "type": "function"
    },
    {
      "inputs": [],
      "name": "latestRoundData",
      "outputs": [
        {
          "internalType": "int256",
          "name": "tokenPrice",
          "type": "int256"
        }
      ],
      "stateMutability": "view",
      "type": "function"
    },
    {
      "inputs": [],
      "name": "not_processed_balance",
      "outputs": [
        {
          "internalType": "uint256",
          "name": "",
          "type": "uint256"
        }
      ],
      "stateMutability": "view",
      "type": "function"
    },
    {
      "inputs": [],
      "name": "owner",
      "outputs": [
        {
          "internalType": "address",
          "name": "",
          "type": "address"
        }
      ],
      "stateMutability": "view",
      "type": "function"
    },
    {
      "inputs": [
        {
          "internalType": "address",
          "name": "from",
          "type": "address"
        },
        {
          "internalType": "uint32",
          "name": "streamStarts",
          "type": "uint32"
        },
        {
          "internalType": "uint256",
          "name": "encodedRates",
          "type": "uint256"
        }
      ],
      "name": "streamCreated",
      "outputs": [],
      "stateMutability": "nonpayable",
      "type": "function"
    },
    {
      "inputs": [
        {
          "internalType": "address",
          "name": "from",
          "type": "address"
        },
        {
          "internalType": "uint32",
          "name": "streamDeadline",
          "type": "uint32"
        },
        {
          "internalType": "uint256",
          "name": "encodedRates",
          "type": "uint256"
        }
      ],
      "name": "streamRevoked",
      "outputs": [],
      "stateMutability": "nonpayable",
      "type": "function"
    },
    {
      "inputs": [
        {
          "internalType": "address",
          "name": "account",
          "type": "address"
        }
      ],
      "name": "users",
      "outputs": [
        {
          "internalType": "uint256",
          "name": "balance",
          "type": "uint256"
        },
        {
          "internalType": "uint96",
          "name": "rate",
          "type": "uint96"
        },
        {
          "internalType": "uint32",
          "name": "updated",
          "type": "uint32"
        }
      ],
      "stateMutability": "view",
      "type": "function"
    },
    {
      "inputs": [
        {
          "internalType": "uint256",
          "name": "amount",
          "type": "uint256"
        }
      ],
      "name": "withdraw",
      "outputs": [],
      "stateMutability": "nonpayable",
      "type": "function"
    }
  ],
  "bytecode": "0x61018060405234801561001157600080fd5b5060405161257c38038061257c833981810160405281019061003391906102e5565b3373ffffffffffffffffffffffffffffffffffffffff1660808173ffffffffffffffffffffffffffffffffffffffff16815250508373ffffffffffffffffffffffffffffffffffffffff1660e08173ffffffffffffffffffffffffffffffffffffffff16815250508473ffffffffffffffffffffffffffffffffffffffff1660c08173ffffffffffffffffffffffffffffffffffffffff16815250508173ffffffffffffffffffffffffffffffffffffffff166101008173ffffffffffffffffffffffffffffffffffffffff16815250508073ffffffffffffffffffffffffffffffffffffffff1660a08173ffffffffffffffffffffffffffffffffffffffff16815250508273ffffffffffffffffffffffffffffffffffffffff166101208173ffffffffffffffffffffffffffffffffffffffff16815250508373ffffffffffffffffffffffffffffffffffffffff1663313ce5676040518163ffffffff1660e01b8152600401602060405180830381865afa1580156101b8573d6000803e3d6000fd5b505050506040513d601f19601f820116820180604052508101906101dc9190610399565b60126101e891906103f5565b600a6101f49190610567565b610140818152505050505050506105b2565b600080fd5b600073ffffffffffffffffffffffffffffffffffffffff82169050919050565b60006102368261020b565b9050919050565b60006102488261022b565b9050919050565b6102588161023d565b811461026357600080fd5b50565b6000815190506102758161024f565b92915050565b6102848161022b565b811461028f57600080fd5b50565b6000815190506102a18161027b565b92915050565b60006102b28261022b565b9050919050565b6102c2816102a7565b81146102cd57600080fd5b50565b6000815190506102df816102b9565b92915050565b600080600080600060a0868803121561030157610300610206565b5b600061030f88828901610266565b955050602061032088828901610292565b945050604061033188828901610292565b9350506060610342888289016102d0565b925050608061035388828901610292565b9150509295509295909350565b600060ff82169050919050565b61037681610360565b811461038157600080fd5b50565b6000815190506103938161036d565b92915050565b6000602082840312156103af576103ae610206565b5b60006103bd84828501610384565b91505092915050565b7f4e487b7100000000000000000000000000000000000000000000000000000000600052601160045260246000fd5b600061040082610360565b915061040b83610360565b9250828203905060ff811115610424576104236103c6565b5b92915050565b60008160011c9050919050565b6000808291508390505b60018511156104815780860481111561045d5761045c6103c6565b5b600185161561046c5780820291505b808102905061047a8561042a565b9450610441565b94509492505050565b60008261049a5760019050610556565b816104a85760009050610556565b81600181146104be57600281146104c8576104f7565b6001915050610556565b60ff8411156104da576104d96103c6565b5b8360020a9150848211156104f1576104f06103c6565b5b50610556565b5060208310610133831016604e8410600b841016171561052c5782820a905083811115610527576105266103c6565b5b610556565b6105398484846001610437565b925090508184048111156105505761054f6103c6565b5b81810290505b9392505050565b6000819050919050565b60006105728261055d565b915061057d83610360565b92506105aa7fffffffffffffffffffffffffffffffffffffffffffffffffffffffffffffffff848461048a565b905092915050565b60805160a05160c05160e05161010051610120516101405161016051611f1f61065d6000396000610d4b01526000818161039201526106dc0152600081816103bd015281816105b10152610d710152600081816105130152818161074201528181610906015261095f0152600081816107f20152610b3e0152600081816104c70152610bd80152600081816107d00152610bfc0152600081816103450152610b620152611f1f6000f3fe608060405234801561001057600080fd5b506004361061010b5760003560e01c806370a08231116100a2578063ad5c464811610071578063ad5c4648146102aa578063c1459384146102c8578063ec70efdb146102e6578063fc70c11c14610302578063feaf968c146103205761010b565b806370a082311461020c57806382bfefc81461023c5780638da5cb5b1461025a578063a87430ba146102785761010b565b80632e1a7d4d116100de5780632e1a7d4d1461019a578063379607f5146101b6578063485ca67f146101d257806368187eb8146101ee5761010b565b80631626ba7e14610110578063193999a01461014057806321241dfe1461015e57806325b5b0de1461017c575b600080fd5b61012a60048036038101906101259190611645565b61033e565b60405161013791906116dc565b60405180910390f35b610148610390565b6040516101559190611710565b60405180910390f35b6101666103b4565b604051610173919061174a565b60405180910390f35b6101846103bb565b60405161019191906117e4565b60405180910390f35b6101b460048036038101906101af919061182b565b6103df565b005b6101d060048036038101906101cb919061182b565b61050f565b005b6101ec60048036038101906101e791906118c2565b61083b565b005b6101f6610904565b6040516102039190611936565b60405180910390f35b61022660048036038101906102219190611951565b610928565b6040516102339190611710565b60405180910390f35b610244610b3c565b604051610251919061199f565b60405180910390f35b610262610b60565b60405161026f91906119c9565b60405180910390f35b610292600480360381019061028d9190611951565b610b84565b6040516102a193929190611a0b565b60405180910390f35b6102b2610bd6565b6040516102bf919061199f565b60405180910390f35b6102d0610bfa565b6040516102dd91906119c9565b60405180910390f35b61030060048036038101906102fb91906118c2565b610c1e565b005b61030a610d49565b6040516103179190611710565b60405180910390f35b610328610d6d565b6040516103359190611a5b565b60405180910390f35b600061036b7f00000000000000000000000000000000000000000000000000000000000000008484610e10565b1561037f57631626ba7e60e01b905061038a565b63ffffffff60e01b90505b92915050565b7f000000000000000000000000000000000000000000000000000000000000000081565b622835c081565b7f000000000000000000000000000000000000000000000000000000000000000081565b6103ea336000610ebf565b80600260003373ffffffffffffffffffffffffffffffffffffffff1673ffffffffffffffffffffffffffffffffffffffff168152602001908152602001600020600001541015610466576040517f49986e7300000000000000000000000000000000000000000000000000000000815260040160405180910390fd5b80600260003373ffffffffffffffffffffffffffffffffffffffff1673ffffffffffffffffffffffffffffffffffffffff16815260200190815260200160002060000160008282546104b89190611aa5565b9250508190555061050c3033837f000000000000000000000000000000000000000000000000000000000000000073ffffffffffffffffffffffffffffffffffffffff1661106e909392919063ffffffff16565b50565b60007f000000000000000000000000000000000000000000000000000000000000000073ffffffffffffffffffffffffffffffffffffffff166370a08231306040518263ffffffff1660e01b815260040161056a91906119c9565b602060405180830381865afa158015610587573d6000803e3d6000fd5b505050506040513d601f19601f820116820180604052508101906105ab9190611aee565b905060007f000000000000000000000000000000000000000000000000000000000000000073ffffffffffffffffffffffffffffffffffffffff1663feaf968c6040518163ffffffff1660e01b815260040160a060405180830381865afa15801561061a573d6000803e3d6000fd5b505050506040513d601f19601f8201168201806040525081019061063e9190611b89565b5050509150506000600481819054906101000a900463ffffffff168092919061066690611c04565b91906101000a81548163ffffffff021916908363ffffffff16021790555063ffffffff166001600082825461069b9190611c30565b92505081905550600060049054906101000a900463ffffffff1663ffffffff16816001546106c99190611c72565b6106d39190611cd5565b600181905550827f0000000000000000000000000000000000000000000000000000000000000000836107069190611cd5565b92508211610740576040517f5845b37b00000000000000000000000000000000000000000000000000000000815260040160405180910390fd5b7f000000000000000000000000000000000000000000000000000000000000000073ffffffffffffffffffffffffffffffffffffffff16632e1a7d4d836040518263ffffffff1660e01b81526004016107999190611710565b600060405180830381600087803b1580156107b357600080fd5b505af11580156107c7573d6000803e3d6000fd5b505050506108367f0000000000000000000000000000000000000000000000000000000000000000847f000000000000000000000000000000000000000000000000000000000000000073ffffffffffffffffffffffffffffffffffffffff1661110d9092919063ffffffff16565b505050565b60006108a0600260008673ffffffffffffffffffffffffffffffffffffffff1673ffffffffffffffffffffffffffffffffffffffff168152602001908152602001600020600101600c9054906101000a900463ffffffff1663ffffffff166000611191565b905060004260008054906101000a900463ffffffff1663ffffffff16622835c063ffffffff166001856108d39190611c72565b6108dd9190611c30565b6108e79190611c72565b6108f19190611aa5565b90506108fd8582610ebf565b5050505050565b7f000000000000000000000000000000000000000000000000000000000000000081565b60003073ffffffffffffffffffffffffffffffffffffffff168273ffffffffffffffffffffffffffffffffffffffff16036109fe577f000000000000000000000000000000000000000000000000000000000000000073ffffffffffffffffffffffffffffffffffffffff166370a08231306040518263ffffffff1660e01b81526004016109b691906119c9565b602060405180830381865afa1580156109d3573d6000803e3d6000fd5b505050506040513d601f19601f820116820180604052508101906109f79190611aee565b9050610b37565b6000610a63600260008573ffffffffffffffffffffffffffffffffffffffff1673ffffffffffffffffffffffffffffffffffffffff168152602001908152602001600020600101600c9054906101000a900463ffffffff1663ffffffff166000611191565b905060015481600260008673ffffffffffffffffffffffffffffffffffffffff1673ffffffffffffffffffffffffffffffffffffffff16815260200190815260200160002060010160009054906101000a90046bffffffffffffffffffffffff166bffffffffffffffffffffffff16610adc9190611c30565b610ae69190611c30565b600260008573ffffffffffffffffffffffffffffffffffffffff1673ffffffffffffffffffffffffffffffffffffffff16815260200190815260200160002060000154610b339190611c72565b9150505b919050565b7f000000000000000000000000000000000000000000000000000000000000000081565b7f000000000000000000000000000000000000000000000000000000000000000081565b60026020528060005260406000206000915090508060000154908060010160009054906101000a90046bffffffffffffffffffffffff169080600101600c9054906101000a900463ffffffff16905083565b7f000000000000000000000000000000000000000000000000000000000000000081565b7f000000000000000000000000000000000000000000000000000000000000000081565b600080610c2a836111c6565b93505050915060008060009054906101000a900463ffffffff1663ffffffff1603610c7057806000806101000a81548163ffffffff021916908363ffffffff1602179055505b81600260008773ffffffffffffffffffffffffffffffffffffffff1673ffffffffffffffffffffffffffffffffffffffff16815260200190815260200160002060010160006101000a8154816bffffffffffffffffffffffff02191690836bffffffffffffffffffffffff16021790555080600260008773ffffffffffffffffffffffffffffffffffffffff1673ffffffffffffffffffffffffffffffffffffffff168152602001908152602001600020600101600c6101000a81548163ffffffff021916908363ffffffff1602179055505050505050565b7f000000000000000000000000000000000000000000000000000000000000000081565b60007f000000000000000000000000000000000000000000000000000000000000000073ffffffffffffffffffffffffffffffffffffffff1663feaf968c6040518163ffffffff1660e01b815260040160a060405180830381865afa158015610dda573d6000803e3d6000fd5b505050506040513d601f19601f82011682018060405250810190610dfe9190611b89565b90919293509091509050508091505090565b6000808473ffffffffffffffffffffffffffffffffffffffff163b03610eaa57600080610e3d85856111eb565b509150915060006003811115610e5657610e55611d06565b5b816003811115610e6957610e68611d06565b5b148015610ea157508573ffffffffffffffffffffffffffffffffffffffff168273ffffffffffffffffffffffffffffffffffffffff16145b92505050610eb8565b610eb5848484611247565b90505b9392505050565b6000610f23600260008573ffffffffffffffffffffffffffffffffffffffff1673ffffffffffffffffffffffffffffffffffffffff168152602001908152602001600020600101600c9054906101000a900463ffffffff1663ffffffff1683611191565b600260008573ffffffffffffffffffffffffffffffffffffffff1673ffffffffffffffffffffffffffffffffffffffff16815260200190815260200160002060010160009054906101000a90046bffffffffffffffffffffffff166bffffffffffffffffffffffff16610f969190611c30565b905060008111156110695760015481610faf9190611c30565b600260008573ffffffffffffffffffffffffffffffffffffffff1673ffffffffffffffffffffffffffffffffffffffff16815260200190815260200160002060000160008282546110009190611c72565b9250508190555042600260008573ffffffffffffffffffffffffffffffffffffffff1673ffffffffffffffffffffffffffffffffffffffff168152602001908152602001600020600101600c6101000a81548163ffffffff021916908363ffffffff1602179055505b505050565b60006323b872dd60e01b905060006040518281528560048201528460248201528360448201526020600060648360008b5af1915081156110cd573d600081146110c357600160005114601f3d111692506110cb565b6000883b1192505b505b5080611105576040517ff405907100000000000000000000000000000000000000000000000000000000815260040160405180910390fd5b505050505050565b6111208363095ea7b360e01b848461136b565b61118c576111388363095ea7b360e01b84600061136b565b158061115457506111528363095ea7b360e01b848461136b565b155b1561118b576040517f19be9a9000000000000000000000000000000000000000000000000000000000815260040160405180910390fd5b5b505050565b6000622835c063ffffffff168284426111aa9190611aa5565b6111b49190611c72565b6111be9190611cd5565b905092915050565b600080600080849350606085901c925060c085901c915060e085901c90509193509193565b600080600060418451036112305760008060006020870151925060408701519150606087015160001a9050611222888285856113c1565b955095509550505050611240565b60006002855160001b9250925092505b9250925092565b60008060008573ffffffffffffffffffffffffffffffffffffffff168585604051602401611276929190611dc3565b604051602081830303815290604052631626ba7e60e01b6020820180517bffffffffffffffffffffffffffffffffffffffffffffffffffffffff83818316178352505050506040516112c89190611e2f565b600060405180830381855afa9150503d8060008114611303576040519150601f19603f3d011682016040523d82523d6000602084013e611308565b606091505b509150915081801561131c57506020815110155b80156113605750631626ba7e60e01b7bffffffffffffffffffffffffffffffffffffffffffffffffffffffff19168180602001905181019061135e9190611e5b565b145b925050509392505050565b60006040518481528360048201528260248201526020600060448360008a5af1915081156113b8573d600081146113ae57600160005114601f3d111692506113b6565b6000873b1192505b505b50949350505050565b60008060007f7fffffffffffffffffffffffffffffff5d576e7357a4501ddfe92f46681b20a08460001c11156114015760006003859250925092506114ab565b6000600188888888604051600081526020016040526040516114269493929190611ea4565b6020604051602081039080840390855afa158015611448573d6000803e3d6000fd5b505050602060405103519050600073ffffffffffffffffffffffffffffffffffffffff168173ffffffffffffffffffffffffffffffffffffffff160361149c57600060016000801b935093509350506114ab565b8060008060001b935093509350505b9450945094915050565b6000604051905090565b600080fd5b600080fd5b6000819050919050565b6114dc816114c9565b81146114e757600080fd5b50565b6000813590506114f9816114d3565b92915050565b600080fd5b600080fd5b6000601f19601f8301169050919050565b7f4e487b7100000000000000000000000000000000000000000000000000000000600052604160045260246000fd5b61155282611509565b810181811067ffffffffffffffff821117156115715761157061151a565b5b80604052505050565b60006115846114b5565b90506115908282611549565b919050565b600067ffffffffffffffff8211156115b0576115af61151a565b5b6115b982611509565b9050602081019050919050565b82818337600083830152505050565b60006115e86115e384611595565b61157a565b90508281526020810184848401111561160457611603611504565b5b61160f8482856115c6565b509392505050565b600082601f83011261162c5761162b6114ff565b5b813561163c8482602086016115d5565b91505092915050565b6000806040838503121561165c5761165b6114bf565b5b600061166a858286016114ea565b925050602083013567ffffffffffffffff81111561168b5761168a6114c4565b5b61169785828601611617565b9150509250929050565b60007fffffffff0000000000000000000000000000000000000000000000000000000082169050919050565b6116d6816116a1565b82525050565b60006020820190506116f160008301846116cd565b92915050565b6000819050919050565b61170a816116f7565b82525050565b60006020820190506117256000830184611701565b92915050565b600063ffffffff82169050919050565b6117448161172b565b82525050565b600060208201905061175f600083018461173b565b92915050565b600073ffffffffffffffffffffffffffffffffffffffff82169050919050565b6000819050919050565b60006117aa6117a56117a084611765565b611785565b611765565b9050919050565b60006117bc8261178f565b9050919050565b60006117ce826117b1565b9050919050565b6117de816117c3565b82525050565b60006020820190506117f960008301846117d5565b92915050565b611808816116f7565b811461181357600080fd5b50565b600081359050611825816117ff565b92915050565b600060208284031215611841576118406114bf565b5b600061184f84828501611816565b91505092915050565b600061186382611765565b9050919050565b61187381611858565b811461187e57600080fd5b50565b6000813590506118908161186a565b92915050565b61189f8161172b565b81146118aa57600080fd5b50565b6000813590506118bc81611896565b92915050565b6000806000606084860312156118db576118da6114bf565b5b60006118e986828701611881565b93505060206118fa868287016118ad565b925050604061190b86828701611816565b9150509250925092565b6000611920826117b1565b9050919050565b61193081611915565b82525050565b600060208201905061194b6000830184611927565b92915050565b600060208284031215611967576119666114bf565b5b600061197584828501611881565b91505092915050565b6000611989826117b1565b9050919050565b6119998161197e565b82525050565b60006020820190506119b46000830184611990565b92915050565b6119c381611858565b82525050565b60006020820190506119de60008301846119ba565b92915050565b60006bffffffffffffffffffffffff82169050919050565b611a05816119e4565b82525050565b6000606082019050611a206000830186611701565b611a2d60208301856119fc565b611a3a604083018461173b565b949350505050565b6000819050919050565b611a5581611a42565b82525050565b6000602082019050611a706000830184611a4c565b92915050565b7f4e487b7100000000000000000000000000000000000000000000000000000000600052601160045260246000fd5b6000611ab0826116f7565b9150611abb836116f7565b9250828203905081811115611ad357611ad2611a76565b5b92915050565b600081519050611ae8816117ff565b92915050565b600060208284031215611b0457611b036114bf565b5b6000611b1284828501611ad9565b91505092915050565b600069ffffffffffffffffffff82169050919050565b611b3a81611b1b565b8114611b4557600080fd5b50565b600081519050611b5781611b31565b92915050565b611b6681611a42565b8114611b7157600080fd5b50565b600081519050611b8381611b5d565b92915050565b600080600080600060a08688031215611ba557611ba46114bf565b5b6000611bb388828901611b48565b9550506020611bc488828901611b74565b9450506040611bd588828901611ad9565b9350506060611be688828901611ad9565b9250506080611bf788828901611b48565b9150509295509295909350565b6000611c0f8261172b565b915063ffffffff8203611c2557611c24611a76565b5b600182019050919050565b6000611c3b826116f7565b9150611c46836116f7565b9250828202611c54816116f7565b91508282048414831517611c6b57611c6a611a76565b5b5092915050565b6000611c7d826116f7565b9150611c88836116f7565b9250828201905080821115611ca057611c9f611a76565b5b92915050565b7f4e487b7100000000000000000000000000000000000000000000000000000000600052601260045260246000fd5b6000611ce0826116f7565b9150611ceb836116f7565b925082611cfb57611cfa611ca6565b5b828204905092915050565b7f4e487b7100000000000000000000000000000000000000000000000000000000600052602160045260246000fd5b611d3e816114c9565b82525050565b600081519050919050565b600082825260208201905092915050565b60005b83811015611d7e578082015181840152602081019050611d63565b60008484015250505050565b6000611d9582611d44565b611d9f8185611d4f565b9350611daf818560208601611d60565b611db881611509565b840191505092915050565b6000604082019050611dd86000830185611d35565b8181036020830152611dea8184611d8a565b90509392505050565b600081905092915050565b6000611e0982611d44565b611e138185611df3565b9350611e23818560208601611d60565b80840191505092915050565b6000611e3b8284611dfe565b915081905092915050565b600081519050611e55816114d3565b92915050565b600060208284031215611e7157611e706114bf565b5b6000611e7f84828501611e46565b91505092915050565b600060ff82169050919050565b611e9e81611e88565b82525050565b6000608082019050611eb96000830187611d35565b611ec66020830186611e95565b611ed36040830185611d35565b611ee06060830184611d35565b9594505050505056fea264697066735822122081b512dcb42349e2e5c18cbb2704b8bc01805f0a0827fc6a316c7953ee75ca6f64736f6c634300081c0033",
  "linkReferences": {},
  "deployedLinkReferences": {}
}