{
	"data": {
		"bytecode": {
			"linkReferences": {},
			"object": "610180604052348015610010575f5ffd5b506040516114cd3803806114cd83398101604081905261002f916100f6565b336080526001600160a01b0384811660e081905286821660c0528382166101005282821660a052908416610120526040805163313ce56760e01b8152905163313ce567916004808201926020929091908290030181865afa158015610096573d5f5f3e3d5ffd5b505050506040513d601f19601f820116820180604052508101906100ba9190610167565b6100c59060126101a2565b6100d090600a6102a4565b61014052506102b29350505050565b6001600160a01b03811681146100f3575f5ffd5b50565b5f5f5f5f5f60a0868803121561010a575f5ffd5b8551610115816100df565b6020870151909550610126816100df565b6040870151909450610137816100df565b6060870151909350610148816100df565b6080870151909250610159816100df565b809150509295509295909350565b5f60208284031215610177575f5ffd5b815160ff81168114610187575f5ffd5b9392505050565b634e487b7160e01b5f52601160045260245ffd5b60ff82811682821603908111156101bb576101bb61018e565b92915050565b6001815b60018411156101fc578085048111156101e0576101e061018e565b60018416156101ee57908102905b60019390931c9280026101c5565b935093915050565b5f82610212575060016101bb565b8161021e57505f6101bb565b8160018114610234576002811461023e5761025a565b60019150506101bb565b60ff84111561024f5761024f61018e565b50506001821b6101bb565b5060208310610133831016604e8410600b841016171561027d575081810a6101bb565b6102895f1984846101c1565b805f190482111561029c5761029c61018e565b029392505050565b5f61018760ff841683610204565b60805160a05160c05160e0516101005161012051610140516101605161117a6103535f395f61035e01525f8181610140015261060a01525f8181610194015281816104fa015261095d01525f818161020e015281816104840152818161066601526107c701525f818161024801526106d201525f81816102fd015261044201525f61032401525f818161026f0152818161038e01526106f6015261117a5ff3fe608060405234801561000f575f5ffd5b5060043610610106575f3560e01c806370a082311161009e578063ad5c46481161006e578063ad5c4648146102f8578063c14593841461031f578063ec70efdb14610346578063fc70c11c14610359578063feaf968c14610380575f5ffd5b806370a082311461023057806382bfefc8146102435780638da5cb5b1461026a578063a87430ba14610291575f5ffd5b80632e1a7d4d116100d95780632e1a7d4d146101ce578063379607f5146101e3578063485ca67f146101f657806368187eb814610209575f5ffd5b80631626ba7e1461010a578063193999a01461013b57806321241dfe1461017057806325b5b0de1461018f575b5f5ffd5b61011d610118366004610e80565b610388565b6040516001600160e01b031990911681526020015b60405180910390f35b6101627f000000000000000000000000000000000000000000000000000000000000000081565b604051908152602001610132565b61017a622835c081565b60405163ffffffff9091168152602001610132565b6101b67f000000000000000000000000000000000000000000000000000000000000000081565b6040516001600160a01b039091168152602001610132565b6101e16101dc366004610f3d565b6103d8565b005b6101e16101f1366004610f3d565b61046d565b6101e1610204366004610f6f565b610720565b6101b67f000000000000000000000000000000000000000000000000000000000000000081565b61016261023e366004610fb3565b6107a1565b6101b67f000000000000000000000000000000000000000000000000000000000000000081565b6101b67f000000000000000000000000000000000000000000000000000000000000000081565b6102cf61029f366004610fb3565b60026020525f9081526040902080546001909101546001600160601b03811690600160601b900463ffffffff1683565b604080519384526001600160601b03909216602084015263ffffffff1690820152606001610132565b6101b67f000000000000000000000000000000000000000000000000000000000000000081565b6101b67f000000000000000000000000000000000000000000000000000000000000000081565b6101e1610354366004610f6f565b6108d4565b6101627f000000000000000000000000000000000000000000000000000000000000000081565b61016261095a565b5f6103b47f000000000000000000000000000000000000000000000000000000000000000084846109e5565b156103c75750630b135d3f60e11b6103d2565b506001600160e01b03195b92915050565b6103e2335f610a56565b335f90815260026020526040902054811115610411576040516349986e7360e01b815260040160405180910390fd5b335f908152600260205260408120805483929061042f908490610fe0565b9091555061046a90506001600160a01b037f000000000000000000000000000000000000000000000000000000000000000016303384610b30565b50565b6040516370a0823160e01b81523060048201525f907f00000000000000000000000000000000000000000000000000000000000000006001600160a01b0316906370a0823190602401602060405180830381865afa1580156104d1573d5f5f3e3d5ffd5b505050506040513d601f19601f820116820180604052508101906104f59190610ff3565b90505f7f00000000000000000000000000000000000000000000000000000000000000006001600160a01b031663feaf968c6040518163ffffffff1660e01b815260040160a060405180830381865afa158015610554573d5f5f3e3d5ffd5b505050506040513d601f19601f820116820180604052508101906105789190611023565b50505f805492945064010000000090920463ffffffff1692506004905061059e83611071565b91906101000a81548163ffffffff021916908363ffffffff16021790555063ffffffff1660015f8282546105d29190611095565b90915550505f5460015464010000000090910463ffffffff16906105f79083906110ac565b61060191906110bf565b6001558261062f7f0000000000000000000000000000000000000000000000000000000000000000846110bf565b9250821161065057604051635845b37b60e01b815260040160405180910390fd5b604051632e1a7d4d60e01b8152600481018390527f00000000000000000000000000000000000000000000000000000000000000006001600160a01b031690632e1a7d4d906024015f604051808303815f87803b1580156106af575f5ffd5b505af11580156106c1573d5f5f3e3d5ffd5b5061071b9250506001600160a01b037f00000000000000000000000000000000000000000000000000000000000000001690507f000000000000000000000000000000000000000000000000000000000000000085610bae565b505050565b6001600160a01b0383165f9081526002602052604081206001015461075290600160601b900463ffffffff1682610c12565b5f805491925090429063ffffffff16622835c06107708560016110ac565b61077a9190611095565b61078491906110ac565b61078e9190610fe0565b905061079a8582610a56565b5050505050565b5f306001600160a01b03831603610838576040516370a0823160e01b81523060048201527f00000000000000000000000000000000000000000000000000000000000000006001600160a01b0316906370a0823190602401602060405180830381865afa158015610814573d5f5f3e3d5ffd5b505050506040513d601f19601f820116820180604052508101906103d29190610ff3565b6001600160a01b0382165f9081526002602052604081206001015461086a90600160601b900463ffffffff1682610c12565b600180546001600160a01b0386165f90815260026020526040902090910154919250906108a19083906001600160601b0316611095565b6108ab9190611095565b6001600160a01b0384165f908152600260205260409020546108cd91906110ac565b9392505050565b5f8054829160e083901c9163ffffffff169003610900575f805463ffffffff191663ffffffff83161790555b6001600160a01b039094165f908152600260205260409020600101805463ffffffff909516600160601b026fffffffffffffffffffffffffffffffff199095166001600160601b0390921691909117939093179092555050565b5f7f00000000000000000000000000000000000000000000000000000000000000006001600160a01b031663feaf968c6040518163ffffffff1660e01b815260040160a060405180830381865afa1580156109b7573d5f5f3e3d5ffd5b505050506040513d601f19601f820116820180604052508101906109db9190611023565b5091949350505050565b5f836001600160a01b03163b5f03610a43575f5f610a038585610c36565b5090925090505f816003811115610a1c57610a1c6110de565b148015610a3a5750856001600160a01b0316826001600160a01b0316145b925050506108cd565b610a4e848484610c7f565b949350505050565b6001600160a01b0382165f90815260026020526040812060010154610a8890600160601b900463ffffffff1683610c12565b6001600160a01b0384165f90815260026020526040902060010154610ab691906001600160601b0316611095565b9050801561071b57600154610acb9082611095565b6001600160a01b0384165f9081526002602052604081208054909190610af29084906110ac565b909155505050506001600160a01b03165f908152600260205260409020600101805463ffffffff60601b1916600160601b4263ffffffff1602179055565b5f6323b872dd60e01b90505f60405182815285600482015284602482015283604482015260205f6064835f8b5af19150508015610b88573d8015610b7f5760015f5114601f3d11169150610b86565b5f873b1191505b505b80610ba65760405163f405907160e01b815260040160405180910390fd5b505050505050565b610bc18363095ea7b360e01b8484610d56565b61071b57610bd88363095ea7b360e01b845f610d56565b1580610bf45750610bf28363095ea7b360e01b8484610d56565b155b1561071b5760405163019be9a960e41b815260040160405180910390fd5b5f622835c082610c228542610fe0565b610c2c91906110ac565b6108cd91906110bf565b5f5f5f8351604103610c6d576020840151604085015160608601515f1a610c5f88828585610da4565b955095509550505050610c78565b505081515f91506002905b9250925092565b5f5f5f856001600160a01b03168585604051602401610c9f9291906110f2565b60408051601f198184030181529181526020820180516001600160e01b0316630b135d3f60e11b17905251610cd4919061112e565b5f60405180830381855afa9150503d805f8114610d0c576040519150601f19603f3d011682016040523d82523d5f602084013e610d11565b606091505b5091509150818015610d2557506020815110155b8015610d4c57508051630b135d3f60e11b90610d4a9083016020908101908401610ff3565b145b9695505050505050565b5f60405184815283600482015282602482015260205f6044835f8a5af19150508015610a4e573d8015610d945760015f5114601f3d11169150610d9b565b5f863b1191505b50949350505050565b5f80807f7fffffffffffffffffffffffffffffff5d576e7357a4501ddfe92f46681b20a0841115610ddd57505f91506003905082610e62565b604080515f808252602082018084528a905260ff891692820192909252606081018790526080810186905260019060a0016020604051602081039080840390855afa158015610e2e573d5f5f3e3d5ffd5b5050604051601f1901519150506001600160a01b038116610e5957505f925060019150829050610e62565b92505f91508190505b9450945094915050565b634e487b7160e01b5f52604160045260245ffd5b5f5f60408385031215610e91575f5ffd5b82359150602083013567ffffffffffffffff811115610eae575f5ffd5b8301601f81018513610ebe575f5ffd5b803567ffffffffffffffff811115610ed857610ed8610e6c565b604051601f8201601f19908116603f0116810167ffffffffffffffff81118282101715610f0757610f07610e6c565b604052818152828201602001871015610f1e575f5ffd5b816020840160208301375f602083830101528093505050509250929050565b5f60208284031215610f4d575f5ffd5b5035919050565b80356001600160a01b0381168114610f6a575f5ffd5b919050565b5f5f5f60608486031215610f81575f5ffd5b610f8a84610f54565b9250602084013563ffffffff81168114610fa2575f5ffd5b929592945050506040919091013590565b5f60208284031215610fc3575f5ffd5b6108cd82610f54565b634e487b7160e01b5f52601160045260245ffd5b818103818111156103d2576103d2610fcc565b5f60208284031215611003575f5ffd5b5051919050565b805169ffffffffffffffffffff81168114610f6a575f5ffd5b5f5f5f5f5f60a08688031215611037575f5ffd5b6110408661100a565b602087015160408801516060890151929750909550935091506110656080870161100a565b90509295509295909350565b5f63ffffffff821663ffffffff810361108c5761108c610fcc565b60010192915050565b80820281158282048414176103d2576103d2610fcc565b808201808211156103d2576103d2610fcc565b5f826110d957634e487b7160e01b5f52601260045260245ffd5b500490565b634e487b7160e01b5f52602160045260245ffd5b828152604060208201525f82518060408401528060208501606085015e5f606082850101526060601f19601f8301168401019150509392505050565b5f82518060208501845e5f92019182525091905056fea2646970667358221220720cd61a7b12bbb15eb092a037cb9f8d88778459e41940a96caea2eee90ef6e564736f6c634300081c0033",
			"opcodes": "PUSH2 0x180 PUSH1 0x40 MSTORE CALLVALUE DUP1 ISZERO PUSH2 0x10 JUMPI PUSH0 PUSH0 REVERT JUMPDEST POP PUSH1 0x40 MLOAD PUSH2 0x14CD CODESIZE SUB DUP1 PUSH2 0x14CD DUP4 CODECOPY DUP2 ADD PUSH1 0x40 DUP2 SWAP1 MSTORE PUSH2 0x2F SWAP2 PUSH2 0xF6 JUMP JUMPDEST CALLER PUSH1 0x80 MSTORE PUSH1 0x1 PUSH1 0x1 PUSH1 0xA0 SHL SUB DUP5 DUP2 AND PUSH1 0xE0 DUP2 SWAP1 MSTORE DUP7 DUP3 AND PUSH1 0xC0 MSTORE DUP4 DUP3 AND PUSH2 0x100 MSTORE DUP3 DUP3 AND PUSH1 0xA0 MSTORE SWAP1 DUP5 AND PUSH2 0x120 MSTORE PUSH1 0x40 DUP1 MLOAD PUSH4 0x313CE567 PUSH1 0xE0 SHL DUP2 MSTORE SWAP1 MLOAD PUSH4 0x313CE567 SWAP2 PUSH1 0x4 DUP1 DUP3 ADD SWAP3 PUSH1 0x20 SWAP3 SWAP1 SWAP2 SWAP1 DUP3 SWAP1 SUB ADD DUP2 DUP7 GAS STATICCALL ISZERO DUP1 ISZERO PUSH2 0x96 JUMPI RETURNDATASIZE PUSH0 PUSH0 RETURNDATACOPY RETURNDATASIZE PUSH0 REVERT JUMPDEST POP POP POP POP PUSH1 0x40 MLOAD RETURNDATASIZE PUSH1 0x1F NOT PUSH1 0x1F DUP3 ADD AND DUP3 ADD DUP1 PUSH1 0x40 MSTORE POP DUP2 ADD SWAP1 PUSH2 0xBA SWAP2 SWAP1 PUSH2 0x167 JUMP JUMPDEST PUSH2 0xC5 SWAP1 PUSH1 0x12 PUSH2 0x1A2 JUMP JUMPDEST PUSH2 0xD0 SWAP1 PUSH1 0xA PUSH2 0x2A4 JUMP JUMPDEST PUSH2 0x140 MSTORE POP PUSH2 0x2B2 SWAP4 POP POP POP POP JUMP JUMPDEST PUSH1 0x1 PUSH1 0x1 PUSH1 0xA0 SHL SUB DUP2 AND DUP2 EQ PUSH2 0xF3 JUMPI PUSH0 PUSH0 REVERT JUMPDEST POP JUMP JUMPDEST PUSH0 PUSH0 PUSH0 PUSH0 PUSH0 PUSH1 0xA0 DUP7 DUP9 SUB SLT ISZERO PUSH2 0x10A JUMPI PUSH0 PUSH0 REVERT JUMPDEST DUP6 MLOAD PUSH2 0x115 DUP2 PUSH2 0xDF JUMP JUMPDEST PUSH1 0x20 DUP8 ADD MLOAD SWAP1 SWAP6 POP PUSH2 0x126 DUP2 PUSH2 0xDF JUMP JUMPDEST PUSH1 0x40 DUP8 ADD MLOAD SWAP1 SWAP5 POP PUSH2 0x137 DUP2 PUSH2 0xDF JUMP JUMPDEST PUSH1 0x60 DUP8 ADD MLOAD SWAP1 SWAP4 POP PUSH2 0x148 DUP2 PUSH2 0xDF JUMP JUMPDEST PUSH1 0x80 DUP8 ADD MLOAD SWAP1 SWAP3 POP PUSH2 0x159 DUP2 PUSH2 0xDF JUMP JUMPDEST DUP1 SWAP2 POP POP SWAP3 SWAP6 POP SWAP3 SWAP6 SWAP1 SWAP4 POP JUMP JUMPDEST PUSH0 PUSH1 0x20 DUP3 DUP5 SUB SLT ISZERO PUSH2 0x177 JUMPI PUSH0 PUSH0 REVERT JUMPDEST DUP2 MLOAD PUSH1 0xFF DUP2 AND DUP2 EQ PUSH2 0x187 JUMPI PUSH0 PUSH0 REVERT JUMPDEST SWAP4 SWAP3 POP POP POP JUMP JUMPDEST PUSH4 0x4E487B71 PUSH1 0xE0 SHL PUSH0 MSTORE PUSH1 0x11 PUSH1 0x4 MSTORE PUSH1 0x24 PUSH0 REVERT JUMPDEST PUSH1 0xFF DUP3 DUP2 AND DUP3 DUP3 AND SUB SWAP1 DUP2 GT ISZERO PUSH2 0x1BB JUMPI PUSH2 0x1BB PUSH2 0x18E JUMP JUMPDEST SWAP3 SWAP2 POP POP JUMP JUMPDEST PUSH1 0x1 DUP2 JUMPDEST PUSH1 0x1 DUP5 GT ISZERO PUSH2 0x1FC JUMPI DUP1 DUP6 DIV DUP2 GT ISZERO PUSH2 0x1E0 JUMPI PUSH2 0x1E0 PUSH2 0x18E JUMP JUMPDEST PUSH1 0x1 DUP5 AND ISZERO PUSH2 0x1EE JUMPI SWAP1 DUP2 MUL SWAP1 JUMPDEST PUSH1 0x1 SWAP4 SWAP1 SWAP4 SHR SWAP3 DUP1 MUL PUSH2 0x1C5 JUMP JUMPDEST SWAP4 POP SWAP4 SWAP2 POP POP JUMP JUMPDEST PUSH0 DUP3 PUSH2 0x212 JUMPI POP PUSH1 0x1 PUSH2 0x1BB JUMP JUMPDEST DUP2 PUSH2 0x21E JUMPI POP PUSH0 PUSH2 0x1BB JUMP JUMPDEST DUP2 PUSH1 0x1 DUP2 EQ PUSH2 0x234 JUMPI PUSH1 0x2 DUP2 EQ PUSH2 0x23E JUMPI PUSH2 0x25A JUMP JUMPDEST PUSH1 0x1 SWAP2 POP POP PUSH2 0x1BB JUMP JUMPDEST PUSH1 0xFF DUP5 GT ISZERO PUSH2 0x24F JUMPI PUSH2 0x24F PUSH2 0x18E JUMP JUMPDEST POP POP PUSH1 0x1 DUP3 SHL PUSH2 0x1BB JUMP JUMPDEST POP PUSH1 0x20 DUP4 LT PUSH2 0x133 DUP4 LT AND PUSH1 0x4E DUP5 LT PUSH1 0xB DUP5 LT AND OR ISZERO PUSH2 0x27D JUMPI POP DUP2 DUP2 EXP PUSH2 0x1BB JUMP JUMPDEST PUSH2 0x289 PUSH0 NOT DUP5 DUP5 PUSH2 0x1C1 JUMP JUMPDEST DUP1 PUSH0 NOT DIV DUP3 GT ISZERO PUSH2 0x29C JUMPI PUSH2 0x29C PUSH2 0x18E JUMP JUMPDEST MUL SWAP4 SWAP3 POP POP POP JUMP JUMPDEST PUSH0 PUSH2 0x187 PUSH1 0xFF DUP5 AND DUP4 PUSH2 0x204 JUMP JUMPDEST PUSH1 0x80 MLOAD PUSH1 0xA0 MLOAD PUSH1 0xC0 MLOAD PUSH1 0xE0 MLOAD PUSH2 0x100 MLOAD PUSH2 0x120 MLOAD PUSH2 0x140 MLOAD PUSH2 0x160 MLOAD PUSH2 0x117A PUSH2 0x353 PUSH0 CODECOPY PUSH0 PUSH2 0x35E ADD MSTORE PUSH0 DUP2 DUP2 PUSH2 0x140 ADD MSTORE PUSH2 0x60A ADD MSTORE PUSH0 DUP2 DUP2 PUSH2 0x194 ADD MSTORE DUP2 DUP2 PUSH2 0x4FA ADD MSTORE PUSH2 0x95D ADD MSTORE PUSH0 DUP2 DUP2 PUSH2 0x20E ADD MSTORE DUP2 DUP2 PUSH2 0x484 ADD MSTORE DUP2 DUP2 PUSH2 0x666 ADD MSTORE PUSH2 0x7C7 ADD MSTORE PUSH0 DUP2 DUP2 PUSH2 0x248 ADD MSTORE PUSH2 0x6D2 ADD MSTORE PUSH0 DUP2 DUP2 PUSH2 0x2FD ADD MSTORE PUSH2 0x442 ADD MSTORE PUSH0 PUSH2 0x324 ADD MSTORE PUSH0 DUP2 DUP2 PUSH2 0x26F ADD MSTORE DUP2 DUP2 PUSH2 0x38E ADD MSTORE PUSH2 0x6F6 ADD MSTORE PUSH2 0x117A PUSH0 RETURN INVALID PUSH1 0x80 PUSH1 0x40 MSTORE CALLVALUE DUP1 ISZERO PUSH2 0xF JUMPI PUSH0 PUSH0 REVERT JUMPDEST POP PUSH1 0x4 CALLDATASIZE LT PUSH2 0x106 JUMPI PUSH0 CALLDATALOAD PUSH1 0xE0 SHR DUP1 PUSH4 0x70A08231 GT PUSH2 0x9E JUMPI DUP1 PUSH4 0xAD5C4648 GT PUSH2 0x6E JUMPI DUP1 PUSH4 0xAD5C4648 EQ PUSH2 0x2F8 JUMPI DUP1 PUSH4 0xC1459384 EQ PUSH2 0x31F JUMPI DUP1 PUSH4 0xEC70EFDB EQ PUSH2 0x346 JUMPI DUP1 PUSH4 0xFC70C11C EQ PUSH2 0x359 JUMPI DUP1 PUSH4 0xFEAF968C EQ PUSH2 0x380 JUMPI PUSH0 PUSH0 REVERT JUMPDEST DUP1 PUSH4 0x70A08231 EQ PUSH2 0x230 JUMPI DUP1 PUSH4 0x82BFEFC8 EQ PUSH2 0x243 JUMPI DUP1 PUSH4 0x8DA5CB5B EQ PUSH2 0x26A JUMPI DUP1 PUSH4 0xA87430BA EQ PUSH2 0x291 JUMPI PUSH0 PUSH0 REVERT JUMPDEST DUP1 PUSH4 0x2E1A7D4D GT PUSH2 0xD9 JUMPI DUP1 PUSH4 0x2E1A7D4D EQ PUSH2 0x1CE JUMPI DUP1 PUSH4 0x379607F5 EQ PUSH2 0x1E3 JUMPI DUP1 PUSH4 0x485CA67F EQ PUSH2 0x1F6 JUMPI DUP1 PUSH4 0x68187EB8 EQ PUSH2 0x209 JUMPI PUSH0 PUSH0 REVERT JUMPDEST DUP1 PUSH4 0x1626BA7E EQ PUSH2 0x10A JUMPI DUP1 PUSH4 0x193999A0 EQ PUSH2 0x13B JUMPI DUP1 PUSH4 0x21241DFE EQ PUSH2 0x170 JUMPI DUP1 PUSH4 0x25B5B0DE EQ PUSH2 0x18F JUMPI JUMPDEST PUSH0 PUSH0 REVERT JUMPDEST PUSH2 0x11D PUSH2 0x118 CALLDATASIZE PUSH1 0x4 PUSH2 0xE80 JUMP JUMPDEST PUSH2 0x388 JUMP JUMPDEST PUSH1 0x40 MLOAD PUSH1 0x1 PUSH1 0x1 PUSH1 0xE0 SHL SUB NOT SWAP1 SWAP2 AND DUP2 MSTORE PUSH1 0x20 ADD JUMPDEST PUSH1 0x40 MLOAD DUP1 SWAP2 SUB SWAP1 RETURN JUMPDEST PUSH2 0x162 PUSH32 0x0 DUP2 JUMP JUMPDEST PUSH1 0x40 MLOAD SWAP1 DUP2 MSTORE PUSH1 0x20 ADD PUSH2 0x132 JUMP JUMPDEST PUSH2 0x17A PUSH3 0x2835C0 DUP2 JUMP JUMPDEST PUSH1 0x40 MLOAD PUSH4 0xFFFFFFFF SWAP1 SWAP2 AND DUP2 MSTORE PUSH1 0x20 ADD PUSH2 0x132 JUMP JUMPDEST PUSH2 0x1B6 PUSH32 0x0 DUP2 JUMP JUMPDEST PUSH1 0x40 MLOAD PUSH1 0x1 PUSH1 0x1 PUSH1 0xA0 SHL SUB SWAP1 SWAP2 AND DUP2 MSTORE PUSH1 0x20 ADD PUSH2 0x132 JUMP JUMPDEST PUSH2 0x1E1 PUSH2 0x1DC CALLDATASIZE PUSH1 0x4 PUSH2 0xF3D JUMP JUMPDEST PUSH2 0x3D8 JUMP JUMPDEST STOP JUMPDEST PUSH2 0x1E1 PUSH2 0x1F1 CALLDATASIZE PUSH1 0x4 PUSH2 0xF3D JUMP JUMPDEST PUSH2 0x46D JUMP JUMPDEST PUSH2 0x1E1 PUSH2 0x204 CALLDATASIZE PUSH1 0x4 PUSH2 0xF6F JUMP JUMPDEST PUSH2 0x720 JUMP JUMPDEST PUSH2 0x1B6 PUSH32 0x0 DUP2 JUMP JUMPDEST PUSH2 0x162 PUSH2 0x23E CALLDATASIZE PUSH1 0x4 PUSH2 0xFB3 JUMP JUMPDEST PUSH2 0x7A1 JUMP JUMPDEST PUSH2 0x1B6 PUSH32 0x0 DUP2 JUMP JUMPDEST PUSH2 0x1B6 PUSH32 0x0 DUP2 JUMP JUMPDEST PUSH2 0x2CF PUSH2 0x29F CALLDATASIZE PUSH1 0x4 PUSH2 0xFB3 JUMP JUMPDEST PUSH1 0x2 PUSH1 0x20 MSTORE PUSH0 SWAP1 DUP2 MSTORE PUSH1 0x40 SWAP1 KECCAK256 DUP1 SLOAD PUSH1 0x1 SWAP1 SWAP2 ADD SLOAD PUSH1 0x1 PUSH1 0x1 PUSH1 0x60 SHL SUB DUP2 AND SWAP1 PUSH1 0x1 PUSH1 0x60 SHL SWAP1 DIV PUSH4 0xFFFFFFFF AND DUP4 JUMP JUMPDEST PUSH1 0x40 DUP1 MLOAD SWAP4 DUP5 MSTORE PUSH1 0x1 PUSH1 0x1 PUSH1 0x60 SHL SUB SWAP1 SWAP3 AND PUSH1 0x20 DUP5 ADD MSTORE PUSH4 0xFFFFFFFF AND SWAP1 DUP3 ADD MSTORE PUSH1 0x60 ADD PUSH2 0x132 JUMP JUMPDEST PUSH2 0x1B6 PUSH32 0x0 DUP2 JUMP JUMPDEST PUSH2 0x1B6 PUSH32 0x0 DUP2 JUMP JUMPDEST PUSH2 0x1E1 PUSH2 0x354 CALLDATASIZE PUSH1 0x4 PUSH2 0xF6F JUMP JUMPDEST PUSH2 0x8D4 JUMP JUMPDEST PUSH2 0x162 PUSH32 0x0 DUP2 JUMP JUMPDEST PUSH2 0x162 PUSH2 0x95A JUMP JUMPDEST PUSH0 PUSH2 0x3B4 PUSH32 0x0 DUP5 DUP5 PUSH2 0x9E5 JUMP JUMPDEST ISZERO PUSH2 0x3C7 JUMPI POP PUSH4 0xB135D3F PUSH1 0xE1 SHL PUSH2 0x3D2 JUMP JUMPDEST POP PUSH1 0x1 PUSH1 0x1 PUSH1 0xE0 SHL SUB NOT JUMPDEST SWAP3 SWAP2 POP POP JUMP JUMPDEST PUSH2 0x3E2 CALLER PUSH0 PUSH2 0xA56 JUMP JUMPDEST CALLER PUSH0 SWAP1 DUP2 MSTORE PUSH1 0x2 PUSH1 0x20 MSTORE PUSH1 0x40 SWAP1 KECCAK256 SLOAD DUP2 GT ISZERO PUSH2 0x411 JUMPI PUSH1 0x40 MLOAD PUSH4 0x49986E73 PUSH1 0xE0 SHL DUP2 MSTORE PUSH1 0x4 ADD PUSH1 0x40 MLOAD DUP1 SWAP2 SUB SWAP1 REVERT JUMPDEST CALLER PUSH0 SWAP1 DUP2 MSTORE PUSH1 0x2 PUSH1 0x20 MSTORE PUSH1 0x40 DUP2 KECCAK256 DUP1 SLOAD DUP4 SWAP3 SWAP1 PUSH2 0x42F SWAP1 DUP5 SWAP1 PUSH2 0xFE0 JUMP JUMPDEST SWAP1 SWAP2 SSTORE POP PUSH2 0x46A SWAP1 POP PUSH1 0x1 PUSH1 0x1 PUSH1 0xA0 SHL SUB PUSH32 0x0 AND ADDRESS CALLER DUP5 PUSH2 0xB30 JUMP JUMPDEST POP JUMP JUMPDEST PUSH1 0x40 MLOAD PUSH4 0x70A08231 PUSH1 0xE0 SHL DUP2 MSTORE ADDRESS PUSH1 0x4 DUP3 ADD MSTORE PUSH0 SWAP1 PUSH32 0x0 PUSH1 0x1 PUSH1 0x1 PUSH1 0xA0 SHL SUB AND SWAP1 PUSH4 0x70A08231 SWAP1 PUSH1 0x24 ADD PUSH1 0x20 PUSH1 0x40 MLOAD DUP1 DUP4 SUB DUP2 DUP7 GAS STATICCALL ISZERO DUP1 ISZERO PUSH2 0x4D1 JUMPI RETURNDATASIZE PUSH0 PUSH0 RETURNDATACOPY RETURNDATASIZE PUSH0 REVERT JUMPDEST POP POP POP POP PUSH1 0x40 MLOAD RETURNDATASIZE PUSH1 0x1F NOT PUSH1 0x1F DUP3 ADD AND DUP3 ADD DUP1 PUSH1 0x40 MSTORE POP DUP2 ADD SWAP1 PUSH2 0x4F5 SWAP2 SWAP1 PUSH2 0xFF3 JUMP JUMPDEST SWAP1 POP PUSH0 PUSH32 0x0 PUSH1 0x1 PUSH1 0x1 PUSH1 0xA0 SHL SUB AND PUSH4 0xFEAF968C PUSH1 0x40 MLOAD DUP2 PUSH4 0xFFFFFFFF AND PUSH1 0xE0 SHL DUP2 MSTORE PUSH1 0x4 ADD PUSH1 0xA0 PUSH1 0x40 MLOAD DUP1 DUP4 SUB DUP2 DUP7 GAS STATICCALL ISZERO DUP1 ISZERO PUSH2 0x554 JUMPI RETURNDATASIZE PUSH0 PUSH0 RETURNDATACOPY RETURNDATASIZE PUSH0 REVERT JUMPDEST POP POP POP POP PUSH1 0x40 MLOAD RETURNDATASIZE PUSH1 0x1F NOT PUSH1 0x1F DUP3 ADD AND DUP3 ADD DUP1 PUSH1 0x40 MSTORE POP DUP2 ADD SWAP1 PUSH2 0x578 SWAP2 SWAP1 PUSH2 0x1023 JUMP JUMPDEST POP POP PUSH0 DUP1 SLOAD SWAP3 SWAP5 POP PUSH5 0x100000000 SWAP1 SWAP3 DIV PUSH4 0xFFFFFFFF AND SWAP3 POP PUSH1 0x4 SWAP1 POP PUSH2 0x59E DUP4 PUSH2 0x1071 JUMP JUMPDEST SWAP2 SWAP1 PUSH2 0x100 EXP DUP2 SLOAD DUP2 PUSH4 0xFFFFFFFF MUL NOT AND SWAP1 DUP4 PUSH4 0xFFFFFFFF AND MUL OR SWAP1 SSTORE POP PUSH4 0xFFFFFFFF AND PUSH1 0x1 PUSH0 DUP3 DUP3 SLOAD PUSH2 0x5D2 SWAP2 SWAP1 PUSH2 0x1095 JUMP JUMPDEST SWAP1 SWAP2 SSTORE POP POP PUSH0 SLOAD PUSH1 0x1 SLOAD PUSH5 0x100000000 SWAP1 SWAP2 DIV PUSH4 0xFFFFFFFF AND SWAP1 PUSH2 0x5F7 SWAP1 DUP4 SWAP1 PUSH2 0x10AC JUMP JUMPDEST PUSH2 0x601 SWAP2 SWAP1 PUSH2 0x10BF JUMP JUMPDEST PUSH1 0x1 SSTORE DUP3 PUSH2 0x62F PUSH32 0x0 DUP5 PUSH2 0x10BF JUMP JUMPDEST SWAP3 POP DUP3 GT PUSH2 0x650 JUMPI PUSH1 0x40 MLOAD PUSH4 0x5845B37B PUSH1 0xE0 SHL DUP2 MSTORE PUSH1 0x4 ADD PUSH1 0x40 MLOAD DUP1 SWAP2 SUB SWAP1 REVERT JUMPDEST PUSH1 0x40 MLOAD PUSH4 0x2E1A7D4D PUSH1 0xE0 SHL DUP2 MSTORE PUSH1 0x4 DUP2 ADD DUP4 SWAP1 MSTORE PUSH32 0x0 PUSH1 0x1 PUSH1 0x1 PUSH1 0xA0 SHL SUB AND SWAP1 PUSH4 0x2E1A7D4D SWAP1 PUSH1 0x24 ADD PUSH0 PUSH1 0x40 MLOAD DUP1 DUP4 SUB DUP2 PUSH0 DUP8 DUP1 EXTCODESIZE ISZERO DUP1 ISZERO PUSH2 0x6AF JUMPI PUSH0 PUSH0 REVERT JUMPDEST POP GAS CALL ISZERO DUP1 ISZERO PUSH2 0x6C1 JUMPI RETURNDATASIZE PUSH0 PUSH0 RETURNDATACOPY RETURNDATASIZE PUSH0 REVERT JUMPDEST POP PUSH2 0x71B SWAP3 POP POP PUSH1 0x1 PUSH1 0x1 PUSH1 0xA0 SHL SUB PUSH32 0x0 AND SWAP1 POP PUSH32 0x0 DUP6 PUSH2 0xBAE JUMP JUMPDEST POP POP POP JUMP JUMPDEST PUSH1 0x1 PUSH1 0x1 PUSH1 0xA0 SHL SUB DUP4 AND PUSH0 SWAP1 DUP2 MSTORE PUSH1 0x2 PUSH1 0x20 MSTORE PUSH1 0x40 DUP2 KECCAK256 PUSH1 0x1 ADD SLOAD PUSH2 0x752 SWAP1 PUSH1 0x1 PUSH1 0x60 SHL SWAP1 DIV PUSH4 0xFFFFFFFF AND DUP3 PUSH2 0xC12 JUMP JUMPDEST PUSH0 DUP1 SLOAD SWAP2 SWAP3 POP SWAP1 TIMESTAMP SWAP1 PUSH4 0xFFFFFFFF AND PUSH3 0x2835C0 PUSH2 0x770 DUP6 PUSH1 0x1 PUSH2 0x10AC JUMP JUMPDEST PUSH2 0x77A SWAP2 SWAP1 PUSH2 0x1095 JUMP JUMPDEST PUSH2 0x784 SWAP2 SWAP1 PUSH2 0x10AC JUMP JUMPDEST PUSH2 0x78E SWAP2 SWAP1 PUSH2 0xFE0 JUMP JUMPDEST SWAP1 POP PUSH2 0x79A DUP6 DUP3 PUSH2 0xA56 JUMP JUMPDEST POP POP POP POP POP JUMP JUMPDEST PUSH0 ADDRESS PUSH1 0x1 PUSH1 0x1 PUSH1 0xA0 SHL SUB DUP4 AND SUB PUSH2 0x838 JUMPI PUSH1 0x40 MLOAD PUSH4 0x70A08231 PUSH1 0xE0 SHL DUP2 MSTORE ADDRESS PUSH1 0x4 DUP3 ADD MSTORE PUSH32 0x0 PUSH1 0x1 PUSH1 0x1 PUSH1 0xA0 SHL SUB AND SWAP1 PUSH4 0x70A08231 SWAP1 PUSH1 0x24 ADD PUSH1 0x20 PUSH1 0x40 MLOAD DUP1 DUP4 SUB DUP2 DUP7 GAS STATICCALL ISZERO DUP1 ISZERO PUSH2 0x814 JUMPI RETURNDATASIZE PUSH0 PUSH0 RETURNDATACOPY RETURNDATASIZE PUSH0 REVERT JUMPDEST POP POP POP POP PUSH1 0x40 MLOAD RETURNDATASIZE PUSH1 0x1F NOT PUSH1 0x1F DUP3 ADD AND DUP3 ADD DUP1 PUSH1 0x40 MSTORE POP DUP2 ADD SWAP1 PUSH2 0x3D2 SWAP2 SWAP1 PUSH2 0xFF3 JUMP JUMPDEST PUSH1 0x1 PUSH1 0x1 PUSH1 0xA0 SHL SUB DUP3 AND PUSH0 SWAP1 DUP2 MSTORE PUSH1 0x2 PUSH1 0x20 MSTORE PUSH1 0x40 DUP2 KECCAK256 PUSH1 0x1 ADD SLOAD PUSH2 0x86A SWAP1 PUSH1 0x1 PUSH1 0x60 SHL SWAP1 DIV PUSH4 0xFFFFFFFF AND DUP3 PUSH2 0xC12 JUMP JUMPDEST PUSH1 0x1 DUP1 SLOAD PUSH1 0x1 PUSH1 0x1 PUSH1 0xA0 SHL SUB DUP7 AND PUSH0 SWAP1 DUP2 MSTORE PUSH1 0x2 PUSH1 0x20 MSTORE PUSH1 0x40 SWAP1 KECCAK256 SWAP1 SWAP2 ADD SLOAD SWAP2 SWAP3 POP SWAP1 PUSH2 0x8A1 SWAP1 DUP4 SWAP1 PUSH1 0x1 PUSH1 0x1 PUSH1 0x60 SHL SUB AND PUSH2 0x1095 JUMP JUMPDEST PUSH2 0x8AB SWAP2 SWAP1 PUSH2 0x1095 JUMP JUMPDEST PUSH1 0x1 PUSH1 0x1 PUSH1 0xA0 SHL SUB DUP5 AND PUSH0 SWAP1 DUP2 MSTORE PUSH1 0x2 PUSH1 0x20 MSTORE PUSH1 0x40 SWAP1 KECCAK256 SLOAD PUSH2 0x8CD SWAP2 SWAP1 PUSH2 0x10AC JUMP JUMPDEST SWAP4 SWAP3 POP POP POP JUMP JUMPDEST PUSH0 DUP1 SLOAD DUP3 SWAP2 PUSH1 0xE0 DUP4 SWAP1 SHR SWAP2 PUSH4 0xFFFFFFFF AND SWAP1 SUB PUSH2 0x900 JUMPI PUSH0 DUP1 SLOAD PUSH4 0xFFFFFFFF NOT AND PUSH4 0xFFFFFFFF DUP4 AND OR SWAP1 SSTORE JUMPDEST PUSH1 0x1 PUSH1 0x1 PUSH1 0xA0 SHL SUB SWAP1 SWAP5 AND PUSH0 SWAP1 DUP2 MSTORE PUSH1 0x2 PUSH1 0x20 MSTORE PUSH1 0x40 SWAP1 KECCAK256 PUSH1 0x1 ADD DUP1 SLOAD PUSH4 0xFFFFFFFF SWAP1 SWAP6 AND PUSH1 0x1 PUSH1 0x60 SHL MUL PUSH16 0xFFFFFFFFFFFFFFFFFFFFFFFFFFFFFFFF NOT SWAP1 SWAP6 AND PUSH1 0x1 PUSH1 0x1 PUSH1 0x60 SHL SUB SWAP1 SWAP3 AND SWAP2 SWAP1 SWAP2 OR SWAP4 SWAP1 SWAP4 OR SWAP1 SWAP3 SSTORE POP POP JUMP JUMPDEST PUSH0 PUSH32 0x0 PUSH1 0x1 PUSH1 0x1 PUSH1 0xA0 SHL SUB AND PUSH4 0xFEAF968C PUSH1 0x40 MLOAD DUP2 PUSH4 0xFFFFFFFF AND PUSH1 0xE0 SHL DUP2 MSTORE PUSH1 0x4 ADD PUSH1 0xA0 PUSH1 0x40 MLOAD DUP1 DUP4 SUB DUP2 DUP7 GAS STATICCALL ISZERO DUP1 ISZERO PUSH2 0x9B7 JUMPI RETURNDATASIZE PUSH0 PUSH0 RETURNDATACOPY RETURNDATASIZE PUSH0 REVERT JUMPDEST POP POP POP POP PUSH1 0x40 MLOAD RETURNDATASIZE PUSH1 0x1F NOT PUSH1 0x1F DUP3 ADD AND DUP3 ADD DUP1 PUSH1 0x40 MSTORE POP DUP2 ADD SWAP1 PUSH2 0x9DB SWAP2 SWAP1 PUSH2 0x1023 JUMP JUMPDEST POP SWAP2 SWAP5 SWAP4 POP POP POP POP JUMP JUMPDEST PUSH0 DUP4 PUSH1 0x1 PUSH1 0x1 PUSH1 0xA0 SHL SUB AND EXTCODESIZE PUSH0 SUB PUSH2 0xA43 JUMPI PUSH0 PUSH0 PUSH2 0xA03 DUP6 DUP6 PUSH2 0xC36 JUMP JUMPDEST POP SWAP1 SWAP3 POP SWAP1 POP PUSH0 DUP2 PUSH1 0x3 DUP2 GT ISZERO PUSH2 0xA1C JUMPI PUSH2 0xA1C PUSH2 0x10DE JUMP JUMPDEST EQ DUP1 ISZERO PUSH2 0xA3A JUMPI POP DUP6 PUSH1 0x1 PUSH1 0x1 PUSH1 0xA0 SHL SUB AND DUP3 PUSH1 0x1 PUSH1 0x1 PUSH1 0xA0 SHL SUB AND EQ JUMPDEST SWAP3 POP POP POP PUSH2 0x8CD JUMP JUMPDEST PUSH2 0xA4E DUP5 DUP5 DUP5 PUSH2 0xC7F JUMP JUMPDEST SWAP5 SWAP4 POP POP POP POP JUMP JUMPDEST PUSH1 0x1 PUSH1 0x1 PUSH1 0xA0 SHL SUB DUP3 AND PUSH0 SWAP1 DUP2 MSTORE PUSH1 0x2 PUSH1 0x20 MSTORE PUSH1 0x40 DUP2 KECCAK256 PUSH1 0x1 ADD SLOAD PUSH2 0xA88 SWAP1 PUSH1 0x1 PUSH1 0x60 SHL SWAP1 DIV PUSH4 0xFFFFFFFF AND DUP4 PUSH2 0xC12 JUMP JUMPDEST PUSH1 0x1 PUSH1 0x1 PUSH1 0xA0 SHL SUB DUP5 AND PUSH0 SWAP1 DUP2 MSTORE PUSH1 0x2 PUSH1 0x20 MSTORE PUSH1 0x40 SWAP1 KECCAK256 PUSH1 0x1 ADD SLOAD PUSH2 0xAB6 SWAP2 SWAP1 PUSH1 0x1 PUSH1 0x1 PUSH1 0x60 SHL SUB AND PUSH2 0x1095 JUMP JUMPDEST SWAP1 POP DUP1 ISZERO PUSH2 0x71B JUMPI PUSH1 0x1 SLOAD PUSH2 0xACB SWAP1 DUP3 PUSH2 0x1095 JUMP JUMPDEST PUSH1 0x1 PUSH1 0x1 PUSH1 0xA0 SHL SUB DUP5 AND PUSH0 SWAP1 DUP2 MSTORE PUSH1 0x2 PUSH1 0x20 MSTORE PUSH1 0x40 DUP2 KECCAK256 DUP1 SLOAD SWAP1 SWAP2 SWAP1 PUSH2 0xAF2 SWAP1 DUP5 SWAP1 PUSH2 0x10AC JUMP JUMPDEST SWAP1 SWAP2 SSTORE POP POP POP POP PUSH1 0x1 PUSH1 0x1 PUSH1 0xA0 SHL SUB AND PUSH0 SWAP1 DUP2 MSTORE PUSH1 0x2 PUSH1 0x20 MSTORE PUSH1 0x40 SWAP1 KECCAK256 PUSH1 0x1 ADD DUP1 SLOAD PUSH4 0xFFFFFFFF PUSH1 0x60 SHL NOT AND PUSH1 0x1 PUSH1 0x60 SHL TIMESTAMP PUSH4 0xFFFFFFFF AND MUL OR SWAP1 SSTORE JUMP JUMPDEST PUSH0 PUSH4 0x23B872DD PUSH1 0xE0 SHL SWAP1 POP PUSH0 PUSH1 0x40 MLOAD DUP3 DUP2 MSTORE DUP6 PUSH1 0x4 DUP3 ADD MSTORE DUP5 PUSH1 0x24 DUP3 ADD MSTORE DUP4 PUSH1 0x44 DUP3 ADD MSTORE PUSH1 0x20 PUSH0 PUSH1 0x64 DUP4 PUSH0 DUP12 GAS CALL SWAP2 POP POP DUP1 ISZERO PUSH2 0xB88 JUMPI RETURNDATASIZE DUP1 ISZERO PUSH2 0xB7F JUMPI PUSH1 0x1 PUSH0 MLOAD EQ PUSH1 0x1F RETURNDATASIZE GT AND SWAP2 POP PUSH2 0xB86 JUMP JUMPDEST PUSH0 DUP8 EXTCODESIZE GT SWAP2 POP JUMPDEST POP JUMPDEST DUP1 PUSH2 0xBA6 JUMPI PUSH1 0x40 MLOAD PUSH4 0xF4059071 PUSH1 0xE0 SHL DUP2 MSTORE PUSH1 0x4 ADD PUSH1 0x40 MLOAD DUP1 SWAP2 SUB SWAP1 REVERT JUMPDEST POP POP POP POP POP POP JUMP JUMPDEST PUSH2 0xBC1 DUP4 PUSH4 0x95EA7B3 PUSH1 0xE0 SHL DUP5 DUP5 PUSH2 0xD56 JUMP JUMPDEST PUSH2 0x71B JUMPI PUSH2 0xBD8 DUP4 PUSH4 0x95EA7B3 PUSH1 0xE0 SHL DUP5 PUSH0 PUSH2 0xD56 JUMP JUMPDEST ISZERO DUP1 PUSH2 0xBF4 JUMPI POP PUSH2 0xBF2 DUP4 PUSH4 0x95EA7B3 PUSH1 0xE0 SHL DUP5 DUP5 PUSH2 0xD56 JUMP JUMPDEST ISZERO JUMPDEST ISZERO PUSH2 0x71B JUMPI PUSH1 0x40 MLOAD PUSH4 0x19BE9A9 PUSH1 0xE4 SHL DUP2 MSTORE PUSH1 0x4 ADD PUSH1 0x40 MLOAD DUP1 SWAP2 SUB SWAP1 REVERT JUMPDEST PUSH0 PUSH3 0x2835C0 DUP3 PUSH2 0xC22 DUP6 TIMESTAMP PUSH2 0xFE0 JUMP JUMPDEST PUSH2 0xC2C SWAP2 SWAP1 PUSH2 0x10AC JUMP JUMPDEST PUSH2 0x8CD SWAP2 SWAP1 PUSH2 0x10BF JUMP JUMPDEST PUSH0 PUSH0 PUSH0 DUP4 MLOAD PUSH1 0x41 SUB PUSH2 0xC6D JUMPI PUSH1 0x20 DUP5 ADD MLOAD PUSH1 0x40 DUP6 ADD MLOAD PUSH1 0x60 DUP7 ADD MLOAD PUSH0 BYTE PUSH2 0xC5F DUP9 DUP3 DUP6 DUP6 PUSH2 0xDA4 JUMP JUMPDEST SWAP6 POP SWAP6 POP SWAP6 POP POP POP POP PUSH2 0xC78 JUMP JUMPDEST POP POP DUP2 MLOAD PUSH0 SWAP2 POP PUSH1 0x2 SWAP1 JUMPDEST SWAP3 POP SWAP3 POP SWAP3 JUMP JUMPDEST PUSH0 PUSH0 PUSH0 DUP6 PUSH1 0x1 PUSH1 0x1 PUSH1 0xA0 SHL SUB AND DUP6 DUP6 PUSH1 0x40 MLOAD PUSH1 0x24 ADD PUSH2 0xC9F SWAP3 SWAP2 SWAP1 PUSH2 0x10F2 JUMP JUMPDEST PUSH1 0x40 DUP1 MLOAD PUSH1 0x1F NOT DUP2 DUP5 SUB ADD DUP2 MSTORE SWAP2 DUP2 MSTORE PUSH1 0x20 DUP3 ADD DUP1 MLOAD PUSH1 0x1 PUSH1 0x1 PUSH1 0xE0 SHL SUB AND PUSH4 0xB135D3F PUSH1 0xE1 SHL OR SWAP1 MSTORE MLOAD PUSH2 0xCD4 SWAP2 SWAP1 PUSH2 0x112E JUMP JUMPDEST PUSH0 PUSH1 0x40 MLOAD DUP1 DUP4 SUB DUP2 DUP6 GAS STATICCALL SWAP2 POP POP RETURNDATASIZE DUP1 PUSH0 DUP2 EQ PUSH2 0xD0C JUMPI PUSH1 0x40 MLOAD SWAP2 POP PUSH1 0x1F NOT PUSH1 0x3F RETURNDATASIZE ADD AND DUP3 ADD PUSH1 0x40 MSTORE RETURNDATASIZE DUP3 MSTORE RETURNDATASIZE PUSH0 PUSH1 0x20 DUP5 ADD RETURNDATACOPY PUSH2 0xD11 JUMP JUMPDEST PUSH1 0x60 SWAP2 POP JUMPDEST POP SWAP2 POP SWAP2 POP DUP2 DUP1 ISZERO PUSH2 0xD25 JUMPI POP PUSH1 0x20 DUP2 MLOAD LT ISZERO JUMPDEST DUP1 ISZERO PUSH2 0xD4C JUMPI POP DUP1 MLOAD PUSH4 0xB135D3F PUSH1 0xE1 SHL SWAP1 PUSH2 0xD4A SWAP1 DUP4 ADD PUSH1 0x20 SWAP1 DUP2 ADD SWAP1 DUP5 ADD PUSH2 0xFF3 JUMP JUMPDEST EQ JUMPDEST SWAP7 SWAP6 POP POP POP POP POP POP JUMP JUMPDEST PUSH0 PUSH1 0x40 MLOAD DUP5 DUP2 MSTORE DUP4 PUSH1 0x4 DUP3 ADD MSTORE DUP3 PUSH1 0x24 DUP3 ADD MSTORE PUSH1 0x20 PUSH0 PUSH1 0x44 DUP4 PUSH0 DUP11 GAS CALL SWAP2 POP POP DUP1 ISZERO PUSH2 0xA4E JUMPI RETURNDATASIZE DUP1 ISZERO PUSH2 0xD94 JUMPI PUSH1 0x1 PUSH0 MLOAD EQ PUSH1 0x1F RETURNDATASIZE GT AND SWAP2 POP PUSH2 0xD9B JUMP JUMPDEST PUSH0 DUP7 EXTCODESIZE GT SWAP2 POP JUMPDEST POP SWAP5 SWAP4 POP POP POP POP JUMP JUMPDEST PUSH0 DUP1 DUP1 PUSH32 0x7FFFFFFFFFFFFFFFFFFFFFFFFFFFFFFF5D576E7357A4501DDFE92F46681B20A0 DUP5 GT ISZERO PUSH2 0xDDD JUMPI POP PUSH0 SWAP2 POP PUSH1 0x3 SWAP1 POP DUP3 PUSH2 0xE62 JUMP JUMPDEST PUSH1 0x40 DUP1 MLOAD PUSH0 DUP1 DUP3 MSTORE PUSH1 0x20 DUP3 ADD DUP1 DUP5 MSTORE DUP11 SWAP1 MSTORE PUSH1 0xFF DUP10 AND SWAP3 DUP3 ADD SWAP3 SWAP1 SWAP3 MSTORE PUSH1 0x60 DUP2 ADD DUP8 SWAP1 MSTORE PUSH1 0x80 DUP2 ADD DUP7 SWAP1 MSTORE PUSH1 0x1 SWAP1 PUSH1 0xA0 ADD PUSH1 0x20 PUSH1 0x40 MLOAD PUSH1 0x20 DUP2 SUB SWAP1 DUP1 DUP5 SUB SWAP1 DUP6 GAS STATICCALL ISZERO DUP1 ISZERO PUSH2 0xE2E JUMPI RETURNDATASIZE PUSH0 PUSH0 RETURNDATACOPY RETURNDATASIZE PUSH0 REVERT JUMPDEST POP POP PUSH1 0x40 MLOAD PUSH1 0x1F NOT ADD MLOAD SWAP2 POP POP PUSH1 0x1 PUSH1 0x1 PUSH1 0xA0 SHL SUB DUP2 AND PUSH2 0xE59 JUMPI POP PUSH0 SWAP3 POP PUSH1 0x1 SWAP2 POP DUP3 SWAP1 POP PUSH2 0xE62 JUMP JUMPDEST SWAP3 POP PUSH0 SWAP2 POP DUP2 SWAP1 POP JUMPDEST SWAP5 POP SWAP5 POP SWAP5 SWAP2 POP POP JUMP JUMPDEST PUSH4 0x4E487B71 PUSH1 0xE0 SHL PUSH0 MSTORE PUSH1 0x41 PUSH1 0x4 MSTORE PUSH1 0x24 PUSH0 REVERT JUMPDEST PUSH0 PUSH0 PUSH1 0x40 DUP4 DUP6 SUB SLT ISZERO PUSH2 0xE91 JUMPI PUSH0 PUSH0 REVERT JUMPDEST DUP3 CALLDATALOAD SWAP2 POP PUSH1 0x20 DUP4 ADD CALLDATALOAD PUSH8 0xFFFFFFFFFFFFFFFF DUP2 GT ISZERO PUSH2 0xEAE JUMPI PUSH0 PUSH0 REVERT JUMPDEST DUP4 ADD PUSH1 0x1F DUP2 ADD DUP6 SGT PUSH2 0xEBE JUMPI PUSH0 PUSH0 REVERT JUMPDEST DUP1 CALLDATALOAD PUSH8 0xFFFFFFFFFFFFFFFF DUP2 GT ISZERO PUSH2 0xED8 JUMPI PUSH2 0xED8 PUSH2 0xE6C JUMP JUMPDEST PUSH1 0x40 MLOAD PUSH1 0x1F DUP3 ADD PUSH1 0x1F NOT SWAP1 DUP2 AND PUSH1 0x3F ADD AND DUP2 ADD PUSH8 0xFFFFFFFFFFFFFFFF DUP2 GT DUP3 DUP3 LT OR ISZERO PUSH2 0xF07 JUMPI PUSH2 0xF07 PUSH2 0xE6C JUMP JUMPDEST PUSH1 0x40 MSTORE DUP2 DUP2 MSTORE DUP3 DUP3 ADD PUSH1 0x20 ADD DUP8 LT ISZERO PUSH2 0xF1E JUMPI PUSH0 PUSH0 REVERT JUMPDEST DUP2 PUSH1 0x20 DUP5 ADD PUSH1 0x20 DUP4 ADD CALLDATACOPY PUSH0 PUSH1 0x20 DUP4 DUP4 ADD ADD MSTORE DUP1 SWAP4 POP POP POP POP SWAP3 POP SWAP3 SWAP1 POP JUMP JUMPDEST PUSH0 PUSH1 0x20 DUP3 DUP5 SUB SLT ISZERO PUSH2 0xF4D JUMPI PUSH0 PUSH0 REVERT JUMPDEST POP CALLDATALOAD SWAP2 SWAP1 POP JUMP JUMPDEST DUP1 CALLDATALOAD PUSH1 0x1 PUSH1 0x1 PUSH1 0xA0 SHL SUB DUP2 AND DUP2 EQ PUSH2 0xF6A JUMPI PUSH0 PUSH0 REVERT JUMPDEST SWAP2 SWAP1 POP JUMP JUMPDEST PUSH0 PUSH0 PUSH0 PUSH1 0x60 DUP5 DUP7 SUB SLT ISZERO PUSH2 0xF81 JUMPI PUSH0 PUSH0 REVERT JUMPDEST PUSH2 0xF8A DUP5 PUSH2 0xF54 JUMP JUMPDEST SWAP3 POP PUSH1 0x20 DUP5 ADD CALLDATALOAD PUSH4 0xFFFFFFFF DUP2 AND DUP2 EQ PUSH2 0xFA2 JUMPI PUSH0 PUSH0 REVERT JUMPDEST SWAP3 SWAP6 SWAP3 SWAP5 POP POP POP PUSH1 0x40 SWAP2 SWAP1 SWAP2 ADD CALLDATALOAD SWAP1 JUMP JUMPDEST PUSH0 PUSH1 0x20 DUP3 DUP5 SUB SLT ISZERO PUSH2 0xFC3 JUMPI PUSH0 PUSH0 REVERT JUMPDEST PUSH2 0x8CD DUP3 PUSH2 0xF54 JUMP JUMPDEST PUSH4 0x4E487B71 PUSH1 0xE0 SHL PUSH0 MSTORE PUSH1 0x11 PUSH1 0x4 MSTORE PUSH1 0x24 PUSH0 REVERT JUMPDEST DUP2 DUP2 SUB DUP2 DUP2 GT ISZERO PUSH2 0x3D2 JUMPI PUSH2 0x3D2 PUSH2 0xFCC JUMP JUMPDEST PUSH0 PUSH1 0x20 DUP3 DUP5 SUB SLT ISZERO PUSH2 0x1003 JUMPI PUSH0 PUSH0 REVERT JUMPDEST POP MLOAD SWAP2 SWAP1 POP JUMP JUMPDEST DUP1 MLOAD PUSH10 0xFFFFFFFFFFFFFFFFFFFF DUP2 AND DUP2 EQ PUSH2 0xF6A JUMPI PUSH0 PUSH0 REVERT JUMPDEST PUSH0 PUSH0 PUSH0 PUSH0 PUSH0 PUSH1 0xA0 DUP7 DUP9 SUB SLT ISZERO PUSH2 0x1037 JUMPI PUSH0 PUSH0 REVERT JUMPDEST PUSH2 0x1040 DUP7 PUSH2 0x100A JUMP JUMPDEST PUSH1 0x20 DUP8 ADD MLOAD PUSH1 0x40 DUP9 ADD MLOAD PUSH1 0x60 DUP10 ADD MLOAD SWAP3 SWAP8 POP SWAP1 SWAP6 POP SWAP4 POP SWAP2 POP PUSH2 0x1065 PUSH1 0x80 DUP8 ADD PUSH2 0x100A JUMP JUMPDEST SWAP1 POP SWAP3 SWAP6 POP SWAP3 SWAP6 SWAP1 SWAP4 POP JUMP JUMPDEST PUSH0 PUSH4 0xFFFFFFFF DUP3 AND PUSH4 0xFFFFFFFF DUP2 SUB PUSH2 0x108C JUMPI PUSH2 0x108C PUSH2 0xFCC JUMP JUMPDEST PUSH1 0x1 ADD SWAP3 SWAP2 POP POP JUMP JUMPDEST DUP1 DUP3 MUL DUP2 ISZERO DUP3 DUP3 DIV DUP5 EQ OR PUSH2 0x3D2 JUMPI PUSH2 0x3D2 PUSH2 0xFCC JUMP JUMPDEST DUP1 DUP3 ADD DUP1 DUP3 GT ISZERO PUSH2 0x3D2 JUMPI PUSH2 0x3D2 PUSH2 0xFCC JUMP JUMPDEST PUSH0 DUP3 PUSH2 0x10D9 JUMPI PUSH4 0x4E487B71 PUSH1 0xE0 SHL PUSH0 MSTORE PUSH1 0x12 PUSH1 0x4 MSTORE PUSH1 0x24 PUSH0 REVERT JUMPDEST POP DIV SWAP1 JUMP JUMPDEST PUSH4 0x4E487B71 PUSH1 0xE0 SHL PUSH0 MSTORE PUSH1 0x21 PUSH1 0x4 MSTORE PUSH1 0x24 PUSH0 REVERT JUMPDEST DUP3 DUP2 MSTORE PUSH1 0x40 PUSH1 0x20 DUP3 ADD MSTORE PUSH0 DUP3 MLOAD DUP1 PUSH1 0x40 DUP5 ADD MSTORE DUP1 PUSH1 0x20 DUP6 ADD PUSH1 0x60 DUP6 ADD MCOPY PUSH0 PUSH1 0x60 DUP3 DUP6 ADD ADD MSTORE PUSH1 0x60 PUSH1 0x1F NOT PUSH1 0x1F DUP4 ADD AND DUP5 ADD ADD SWAP2 POP POP SWAP4 SWAP3 POP POP POP JUMP JUMPDEST PUSH0 DUP3 MLOAD DUP1 PUSH1 0x20 DUP6 ADD DUP5 MCOPY PUSH0 SWAP3 ADD SWAP2 DUP3 MSTORE POP SWAP2 SWAP1 POP JUMP INVALID LOG2 PUSH5 0x6970667358 0x22 SLT KECCAK256 PUSH19 0xCD61A7B12BBB15EB092A037CB9F8D88778459 0xE4 NOT BLOCKHASH 0xA9 PUSH13 0xAEA2EEE90EF6E564736F6C6343 STOP ADDMOD SHR STOP CALLER "
		},
		"gasEstimates": {
			"creation": {
				"codeDepositCost": "894800",
				"executionCost": "infinite",
				"totalCost": "infinite"
			},
			"external": {
				"CLAIM_PERIOD()": "271",
				"DECIMALS_SCALE()": "infinite",
				"LIMIT_ORDER_PROTOCOL()": "infinite",
				"PAPAYA()": "infinite",
				"TOKEN()": "infinite",
				"TOKEN_PAIR_PRICE_FEED()": "infinite",
				"WETH()": "infinite",
				"balanceOf(address)": "infinite",
				"claim(uint256)": "infinite",
				"isValidSignature(bytes32,bytes)": "infinite",
				"latestRoundData()": "infinite",
				"not_processed_balance()": "infinite",
				"owner()": "infinite",
				"streamCreated(address,uint32,uint256)": "51224",
				"streamRevoked(address,uint32,uint256)": "infinite",
				"users(address)": "4830",
				"withdraw(uint256)": "infinite"
			},
			"internal": {
				"_decodeRates(uint256)": "infinite",
				"_periodsPassed(uint256,uint256)": "infinite",
				"_sync(address,uint256)": "infinite"
			}
		},
		"methodIdentifiers": {
			"CLAIM_PERIOD()": "21241dfe",
			"DECIMALS_SCALE()": "193999a0",
			"LIMIT_ORDER_PROTOCOL()": "c1459384",
			"PAPAYA()": "68187eb8",
			"TOKEN()": "82bfefc8",
			"TOKEN_PAIR_PRICE_FEED()": "25b5b0de",
			"WETH()": "ad5c4648",
			"balanceOf(address)": "70a08231",
			"claim(uint256)": "379607f5",
			"isValidSignature(bytes32,bytes)": "1626ba7e",
			"latestRoundData()": "feaf968c",
			"not_processed_balance()": "fc70c11c",
			"owner()": "8da5cb5b",
			"streamCreated(address,uint32,uint256)": "ec70efdb",
			"streamRevoked(address,uint32,uint256)": "485ca67f",
			"users(address)": "a87430ba",
			"withdraw(uint256)": "2e1a7d4d"
		}
	},
	"abi": [
		{
			"inputs": [
				{
					"internalType": "contract IERC20",
					"name": "weth_",
					"type": "address"
				},
				{
					"internalType": "address",
					"name": "token_",
					"type": "address"
				},
				{
					"internalType": "address",
					"name": "TOKEN_PAIR_PRICE_FEED_",
					"type": "address"
				},
				{
					"internalType": "contract IPapayaSimplified",
					"name": "papaya_",
					"type": "address"
				},
				{
					"internalType": "address",
					"name": "limit_order_protocol_",
					"type": "address"
				}
			],
			"stateMutability": "nonpayable",
			"type": "constructor"
		},
		{
			"inputs": [],
			"name": "ForceApproveFailed",
			"type": "error"
		},
		{
			"inputs": [],
			"name": "SafeTransferFromFailed",
			"type": "error"
		},
		{
			"inputs": [],
			"name": "WrongAmount",
			"type": "error"
		},
		{
			"inputs": [],
			"name": "WrongMakingAmount",
			"type": "error"
		},
		{
			"anonymous": false,
			"inputs": [
				{
					"indexed": false,
					"internalType": "uint256",
					"name": "makingAmount",
					"type": "uint256"
				},
				{
					"indexed": false,
					"internalType": "uint256",
					"name": "takingAmount",
					"type": "uint256"
				},
				{
					"indexed": false,
					"internalType": "bytes32",
					"name": "orderHash",
					"type": "bytes32"
				}
			],
			"name": "Claimed",
			"type": "event"
		},
		{
			"inputs": [],
			"name": "CLAIM_PERIOD",
			"outputs": [
				{
					"internalType": "uint32",
					"name": "",
					"type": "uint32"
				}
			],
			"stateMutability": "view",
			"type": "function"
		},
		{
			"inputs": [],
			"name": "DECIMALS_SCALE",
			"outputs": [
				{
					"internalType": "uint256",
					"name": "",
					"type": "uint256"
				}
			],
			"stateMutability": "view",
			"type": "function"
		},
		{
			"inputs": [],
			"name": "LIMIT_ORDER_PROTOCOL",
			"outputs": [
				{
					"internalType": "address",
					"name": "",
					"type": "address"
				}
			],
			"stateMutability": "view",
			"type": "function"
		},
		{
			"inputs": [],
			"name": "PAPAYA",
			"outputs": [
				{
					"internalType": "contract IPapayaSimplified",
					"name": "",
					"type": "address"
				}
			],
			"stateMutability": "view",
			"type": "function"
		},
		{
			"inputs": [],
			"name": "TOKEN",
			"outputs": [
				{
					"internalType": "contract IERC20",
					"name": "",
					"type": "address"
				}
			],
			"stateMutability": "view",
			"type": "function"
		},
		{
			"inputs": [],
			"name": "TOKEN_PAIR_PRICE_FEED",
			"outputs": [
				{
					"internalType": "contract AggregatorV3Interface",
					"name": "",
					"type": "address"
				}
			],
			"stateMutability": "view",
			"type": "function"
		},
		{
			"inputs": [],
			"name": "WETH",
			"outputs": [
				{
					"internalType": "contract IERC20",
					"name": "",
					"type": "address"
				}
			],
			"stateMutability": "view",
			"type": "function"
		},
		{
			"inputs": [
				{
					"internalType": "address",
					"name": "account",
					"type": "address"
				}
			],
			"name": "balanceOf",
			"outputs": [
				{
					"internalType": "uint256",
					"name": "",
					"type": "uint256"
				}
			],
			"stateMutability": "view",
			"type": "function"
		},
		{
			"inputs": [
				{
					"internalType": "uint256",
					"name": "tokenAmount",
					"type": "uint256"
				}
			],
			"name": "claim",
			"outputs": [],
			"stateMutability": "nonpayable",
			"type": "function"
		},
		{
			"inputs": [
				{
					"internalType": "bytes32",
					"name": "hash",
					"type": "bytes32"
				},
				{
					"internalType": "bytes",
					"name": "signature",
					"type": "bytes"
				}
			],
			"name": "isValidSignature",
			"outputs": [
				{
					"internalType": "bytes4",
					"name": "",
					"type": "bytes4"
				}
			],
			"stateMutability": "view",
			"type": "function"
		},
		{
			"inputs": [],
			"name": "latestRoundData",
			"outputs": [
				{
					"internalType": "int256",
					"name": "tokenPrice",
					"type": "int256"
				}
			],
			"stateMutability": "view",
			"type": "function"
		},
		{
			"inputs": [],
			"name": "not_processed_balance",
			"outputs": [
				{
					"internalType": "uint256",
					"name": "",
					"type": "uint256"
				}
			],
			"stateMutability": "view",
			"type": "function"
		},
		{
			"inputs": [],
			"name": "owner",
			"outputs": [
				{
					"internalType": "address",
					"name": "",
					"type": "address"
				}
			],
			"stateMutability": "view",
			"type": "function"
		},
		{
			"inputs": [
				{
					"internalType": "address",
					"name": "from",
					"type": "address"
				},
				{
					"internalType": "uint32",
					"name": "streamStarts",
					"type": "uint32"
				},
				{
					"internalType": "uint256",
					"name": "encodedRates",
					"type": "uint256"
				}
			],
			"name": "streamCreated",
			"outputs": [],
			"stateMutability": "nonpayable",
			"type": "function"
		},
		{
			"inputs": [
				{
					"internalType": "address",
					"name": "from",
					"type": "address"
				},
				{
					"internalType": "uint32",
					"name": "streamDeadline",
					"type": "uint32"
				},
				{
					"internalType": "uint256",
					"name": "encodedRates",
					"type": "uint256"
				}
			],
			"name": "streamRevoked",
			"outputs": [],
			"stateMutability": "nonpayable",
			"type": "function"
		},
		{
			"inputs": [
				{
					"internalType": "address",
					"name": "account",
					"type": "address"
				}
			],
			"name": "users",
			"outputs": [
				{
					"internalType": "uint256",
					"name": "balance",
					"type": "uint256"
				},
				{
					"internalType": "uint96",
					"name": "rate",
					"type": "uint96"
				},
				{
					"internalType": "uint32",
					"name": "updated",
					"type": "uint32"
				}
			],
			"stateMutability": "view",
			"type": "function"
		},
		{
			"inputs": [
				{
					"internalType": "uint256",
					"name": "amount",
					"type": "uint256"
				}
			],
			"name": "withdraw",
			"outputs": [],
			"stateMutability": "nonpayable",
			"type": "function"
		}
	]
}