{
	"data": {
		"bytecode": {
			"linkReferences": {},
			"object": "610160604052348015610010575f5ffd5b5060405161167338038061167383398101604081905261002f91610156565b336001600160a01b03166080816001600160a01b03168152505060e0516001600160a01b03166382bfefc86040518163ffffffff1660e01b8152600401602060405180830381865afa158015610087573d5f5f3e3d5ffd5b505050506040513d601f19601f820116820180604052508101906100ab91906101b2565b6001600160a01b0390811660c05284811660a05282811660e081905282821661010052908416610120526040805162c9cccd60e51b8152905163193999a0916004808201926020929091908290030181865afa15801561010d573d5f5f3e3d5ffd5b505050506040513d601f19601f8201168201806040525081019061013191906101d4565b61014052506101eb92505050565b6001600160a01b0381168114610153575f5ffd5b50565b5f5f5f5f60808587031215610169575f5ffd5b84516101748161013f565b60208601519094506101858161013f565b60408601519093506101968161013f565b60608601519092506101a78161013f565b939692955090935050565b5f602082840312156101c2575f5ffd5b81516101cd8161013f565b9392505050565b5f602082840312156101e4575f5ffd5b5051919050565b60805160a05160c05160e0516101005161012051610140516113ea6102895f395f818161013501526105ec01525f8181610189015281816104c80152610a4701525f81816101f0015281816106f8015261072201525f818161022a015281816104520152818161066801526108b101525f818161026401526106d401525f8181610319015261041001525f818161028b015261035c01526113ea5ff3fe608060405234801561000f575f5ffd5b50600436106100fb575f3560e01c806368187eb811610093578063a87430ba11610063578063a87430ba146102ad578063ad5c464814610314578063ec70efdb1461033b578063feaf968c1461034e575f5ffd5b806368187eb81461022557806370a082311461024c57806382bfefc81461025f5780638da5cb5b14610286575f5ffd5b80632e1a7d4d116100ce5780632e1a7d4d146101c357806341b96771146101d8578063463e7e33146101eb578063485ca67f14610212575f5ffd5b80631626ba7e146100ff578063193999a01461013057806321241dfe1461016557806325b5b0de14610184575b5f5ffd5b61011261010d366004610f6d565b610356565b6040516001600160e01b031990911681526020015b60405180910390f35b6101577f000000000000000000000000000000000000000000000000000000000000000081565b604051908152602001610127565b61016f622835c081565b60405163ffffffff9091168152602001610127565b6101ab7f000000000000000000000000000000000000000000000000000000000000000081565b6040516001600160a01b039091168152602001610127565b6101d66101d136600461102a565b6103a6565b005b6101d66101e6366004611041565b61043b565b6101ab7f000000000000000000000000000000000000000000000000000000000000000081565b6101d66102203660046110f7565b61080a565b6101ab7f000000000000000000000000000000000000000000000000000000000000000081565b61015761025a36600461113b565b61088b565b6101ab7f000000000000000000000000000000000000000000000000000000000000000081565b6101ab7f000000000000000000000000000000000000000000000000000000000000000081565b6102eb6102bb36600461113b565b60026020525f9081526040902080546001909101546001600160601b03811690600160601b900463ffffffff1683565b604080519384526001600160601b03909216602084015263ffffffff1690820152606001610127565b6101ab7f000000000000000000000000000000000000000000000000000000000000000081565b6101d66103493660046110f7565b6109be565b610157610a44565b5f6103827f00000000000000000000000000000000000000000000000000000000000000008484610acf565b156103955750630b135d3f60e11b6103a0565b506001600160e01b03195b92915050565b6103b0335f610b40565b335f908152600260205260409020548111156103df576040516349986e7360e01b815260040160405180910390fd5b335f90815260026020526040812080548392906103fd908490611168565b9091555061043890506001600160a01b037f000000000000000000000000000000000000000000000000000000000000000016303384610c1d565b50565b6040516370a0823160e01b81523060048201525f907f00000000000000000000000000000000000000000000000000000000000000006001600160a01b0316906370a0823190602401602060405180830381865afa15801561049f573d5f5f3e3d5ffd5b505050506040513d601f19601f820116820180604052508101906104c3919061117b565b90505f7f00000000000000000000000000000000000000000000000000000000000000006001600160a01b031663feaf968c6040518163ffffffff1660e01b815260040160a060405180830381865afa158015610522573d5f5f3e3d5ffd5b505050506040513d601f19601f8201168201806040525081019061054691906111ab565b50505f805492945064010000000090920463ffffffff1692506004905061056c836111f9565b91906101000a81548163ffffffff021916908363ffffffff16021790555063ffffffff1660015f8282546105a0919061121d565b90915550505f5460015464010000000090910463ffffffff16906105c5908390611234565b6105cf919061125b565b60018190555f906105e0908461121d565b905060a08801356106117f00000000000000000000000000000000000000000000000000000000000000008561125b565b9350831461063257604051635845b37b60e01b815260040160405180910390fd5b808514610652576040516349986e7360e01b815260040160405180910390fd5b604051632e1a7d4d60e01b8152600481018490527f00000000000000000000000000000000000000000000000000000000000000006001600160a01b031690632e1a7d4d906024015f604051808303815f87803b1580156106b1575f5ffd5b505af11580156106c3573d5f5f3e3d5ffd5b5061071d9250506001600160a01b037f00000000000000000000000000000000000000000000000000000000000000001690507f000000000000000000000000000000000000000000000000000000000000000085610c9b565b5f5f5f7f00000000000000000000000000000000000000000000000000000000000000006001600160a01b031663cc713a048c8c8c8c8c6040518663ffffffff1660e01b8152600401610774959493929190611296565b6060604051808303815f875af1158015610790573d5f5f3e3d5ffd5b505050506040513d601f19601f820116820180604052508101906107b49190611310565b604080518481526020810184905290810182905292955090935091507f5ca98748aee67479889c029151254c5adddcde4e34b424bcb03b2ea4bc23a7e39060600160405180910390a15050505050505050505050565b6001600160a01b0383165f9081526002602052604081206001015461083c90600160601b900463ffffffff1682610cff565b5f805491925090429063ffffffff16622835c061085a856001611234565b610864919061121d565b61086e9190611234565b6108789190611168565b90506108848582610b40565b5050505050565b5f306001600160a01b03831603610922576040516370a0823160e01b81523060048201527f00000000000000000000000000000000000000000000000000000000000000006001600160a01b0316906370a0823190602401602060405180830381865afa1580156108fe573d5f5f3e3d5ffd5b505050506040513d601f19601f820116820180604052508101906103a0919061117b565b6001600160a01b0382165f9081526002602052604081206001015461095490600160601b900463ffffffff1682610cff565b600180546001600160a01b0386165f908152600260205260409020909101549192509061098b9083906001600160601b031661121d565b610995919061121d565b6001600160a01b0384165f908152600260205260409020546109b79190611234565b9392505050565b5f8054829160e083901c9163ffffffff1690036109ea575f805463ffffffff191663ffffffff83161790555b6001600160a01b039094165f908152600260205260409020600101805463ffffffff909516600160601b026fffffffffffffffffffffffffffffffff199095166001600160601b0390921691909117939093179092555050565b5f7f00000000000000000000000000000000000000000000000000000000000000006001600160a01b031663feaf968c6040518163ffffffff1660e01b815260040160a060405180830381865afa158015610aa1573d5f5f3e3d5ffd5b505050506040513d601f19601f82011682018060405250810190610ac591906111ab565b5091949350505050565b5f836001600160a01b03163b5f03610b2d575f5f610aed8585610d23565b5090925090505f816003811115610b0657610b0661133b565b148015610b245750856001600160a01b0316826001600160a01b0316145b925050506109b7565b610b38848484610d6c565b949350505050565b6001600160a01b0382165f90815260026020526040812060010154610b7290600160601b900463ffffffff1683610cff565b6001600160a01b0384165f90815260026020526040902060010154610ba091906001600160601b031661121d565b90508015610c1857600154610bb5908261121d565b6001600160a01b0384165f9081526002602052604081208054909190610bdc908490611234565b90915550506001600160a01b0383165f908152600260205260409020600101805463ffffffff60601b1916600160601b4263ffffffff16021790555b505050565b5f6323b872dd60e01b90505f60405182815285600482015284602482015283604482015260205f6064835f8b5af19150508015610c75573d8015610c6c5760015f5114601f3d11169150610c73565b5f873b1191505b505b80610c935760405163f405907160e01b815260040160405180910390fd5b505050505050565b610cae8363095ea7b360e01b8484610e43565b610c1857610cc58363095ea7b360e01b845f610e43565b1580610ce15750610cdf8363095ea7b360e01b8484610e43565b155b15610c185760405163019be9a960e41b815260040160405180910390fd5b5f622835c082610d0f8542611168565b610d199190611234565b6109b7919061134f565b5f5f5f8351604103610d5a576020840151604085015160608601515f1a610d4c88828585610e91565b955095509550505050610d65565b505081515f91506002905b9250925092565b5f5f5f856001600160a01b03168585604051602401610d8c929190611362565b60408051601f198184030181529181526020820180516001600160e01b0316630b135d3f60e11b17905251610dc1919061139e565b5f60405180830381855afa9150503d805f8114610df9576040519150601f19603f3d011682016040523d82523d5f602084013e610dfe565b606091505b5091509150818015610e1257506020815110155b8015610e3957508051630b135d3f60e11b90610e37908301602090810190840161117b565b145b9695505050505050565b5f60405184815283600482015282602482015260205f6044835f8a5af19150508015610b38573d8015610e815760015f5114601f3d11169150610e88565b5f863b1191505b50949350505050565b5f80807f7fffffffffffffffffffffffffffffff5d576e7357a4501ddfe92f46681b20a0841115610eca57505f91506003905082610f4f565b604080515f808252602082018084528a905260ff891692820192909252606081018790526080810186905260019060a0016020604051602081039080840390855afa158015610f1b573d5f5f3e3d5ffd5b5050604051601f1901519150506001600160a01b038116610f4657505f925060019150829050610f4f565b92505f91508190505b9450945094915050565b634e487b7160e01b5f52604160045260245ffd5b5f5f60408385031215610f7e575f5ffd5b82359150602083013567ffffffffffffffff811115610f9b575f5ffd5b8301601f81018513610fab575f5ffd5b803567ffffffffffffffff811115610fc557610fc5610f59565b604051601f8201601f19908116603f0116810167ffffffffffffffff81118282101715610ff457610ff4610f59565b60405281815282820160200187101561100b575f5ffd5b816020840160208301375f602083830101528093505050509250929050565b5f6020828403121561103a575f5ffd5b5035919050565b5f5f5f5f5f858703610160811215611057575f5ffd5b610100811215611065575f5ffd5b5085945061010086013567ffffffffffffffff811115611083575f5ffd5b8601601f81018813611093575f5ffd5b803567ffffffffffffffff8111156110a9575f5ffd5b8860208284010111156110ba575f5ffd5b9598602091909101975094956101208101359561014090910135945092505050565b80356001600160a01b03811681146110f2575f5ffd5b919050565b5f5f5f60608486031215611109575f5ffd5b611112846110dc565b9250602084013563ffffffff8116811461112a575f5ffd5b929592945050506040919091013590565b5f6020828403121561114b575f5ffd5b6109b7826110dc565b634e487b7160e01b5f52601160045260245ffd5b818103818111156103a0576103a0611154565b5f6020828403121561118b575f5ffd5b5051919050565b805169ffffffffffffffffffff811681146110f2575f5ffd5b5f5f5f5f5f60a086880312156111bf575f5ffd5b6111c886611192565b602087015160408801516060890151929750909550935091506111ed60808701611192565b90509295509295909350565b5f63ffffffff821663ffffffff810361121457611214611154565b60010192915050565b80820281158282048414176103a0576103a0611154565b808201808211156103a0576103a0611154565b634e487b7160e01b5f52601260045260245ffd5b5f8261126957611269611247565b500490565b81835281816020850137505f828201602090810191909152601f909101601f19169091010190565b853581526020808701359082015260408087013590820152606080870135908201526080808701359082015260a0808701359082015260c0808701359082015260e0808701359082015261016061010082018190525f906112fa908301868861126e565b6101208301949094525061014001529392505050565b5f5f5f60608486031215611322575f5ffd5b5050815160208301516040909301519094929350919050565b634e487b7160e01b5f52602160045260245ffd5b5f8261135d5761135d611247565b500690565b828152604060208201525f82518060408401528060208501606085015e5f606082850101526060601f19601f8301168401019150509392505050565b5f82518060208501845e5f92019182525091905056fea2646970667358221220d7e83adb60c0caa2773d05b5ce954f181fe27725790a6f73680314d3e651c46064736f6c634300081c0033",
			"opcodes": "PUSH2 0x160 PUSH1 0x40 MSTORE CALLVALUE DUP1 ISZERO PUSH2 0x10 JUMPI PUSH0 PUSH0 REVERT JUMPDEST POP PUSH1 0x40 MLOAD PUSH2 0x1673 CODESIZE SUB DUP1 PUSH2 0x1673 DUP4 CODECOPY DUP2 ADD PUSH1 0x40 DUP2 SWAP1 MSTORE PUSH2 0x2F SWAP2 PUSH2 0x156 JUMP JUMPDEST CALLER PUSH1 0x1 PUSH1 0x1 PUSH1 0xA0 SHL SUB AND PUSH1 0x80 DUP2 PUSH1 0x1 PUSH1 0x1 PUSH1 0xA0 SHL SUB AND DUP2 MSTORE POP POP PUSH1 0xE0 MLOAD PUSH1 0x1 PUSH1 0x1 PUSH1 0xA0 SHL SUB AND PUSH4 0x82BFEFC8 PUSH1 0x40 MLOAD DUP2 PUSH4 0xFFFFFFFF AND PUSH1 0xE0 SHL DUP2 MSTORE PUSH1 0x4 ADD PUSH1 0x20 PUSH1 0x40 MLOAD DUP1 DUP4 SUB DUP2 DUP7 GAS STATICCALL ISZERO DUP1 ISZERO PUSH2 0x87 JUMPI RETURNDATASIZE PUSH0 PUSH0 RETURNDATACOPY RETURNDATASIZE PUSH0 REVERT JUMPDEST POP POP POP POP PUSH1 0x40 MLOAD RETURNDATASIZE PUSH1 0x1F NOT PUSH1 0x1F DUP3 ADD AND DUP3 ADD DUP1 PUSH1 0x40 MSTORE POP DUP2 ADD SWAP1 PUSH2 0xAB SWAP2 SWAP1 PUSH2 0x1B2 JUMP JUMPDEST PUSH1 0x1 PUSH1 0x1 PUSH1 0xA0 SHL SUB SWAP1 DUP2 AND PUSH1 0xC0 MSTORE DUP5 DUP2 AND PUSH1 0xA0 MSTORE DUP3 DUP2 AND PUSH1 0xE0 DUP2 SWAP1 MSTORE DUP3 DUP3 AND PUSH2 0x100 MSTORE SWAP1 DUP5 AND PUSH2 0x120 MSTORE PUSH1 0x40 DUP1 MLOAD PUSH3 0xC9CCCD PUSH1 0xE5 SHL DUP2 MSTORE SWAP1 MLOAD PUSH4 0x193999A0 SWAP2 PUSH1 0x4 DUP1 DUP3 ADD SWAP3 PUSH1 0x20 SWAP3 SWAP1 SWAP2 SWAP1 DUP3 SWAP1 SUB ADD DUP2 DUP7 GAS STATICCALL ISZERO DUP1 ISZERO PUSH2 0x10D JUMPI RETURNDATASIZE PUSH0 PUSH0 RETURNDATACOPY RETURNDATASIZE PUSH0 REVERT JUMPDEST POP POP POP POP PUSH1 0x40 MLOAD RETURNDATASIZE PUSH1 0x1F NOT PUSH1 0x1F DUP3 ADD AND DUP3 ADD DUP1 PUSH1 0x40 MSTORE POP DUP2 ADD SWAP1 PUSH2 0x131 SWAP2 SWAP1 PUSH2 0x1D4 JUMP JUMPDEST PUSH2 0x140 MSTORE POP PUSH2 0x1EB SWAP3 POP POP POP JUMP JUMPDEST PUSH1 0x1 PUSH1 0x1 PUSH1 0xA0 SHL SUB DUP2 AND DUP2 EQ PUSH2 0x153 JUMPI PUSH0 PUSH0 REVERT JUMPDEST POP JUMP JUMPDEST PUSH0 PUSH0 PUSH0 PUSH0 PUSH1 0x80 DUP6 DUP8 SUB SLT ISZERO PUSH2 0x169 JUMPI PUSH0 PUSH0 REVERT JUMPDEST DUP5 MLOAD PUSH2 0x174 DUP2 PUSH2 0x13F JUMP JUMPDEST PUSH1 0x20 DUP7 ADD MLOAD SWAP1 SWAP5 POP PUSH2 0x185 DUP2 PUSH2 0x13F JUMP JUMPDEST PUSH1 0x40 DUP7 ADD MLOAD SWAP1 SWAP4 POP PUSH2 0x196 DUP2 PUSH2 0x13F JUMP JUMPDEST PUSH1 0x60 DUP7 ADD MLOAD SWAP1 SWAP3 POP PUSH2 0x1A7 DUP2 PUSH2 0x13F JUMP JUMPDEST SWAP4 SWAP7 SWAP3 SWAP6 POP SWAP1 SWAP4 POP POP JUMP JUMPDEST PUSH0 PUSH1 0x20 DUP3 DUP5 SUB SLT ISZERO PUSH2 0x1C2 JUMPI PUSH0 PUSH0 REVERT JUMPDEST DUP2 MLOAD PUSH2 0x1CD DUP2 PUSH2 0x13F JUMP JUMPDEST SWAP4 SWAP3 POP POP POP JUMP JUMPDEST PUSH0 PUSH1 0x20 DUP3 DUP5 SUB SLT ISZERO PUSH2 0x1E4 JUMPI PUSH0 PUSH0 REVERT JUMPDEST POP MLOAD SWAP2 SWAP1 POP JUMP JUMPDEST PUSH1 0x80 MLOAD PUSH1 0xA0 MLOAD PUSH1 0xC0 MLOAD PUSH1 0xE0 MLOAD PUSH2 0x100 MLOAD PUSH2 0x120 MLOAD PUSH2 0x140 MLOAD PUSH2 0x13EA PUSH2 0x289 PUSH0 CODECOPY PUSH0 DUP2 DUP2 PUSH2 0x135 ADD MSTORE PUSH2 0x5EC ADD MSTORE PUSH0 DUP2 DUP2 PUSH2 0x189 ADD MSTORE DUP2 DUP2 PUSH2 0x4C8 ADD MSTORE PUSH2 0xA47 ADD MSTORE PUSH0 DUP2 DUP2 PUSH2 0x1F0 ADD MSTORE DUP2 DUP2 PUSH2 0x6F8 ADD MSTORE PUSH2 0x722 ADD MSTORE PUSH0 DUP2 DUP2 PUSH2 0x22A ADD MSTORE DUP2 DUP2 PUSH2 0x452 ADD MSTORE DUP2 DUP2 PUSH2 0x668 ADD MSTORE PUSH2 0x8B1 ADD MSTORE PUSH0 DUP2 DUP2 PUSH2 0x264 ADD MSTORE PUSH2 0x6D4 ADD MSTORE PUSH0 DUP2 DUP2 PUSH2 0x319 ADD MSTORE PUSH2 0x410 ADD MSTORE PUSH0 DUP2 DUP2 PUSH2 0x28B ADD MSTORE PUSH2 0x35C ADD MSTORE PUSH2 0x13EA PUSH0 RETURN INVALID PUSH1 0x80 PUSH1 0x40 MSTORE CALLVALUE DUP1 ISZERO PUSH2 0xF JUMPI PUSH0 PUSH0 REVERT JUMPDEST POP PUSH1 0x4 CALLDATASIZE LT PUSH2 0xFB JUMPI PUSH0 CALLDATALOAD PUSH1 0xE0 SHR DUP1 PUSH4 0x68187EB8 GT PUSH2 0x93 JUMPI DUP1 PUSH4 0xA87430BA GT PUSH2 0x63 JUMPI DUP1 PUSH4 0xA87430BA EQ PUSH2 0x2AD JUMPI DUP1 PUSH4 0xAD5C4648 EQ PUSH2 0x314 JUMPI DUP1 PUSH4 0xEC70EFDB EQ PUSH2 0x33B JUMPI DUP1 PUSH4 0xFEAF968C EQ PUSH2 0x34E JUMPI PUSH0 PUSH0 REVERT JUMPDEST DUP1 PUSH4 0x68187EB8 EQ PUSH2 0x225 JUMPI DUP1 PUSH4 0x70A08231 EQ PUSH2 0x24C JUMPI DUP1 PUSH4 0x82BFEFC8 EQ PUSH2 0x25F JUMPI DUP1 PUSH4 0x8DA5CB5B EQ PUSH2 0x286 JUMPI PUSH0 PUSH0 REVERT JUMPDEST DUP1 PUSH4 0x2E1A7D4D GT PUSH2 0xCE JUMPI DUP1 PUSH4 0x2E1A7D4D EQ PUSH2 0x1C3 JUMPI DUP1 PUSH4 0x41B96771 EQ PUSH2 0x1D8 JUMPI DUP1 PUSH4 0x463E7E33 EQ PUSH2 0x1EB JUMPI DUP1 PUSH4 0x485CA67F EQ PUSH2 0x212 JUMPI PUSH0 PUSH0 REVERT JUMPDEST DUP1 PUSH4 0x1626BA7E EQ PUSH2 0xFF JUMPI DUP1 PUSH4 0x193999A0 EQ PUSH2 0x130 JUMPI DUP1 PUSH4 0x21241DFE EQ PUSH2 0x165 JUMPI DUP1 PUSH4 0x25B5B0DE EQ PUSH2 0x184 JUMPI JUMPDEST PUSH0 PUSH0 REVERT JUMPDEST PUSH2 0x112 PUSH2 0x10D CALLDATASIZE PUSH1 0x4 PUSH2 0xF6D JUMP JUMPDEST PUSH2 0x356 JUMP JUMPDEST PUSH1 0x40 MLOAD PUSH1 0x1 PUSH1 0x1 PUSH1 0xE0 SHL SUB NOT SWAP1 SWAP2 AND DUP2 MSTORE PUSH1 0x20 ADD JUMPDEST PUSH1 0x40 MLOAD DUP1 SWAP2 SUB SWAP1 RETURN JUMPDEST PUSH2 0x157 PUSH32 0x0 DUP2 JUMP JUMPDEST PUSH1 0x40 MLOAD SWAP1 DUP2 MSTORE PUSH1 0x20 ADD PUSH2 0x127 JUMP JUMPDEST PUSH2 0x16F PUSH3 0x2835C0 DUP2 JUMP JUMPDEST PUSH1 0x40 MLOAD PUSH4 0xFFFFFFFF SWAP1 SWAP2 AND DUP2 MSTORE PUSH1 0x20 ADD PUSH2 0x127 JUMP JUMPDEST PUSH2 0x1AB PUSH32 0x0 DUP2 JUMP JUMPDEST PUSH1 0x40 MLOAD PUSH1 0x1 PUSH1 0x1 PUSH1 0xA0 SHL SUB SWAP1 SWAP2 AND DUP2 MSTORE PUSH1 0x20 ADD PUSH2 0x127 JUMP JUMPDEST PUSH2 0x1D6 PUSH2 0x1D1 CALLDATASIZE PUSH1 0x4 PUSH2 0x102A JUMP JUMPDEST PUSH2 0x3A6 JUMP JUMPDEST STOP JUMPDEST PUSH2 0x1D6 PUSH2 0x1E6 CALLDATASIZE PUSH1 0x4 PUSH2 0x1041 JUMP JUMPDEST PUSH2 0x43B JUMP JUMPDEST PUSH2 0x1AB PUSH32 0x0 DUP2 JUMP JUMPDEST PUSH2 0x1D6 PUSH2 0x220 CALLDATASIZE PUSH1 0x4 PUSH2 0x10F7 JUMP JUMPDEST PUSH2 0x80A JUMP JUMPDEST PUSH2 0x1AB PUSH32 0x0 DUP2 JUMP JUMPDEST PUSH2 0x157 PUSH2 0x25A CALLDATASIZE PUSH1 0x4 PUSH2 0x113B JUMP JUMPDEST PUSH2 0x88B JUMP JUMPDEST PUSH2 0x1AB PUSH32 0x0 DUP2 JUMP JUMPDEST PUSH2 0x1AB PUSH32 0x0 DUP2 JUMP JUMPDEST PUSH2 0x2EB PUSH2 0x2BB CALLDATASIZE PUSH1 0x4 PUSH2 0x113B JUMP JUMPDEST PUSH1 0x2 PUSH1 0x20 MSTORE PUSH0 SWAP1 DUP2 MSTORE PUSH1 0x40 SWAP1 KECCAK256 DUP1 SLOAD PUSH1 0x1 SWAP1 SWAP2 ADD SLOAD PUSH1 0x1 PUSH1 0x1 PUSH1 0x60 SHL SUB DUP2 AND SWAP1 PUSH1 0x1 PUSH1 0x60 SHL SWAP1 DIV PUSH4 0xFFFFFFFF AND DUP4 JUMP JUMPDEST PUSH1 0x40 DUP1 MLOAD SWAP4 DUP5 MSTORE PUSH1 0x1 PUSH1 0x1 PUSH1 0x60 SHL SUB SWAP1 SWAP3 AND PUSH1 0x20 DUP5 ADD MSTORE PUSH4 0xFFFFFFFF AND SWAP1 DUP3 ADD MSTORE PUSH1 0x60 ADD PUSH2 0x127 JUMP JUMPDEST PUSH2 0x1AB PUSH32 0x0 DUP2 JUMP JUMPDEST PUSH2 0x1D6 PUSH2 0x349 CALLDATASIZE PUSH1 0x4 PUSH2 0x10F7 JUMP JUMPDEST PUSH2 0x9BE JUMP JUMPDEST PUSH2 0x157 PUSH2 0xA44 JUMP JUMPDEST PUSH0 PUSH2 0x382 PUSH32 0x0 DUP5 DUP5 PUSH2 0xACF JUMP JUMPDEST ISZERO PUSH2 0x395 JUMPI POP PUSH4 0xB135D3F PUSH1 0xE1 SHL PUSH2 0x3A0 JUMP JUMPDEST POP PUSH1 0x1 PUSH1 0x1 PUSH1 0xE0 SHL SUB NOT JUMPDEST SWAP3 SWAP2 POP POP JUMP JUMPDEST PUSH2 0x3B0 CALLER PUSH0 PUSH2 0xB40 JUMP JUMPDEST CALLER PUSH0 SWAP1 DUP2 MSTORE PUSH1 0x2 PUSH1 0x20 MSTORE PUSH1 0x40 SWAP1 KECCAK256 SLOAD DUP2 GT ISZERO PUSH2 0x3DF JUMPI PUSH1 0x40 MLOAD PUSH4 0x49986E73 PUSH1 0xE0 SHL DUP2 MSTORE PUSH1 0x4 ADD PUSH1 0x40 MLOAD DUP1 SWAP2 SUB SWAP1 REVERT JUMPDEST CALLER PUSH0 SWAP1 DUP2 MSTORE PUSH1 0x2 PUSH1 0x20 MSTORE PUSH1 0x40 DUP2 KECCAK256 DUP1 SLOAD DUP4 SWAP3 SWAP1 PUSH2 0x3FD SWAP1 DUP5 SWAP1 PUSH2 0x1168 JUMP JUMPDEST SWAP1 SWAP2 SSTORE POP PUSH2 0x438 SWAP1 POP PUSH1 0x1 PUSH1 0x1 PUSH1 0xA0 SHL SUB PUSH32 0x0 AND ADDRESS CALLER DUP5 PUSH2 0xC1D JUMP JUMPDEST POP JUMP JUMPDEST PUSH1 0x40 MLOAD PUSH4 0x70A08231 PUSH1 0xE0 SHL DUP2 MSTORE ADDRESS PUSH1 0x4 DUP3 ADD MSTORE PUSH0 SWAP1 PUSH32 0x0 PUSH1 0x1 PUSH1 0x1 PUSH1 0xA0 SHL SUB AND SWAP1 PUSH4 0x70A08231 SWAP1 PUSH1 0x24 ADD PUSH1 0x20 PUSH1 0x40 MLOAD DUP1 DUP4 SUB DUP2 DUP7 GAS STATICCALL ISZERO DUP1 ISZERO PUSH2 0x49F JUMPI RETURNDATASIZE PUSH0 PUSH0 RETURNDATACOPY RETURNDATASIZE PUSH0 REVERT JUMPDEST POP POP POP POP PUSH1 0x40 MLOAD RETURNDATASIZE PUSH1 0x1F NOT PUSH1 0x1F DUP3 ADD AND DUP3 ADD DUP1 PUSH1 0x40 MSTORE POP DUP2 ADD SWAP1 PUSH2 0x4C3 SWAP2 SWAP1 PUSH2 0x117B JUMP JUMPDEST SWAP1 POP PUSH0 PUSH32 0x0 PUSH1 0x1 PUSH1 0x1 PUSH1 0xA0 SHL SUB AND PUSH4 0xFEAF968C PUSH1 0x40 MLOAD DUP2 PUSH4 0xFFFFFFFF AND PUSH1 0xE0 SHL DUP2 MSTORE PUSH1 0x4 ADD PUSH1 0xA0 PUSH1 0x40 MLOAD DUP1 DUP4 SUB DUP2 DUP7 GAS STATICCALL ISZERO DUP1 ISZERO PUSH2 0x522 JUMPI RETURNDATASIZE PUSH0 PUSH0 RETURNDATACOPY RETURNDATASIZE PUSH0 REVERT JUMPDEST POP POP POP POP PUSH1 0x40 MLOAD RETURNDATASIZE PUSH1 0x1F NOT PUSH1 0x1F DUP3 ADD AND DUP3 ADD DUP1 PUSH1 0x40 MSTORE POP DUP2 ADD SWAP1 PUSH2 0x546 SWAP2 SWAP1 PUSH2 0x11AB JUMP JUMPDEST POP POP PUSH0 DUP1 SLOAD SWAP3 SWAP5 POP PUSH5 0x100000000 SWAP1 SWAP3 DIV PUSH4 0xFFFFFFFF AND SWAP3 POP PUSH1 0x4 SWAP1 POP PUSH2 0x56C DUP4 PUSH2 0x11F9 JUMP JUMPDEST SWAP2 SWAP1 PUSH2 0x100 EXP DUP2 SLOAD DUP2 PUSH4 0xFFFFFFFF MUL NOT AND SWAP1 DUP4 PUSH4 0xFFFFFFFF AND MUL OR SWAP1 SSTORE POP PUSH4 0xFFFFFFFF AND PUSH1 0x1 PUSH0 DUP3 DUP3 SLOAD PUSH2 0x5A0 SWAP2 SWAP1 PUSH2 0x121D JUMP JUMPDEST SWAP1 SWAP2 SSTORE POP POP PUSH0 SLOAD PUSH1 0x1 SLOAD PUSH5 0x100000000 SWAP1 SWAP2 DIV PUSH4 0xFFFFFFFF AND SWAP1 PUSH2 0x5C5 SWAP1 DUP4 SWAP1 PUSH2 0x1234 JUMP JUMPDEST PUSH2 0x5CF SWAP2 SWAP1 PUSH2 0x125B JUMP JUMPDEST PUSH1 0x1 DUP2 SWAP1 SSTORE PUSH0 SWAP1 PUSH2 0x5E0 SWAP1 DUP5 PUSH2 0x121D JUMP JUMPDEST SWAP1 POP PUSH1 0xA0 DUP9 ADD CALLDATALOAD PUSH2 0x611 PUSH32 0x0 DUP6 PUSH2 0x125B JUMP JUMPDEST SWAP4 POP DUP4 EQ PUSH2 0x632 JUMPI PUSH1 0x40 MLOAD PUSH4 0x5845B37B PUSH1 0xE0 SHL DUP2 MSTORE PUSH1 0x4 ADD PUSH1 0x40 MLOAD DUP1 SWAP2 SUB SWAP1 REVERT JUMPDEST DUP1 DUP6 EQ PUSH2 0x652 JUMPI PUSH1 0x40 MLOAD PUSH4 0x49986E73 PUSH1 0xE0 SHL DUP2 MSTORE PUSH1 0x4 ADD PUSH1 0x40 MLOAD DUP1 SWAP2 SUB SWAP1 REVERT JUMPDEST PUSH1 0x40 MLOAD PUSH4 0x2E1A7D4D PUSH1 0xE0 SHL DUP2 MSTORE PUSH1 0x4 DUP2 ADD DUP5 SWAP1 MSTORE PUSH32 0x0 PUSH1 0x1 PUSH1 0x1 PUSH1 0xA0 SHL SUB AND SWAP1 PUSH4 0x2E1A7D4D SWAP1 PUSH1 0x24 ADD PUSH0 PUSH1 0x40 MLOAD DUP1 DUP4 SUB DUP2 PUSH0 DUP8 DUP1 EXTCODESIZE ISZERO DUP1 ISZERO PUSH2 0x6B1 JUMPI PUSH0 PUSH0 REVERT JUMPDEST POP GAS CALL ISZERO DUP1 ISZERO PUSH2 0x6C3 JUMPI RETURNDATASIZE PUSH0 PUSH0 RETURNDATACOPY RETURNDATASIZE PUSH0 REVERT JUMPDEST POP PUSH2 0x71D SWAP3 POP POP PUSH1 0x1 PUSH1 0x1 PUSH1 0xA0 SHL SUB PUSH32 0x0 AND SWAP1 POP PUSH32 0x0 DUP6 PUSH2 0xC9B JUMP JUMPDEST PUSH0 PUSH0 PUSH0 PUSH32 0x0 PUSH1 0x1 PUSH1 0x1 PUSH1 0xA0 SHL SUB AND PUSH4 0xCC713A04 DUP13 DUP13 DUP13 DUP13 DUP13 PUSH1 0x40 MLOAD DUP7 PUSH4 0xFFFFFFFF AND PUSH1 0xE0 SHL DUP2 MSTORE PUSH1 0x4 ADD PUSH2 0x774 SWAP6 SWAP5 SWAP4 SWAP3 SWAP2 SWAP1 PUSH2 0x1296 JUMP JUMPDEST PUSH1 0x60 PUSH1 0x40 MLOAD DUP1 DUP4 SUB DUP2 PUSH0 DUP8 GAS CALL ISZERO DUP1 ISZERO PUSH2 0x790 JUMPI RETURNDATASIZE PUSH0 PUSH0 RETURNDATACOPY RETURNDATASIZE PUSH0 REVERT JUMPDEST POP POP POP POP PUSH1 0x40 MLOAD RETURNDATASIZE PUSH1 0x1F NOT PUSH1 0x1F DUP3 ADD AND DUP3 ADD DUP1 PUSH1 0x40 MSTORE POP DUP2 ADD SWAP1 PUSH2 0x7B4 SWAP2 SWAP1 PUSH2 0x1310 JUMP JUMPDEST PUSH1 0x40 DUP1 MLOAD DUP5 DUP2 MSTORE PUSH1 0x20 DUP2 ADD DUP5 SWAP1 MSTORE SWAP1 DUP2 ADD DUP3 SWAP1 MSTORE SWAP3 SWAP6 POP SWAP1 SWAP4 POP SWAP2 POP PUSH32 0x5CA98748AEE67479889C029151254C5ADDDCDE4E34B424BCB03B2EA4BC23A7E3 SWAP1 PUSH1 0x60 ADD PUSH1 0x40 MLOAD DUP1 SWAP2 SUB SWAP1 LOG1 POP POP POP POP POP POP POP POP POP POP POP JUMP JUMPDEST PUSH1 0x1 PUSH1 0x1 PUSH1 0xA0 SHL SUB DUP4 AND PUSH0 SWAP1 DUP2 MSTORE PUSH1 0x2 PUSH1 0x20 MSTORE PUSH1 0x40 DUP2 KECCAK256 PUSH1 0x1 ADD SLOAD PUSH2 0x83C SWAP1 PUSH1 0x1 PUSH1 0x60 SHL SWAP1 DIV PUSH4 0xFFFFFFFF AND DUP3 PUSH2 0xCFF JUMP JUMPDEST PUSH0 DUP1 SLOAD SWAP2 SWAP3 POP SWAP1 TIMESTAMP SWAP1 PUSH4 0xFFFFFFFF AND PUSH3 0x2835C0 PUSH2 0x85A DUP6 PUSH1 0x1 PUSH2 0x1234 JUMP JUMPDEST PUSH2 0x864 SWAP2 SWAP1 PUSH2 0x121D JUMP JUMPDEST PUSH2 0x86E SWAP2 SWAP1 PUSH2 0x1234 JUMP JUMPDEST PUSH2 0x878 SWAP2 SWAP1 PUSH2 0x1168 JUMP JUMPDEST SWAP1 POP PUSH2 0x884 DUP6 DUP3 PUSH2 0xB40 JUMP JUMPDEST POP POP POP POP POP JUMP JUMPDEST PUSH0 ADDRESS PUSH1 0x1 PUSH1 0x1 PUSH1 0xA0 SHL SUB DUP4 AND SUB PUSH2 0x922 JUMPI PUSH1 0x40 MLOAD PUSH4 0x70A08231 PUSH1 0xE0 SHL DUP2 MSTORE ADDRESS PUSH1 0x4 DUP3 ADD MSTORE PUSH32 0x0 PUSH1 0x1 PUSH1 0x1 PUSH1 0xA0 SHL SUB AND SWAP1 PUSH4 0x70A08231 SWAP1 PUSH1 0x24 ADD PUSH1 0x20 PUSH1 0x40 MLOAD DUP1 DUP4 SUB DUP2 DUP7 GAS STATICCALL ISZERO DUP1 ISZERO PUSH2 0x8FE JUMPI RETURNDATASIZE PUSH0 PUSH0 RETURNDATACOPY RETURNDATASIZE PUSH0 REVERT JUMPDEST POP POP POP POP PUSH1 0x40 MLOAD RETURNDATASIZE PUSH1 0x1F NOT PUSH1 0x1F DUP3 ADD AND DUP3 ADD DUP1 PUSH1 0x40 MSTORE POP DUP2 ADD SWAP1 PUSH2 0x3A0 SWAP2 SWAP1 PUSH2 0x117B JUMP JUMPDEST PUSH1 0x1 PUSH1 0x1 PUSH1 0xA0 SHL SUB DUP3 AND PUSH0 SWAP1 DUP2 MSTORE PUSH1 0x2 PUSH1 0x20 MSTORE PUSH1 0x40 DUP2 KECCAK256 PUSH1 0x1 ADD SLOAD PUSH2 0x954 SWAP1 PUSH1 0x1 PUSH1 0x60 SHL SWAP1 DIV PUSH4 0xFFFFFFFF AND DUP3 PUSH2 0xCFF JUMP JUMPDEST PUSH1 0x1 DUP1 SLOAD PUSH1 0x1 PUSH1 0x1 PUSH1 0xA0 SHL SUB DUP7 AND PUSH0 SWAP1 DUP2 MSTORE PUSH1 0x2 PUSH1 0x20 MSTORE PUSH1 0x40 SWAP1 KECCAK256 SWAP1 SWAP2 ADD SLOAD SWAP2 SWAP3 POP SWAP1 PUSH2 0x98B SWAP1 DUP4 SWAP1 PUSH1 0x1 PUSH1 0x1 PUSH1 0x60 SHL SUB AND PUSH2 0x121D JUMP JUMPDEST PUSH2 0x995 SWAP2 SWAP1 PUSH2 0x121D JUMP JUMPDEST PUSH1 0x1 PUSH1 0x1 PUSH1 0xA0 SHL SUB DUP5 AND PUSH0 SWAP1 DUP2 MSTORE PUSH1 0x2 PUSH1 0x20 MSTORE PUSH1 0x40 SWAP1 KECCAK256 SLOAD PUSH2 0x9B7 SWAP2 SWAP1 PUSH2 0x1234 JUMP JUMPDEST SWAP4 SWAP3 POP POP POP JUMP JUMPDEST PUSH0 DUP1 SLOAD DUP3 SWAP2 PUSH1 0xE0 DUP4 SWAP1 SHR SWAP2 PUSH4 0xFFFFFFFF AND SWAP1 SUB PUSH2 0x9EA JUMPI PUSH0 DUP1 SLOAD PUSH4 0xFFFFFFFF NOT AND PUSH4 0xFFFFFFFF DUP4 AND OR SWAP1 SSTORE JUMPDEST PUSH1 0x1 PUSH1 0x1 PUSH1 0xA0 SHL SUB SWAP1 SWAP5 AND PUSH0 SWAP1 DUP2 MSTORE PUSH1 0x2 PUSH1 0x20 MSTORE PUSH1 0x40 SWAP1 KECCAK256 PUSH1 0x1 ADD DUP1 SLOAD PUSH4 0xFFFFFFFF SWAP1 SWAP6 AND PUSH1 0x1 PUSH1 0x60 SHL MUL PUSH16 0xFFFFFFFFFFFFFFFFFFFFFFFFFFFFFFFF NOT SWAP1 SWAP6 AND PUSH1 0x1 PUSH1 0x1 PUSH1 0x60 SHL SUB SWAP1 SWAP3 AND SWAP2 SWAP1 SWAP2 OR SWAP4 SWAP1 SWAP4 OR SWAP1 SWAP3 SSTORE POP POP JUMP JUMPDEST PUSH0 PUSH32 0x0 PUSH1 0x1 PUSH1 0x1 PUSH1 0xA0 SHL SUB AND PUSH4 0xFEAF968C PUSH1 0x40 MLOAD DUP2 PUSH4 0xFFFFFFFF AND PUSH1 0xE0 SHL DUP2 MSTORE PUSH1 0x4 ADD PUSH1 0xA0 PUSH1 0x40 MLOAD DUP1 DUP4 SUB DUP2 DUP7 GAS STATICCALL ISZERO DUP1 ISZERO PUSH2 0xAA1 JUMPI RETURNDATASIZE PUSH0 PUSH0 RETURNDATACOPY RETURNDATASIZE PUSH0 REVERT JUMPDEST POP POP POP POP PUSH1 0x40 MLOAD RETURNDATASIZE PUSH1 0x1F NOT PUSH1 0x1F DUP3 ADD AND DUP3 ADD DUP1 PUSH1 0x40 MSTORE POP DUP2 ADD SWAP1 PUSH2 0xAC5 SWAP2 SWAP1 PUSH2 0x11AB JUMP JUMPDEST POP SWAP2 SWAP5 SWAP4 POP POP POP POP JUMP JUMPDEST PUSH0 DUP4 PUSH1 0x1 PUSH1 0x1 PUSH1 0xA0 SHL SUB AND EXTCODESIZE PUSH0 SUB PUSH2 0xB2D JUMPI PUSH0 PUSH0 PUSH2 0xAED DUP6 DUP6 PUSH2 0xD23 JUMP JUMPDEST POP SWAP1 SWAP3 POP SWAP1 POP PUSH0 DUP2 PUSH1 0x3 DUP2 GT ISZERO PUSH2 0xB06 JUMPI PUSH2 0xB06 PUSH2 0x133B JUMP JUMPDEST EQ DUP1 ISZERO PUSH2 0xB24 JUMPI POP DUP6 PUSH1 0x1 PUSH1 0x1 PUSH1 0xA0 SHL SUB AND DUP3 PUSH1 0x1 PUSH1 0x1 PUSH1 0xA0 SHL SUB AND EQ JUMPDEST SWAP3 POP POP POP PUSH2 0x9B7 JUMP JUMPDEST PUSH2 0xB38 DUP5 DUP5 DUP5 PUSH2 0xD6C JUMP JUMPDEST SWAP5 SWAP4 POP POP POP POP JUMP JUMPDEST PUSH1 0x1 PUSH1 0x1 PUSH1 0xA0 SHL SUB DUP3 AND PUSH0 SWAP1 DUP2 MSTORE PUSH1 0x2 PUSH1 0x20 MSTORE PUSH1 0x40 DUP2 KECCAK256 PUSH1 0x1 ADD SLOAD PUSH2 0xB72 SWAP1 PUSH1 0x1 PUSH1 0x60 SHL SWAP1 DIV PUSH4 0xFFFFFFFF AND DUP4 PUSH2 0xCFF JUMP JUMPDEST PUSH1 0x1 PUSH1 0x1 PUSH1 0xA0 SHL SUB DUP5 AND PUSH0 SWAP1 DUP2 MSTORE PUSH1 0x2 PUSH1 0x20 MSTORE PUSH1 0x40 SWAP1 KECCAK256 PUSH1 0x1 ADD SLOAD PUSH2 0xBA0 SWAP2 SWAP1 PUSH1 0x1 PUSH1 0x1 PUSH1 0x60 SHL SUB AND PUSH2 0x121D JUMP JUMPDEST SWAP1 POP DUP1 ISZERO PUSH2 0xC18 JUMPI PUSH1 0x1 SLOAD PUSH2 0xBB5 SWAP1 DUP3 PUSH2 0x121D JUMP JUMPDEST PUSH1 0x1 PUSH1 0x1 PUSH1 0xA0 SHL SUB DUP5 AND PUSH0 SWAP1 DUP2 MSTORE PUSH1 0x2 PUSH1 0x20 MSTORE PUSH1 0x40 DUP2 KECCAK256 DUP1 SLOAD SWAP1 SWAP2 SWAP1 PUSH2 0xBDC SWAP1 DUP5 SWAP1 PUSH2 0x1234 JUMP JUMPDEST SWAP1 SWAP2 SSTORE POP POP PUSH1 0x1 PUSH1 0x1 PUSH1 0xA0 SHL SUB DUP4 AND PUSH0 SWAP1 DUP2 MSTORE PUSH1 0x2 PUSH1 0x20 MSTORE PUSH1 0x40 SWAP1 KECCAK256 PUSH1 0x1 ADD DUP1 SLOAD PUSH4 0xFFFFFFFF PUSH1 0x60 SHL NOT AND PUSH1 0x1 PUSH1 0x60 SHL TIMESTAMP PUSH4 0xFFFFFFFF AND MUL OR SWAP1 SSTORE JUMPDEST POP POP POP JUMP JUMPDEST PUSH0 PUSH4 0x23B872DD PUSH1 0xE0 SHL SWAP1 POP PUSH0 PUSH1 0x40 MLOAD DUP3 DUP2 MSTORE DUP6 PUSH1 0x4 DUP3 ADD MSTORE DUP5 PUSH1 0x24 DUP3 ADD MSTORE DUP4 PUSH1 0x44 DUP3 ADD MSTORE PUSH1 0x20 PUSH0 PUSH1 0x64 DUP4 PUSH0 DUP12 GAS CALL SWAP2 POP POP DUP1 ISZERO PUSH2 0xC75 JUMPI RETURNDATASIZE DUP1 ISZERO PUSH2 0xC6C JUMPI PUSH1 0x1 PUSH0 MLOAD EQ PUSH1 0x1F RETURNDATASIZE GT AND SWAP2 POP PUSH2 0xC73 JUMP JUMPDEST PUSH0 DUP8 EXTCODESIZE GT SWAP2 POP JUMPDEST POP JUMPDEST DUP1 PUSH2 0xC93 JUMPI PUSH1 0x40 MLOAD PUSH4 0xF4059071 PUSH1 0xE0 SHL DUP2 MSTORE PUSH1 0x4 ADD PUSH1 0x40 MLOAD DUP1 SWAP2 SUB SWAP1 REVERT JUMPDEST POP POP POP POP POP POP JUMP JUMPDEST PUSH2 0xCAE DUP4 PUSH4 0x95EA7B3 PUSH1 0xE0 SHL DUP5 DUP5 PUSH2 0xE43 JUMP JUMPDEST PUSH2 0xC18 JUMPI PUSH2 0xCC5 DUP4 PUSH4 0x95EA7B3 PUSH1 0xE0 SHL DUP5 PUSH0 PUSH2 0xE43 JUMP JUMPDEST ISZERO DUP1 PUSH2 0xCE1 JUMPI POP PUSH2 0xCDF DUP4 PUSH4 0x95EA7B3 PUSH1 0xE0 SHL DUP5 DUP5 PUSH2 0xE43 JUMP JUMPDEST ISZERO JUMPDEST ISZERO PUSH2 0xC18 JUMPI PUSH1 0x40 MLOAD PUSH4 0x19BE9A9 PUSH1 0xE4 SHL DUP2 MSTORE PUSH1 0x4 ADD PUSH1 0x40 MLOAD DUP1 SWAP2 SUB SWAP1 REVERT JUMPDEST PUSH0 PUSH3 0x2835C0 DUP3 PUSH2 0xD0F DUP6 TIMESTAMP PUSH2 0x1168 JUMP JUMPDEST PUSH2 0xD19 SWAP2 SWAP1 PUSH2 0x1234 JUMP JUMPDEST PUSH2 0x9B7 SWAP2 SWAP1 PUSH2 0x134F JUMP JUMPDEST PUSH0 PUSH0 PUSH0 DUP4 MLOAD PUSH1 0x41 SUB PUSH2 0xD5A JUMPI PUSH1 0x20 DUP5 ADD MLOAD PUSH1 0x40 DUP6 ADD MLOAD PUSH1 0x60 DUP7 ADD MLOAD PUSH0 BYTE PUSH2 0xD4C DUP9 DUP3 DUP6 DUP6 PUSH2 0xE91 JUMP JUMPDEST SWAP6 POP SWAP6 POP SWAP6 POP POP POP POP PUSH2 0xD65 JUMP JUMPDEST POP POP DUP2 MLOAD PUSH0 SWAP2 POP PUSH1 0x2 SWAP1 JUMPDEST SWAP3 POP SWAP3 POP SWAP3 JUMP JUMPDEST PUSH0 PUSH0 PUSH0 DUP6 PUSH1 0x1 PUSH1 0x1 PUSH1 0xA0 SHL SUB AND DUP6 DUP6 PUSH1 0x40 MLOAD PUSH1 0x24 ADD PUSH2 0xD8C SWAP3 SWAP2 SWAP1 PUSH2 0x1362 JUMP JUMPDEST PUSH1 0x40 DUP1 MLOAD PUSH1 0x1F NOT DUP2 DUP5 SUB ADD DUP2 MSTORE SWAP2 DUP2 MSTORE PUSH1 0x20 DUP3 ADD DUP1 MLOAD PUSH1 0x1 PUSH1 0x1 PUSH1 0xE0 SHL SUB AND PUSH4 0xB135D3F PUSH1 0xE1 SHL OR SWAP1 MSTORE MLOAD PUSH2 0xDC1 SWAP2 SWAP1 PUSH2 0x139E JUMP JUMPDEST PUSH0 PUSH1 0x40 MLOAD DUP1 DUP4 SUB DUP2 DUP6 GAS STATICCALL SWAP2 POP POP RETURNDATASIZE DUP1 PUSH0 DUP2 EQ PUSH2 0xDF9 JUMPI PUSH1 0x40 MLOAD SWAP2 POP PUSH1 0x1F NOT PUSH1 0x3F RETURNDATASIZE ADD AND DUP3 ADD PUSH1 0x40 MSTORE RETURNDATASIZE DUP3 MSTORE RETURNDATASIZE PUSH0 PUSH1 0x20 DUP5 ADD RETURNDATACOPY PUSH2 0xDFE JUMP JUMPDEST PUSH1 0x60 SWAP2 POP JUMPDEST POP SWAP2 POP SWAP2 POP DUP2 DUP1 ISZERO PUSH2 0xE12 JUMPI POP PUSH1 0x20 DUP2 MLOAD LT ISZERO JUMPDEST DUP1 ISZERO PUSH2 0xE39 JUMPI POP DUP1 MLOAD PUSH4 0xB135D3F PUSH1 0xE1 SHL SWAP1 PUSH2 0xE37 SWAP1 DUP4 ADD PUSH1 0x20 SWAP1 DUP2 ADD SWAP1 DUP5 ADD PUSH2 0x117B JUMP JUMPDEST EQ JUMPDEST SWAP7 SWAP6 POP POP POP POP POP POP JUMP JUMPDEST PUSH0 PUSH1 0x40 MLOAD DUP5 DUP2 MSTORE DUP4 PUSH1 0x4 DUP3 ADD MSTORE DUP3 PUSH1 0x24 DUP3 ADD MSTORE PUSH1 0x20 PUSH0 PUSH1 0x44 DUP4 PUSH0 DUP11 GAS CALL SWAP2 POP POP DUP1 ISZERO PUSH2 0xB38 JUMPI RETURNDATASIZE DUP1 ISZERO PUSH2 0xE81 JUMPI PUSH1 0x1 PUSH0 MLOAD EQ PUSH1 0x1F RETURNDATASIZE GT AND SWAP2 POP PUSH2 0xE88 JUMP JUMPDEST PUSH0 DUP7 EXTCODESIZE GT SWAP2 POP JUMPDEST POP SWAP5 SWAP4 POP POP POP POP JUMP JUMPDEST PUSH0 DUP1 DUP1 PUSH32 0x7FFFFFFFFFFFFFFFFFFFFFFFFFFFFFFF5D576E7357A4501DDFE92F46681B20A0 DUP5 GT ISZERO PUSH2 0xECA JUMPI POP PUSH0 SWAP2 POP PUSH1 0x3 SWAP1 POP DUP3 PUSH2 0xF4F JUMP JUMPDEST PUSH1 0x40 DUP1 MLOAD PUSH0 DUP1 DUP3 MSTORE PUSH1 0x20 DUP3 ADD DUP1 DUP5 MSTORE DUP11 SWAP1 MSTORE PUSH1 0xFF DUP10 AND SWAP3 DUP3 ADD SWAP3 SWAP1 SWAP3 MSTORE PUSH1 0x60 DUP2 ADD DUP8 SWAP1 MSTORE PUSH1 0x80 DUP2 ADD DUP7 SWAP1 MSTORE PUSH1 0x1 SWAP1 PUSH1 0xA0 ADD PUSH1 0x20 PUSH1 0x40 MLOAD PUSH1 0x20 DUP2 SUB SWAP1 DUP1 DUP5 SUB SWAP1 DUP6 GAS STATICCALL ISZERO DUP1 ISZERO PUSH2 0xF1B JUMPI RETURNDATASIZE PUSH0 PUSH0 RETURNDATACOPY RETURNDATASIZE PUSH0 REVERT JUMPDEST POP POP PUSH1 0x40 MLOAD PUSH1 0x1F NOT ADD MLOAD SWAP2 POP POP PUSH1 0x1 PUSH1 0x1 PUSH1 0xA0 SHL SUB DUP2 AND PUSH2 0xF46 JUMPI POP PUSH0 SWAP3 POP PUSH1 0x1 SWAP2 POP DUP3 SWAP1 POP PUSH2 0xF4F JUMP JUMPDEST SWAP3 POP PUSH0 SWAP2 POP DUP2 SWAP1 POP JUMPDEST SWAP5 POP SWAP5 POP SWAP5 SWAP2 POP POP JUMP JUMPDEST PUSH4 0x4E487B71 PUSH1 0xE0 SHL PUSH0 MSTORE PUSH1 0x41 PUSH1 0x4 MSTORE PUSH1 0x24 PUSH0 REVERT JUMPDEST PUSH0 PUSH0 PUSH1 0x40 DUP4 DUP6 SUB SLT ISZERO PUSH2 0xF7E JUMPI PUSH0 PUSH0 REVERT JUMPDEST DUP3 CALLDATALOAD SWAP2 POP PUSH1 0x20 DUP4 ADD CALLDATALOAD PUSH8 0xFFFFFFFFFFFFFFFF DUP2 GT ISZERO PUSH2 0xF9B JUMPI PUSH0 PUSH0 REVERT JUMPDEST DUP4 ADD PUSH1 0x1F DUP2 ADD DUP6 SGT PUSH2 0xFAB JUMPI PUSH0 PUSH0 REVERT JUMPDEST DUP1 CALLDATALOAD PUSH8 0xFFFFFFFFFFFFFFFF DUP2 GT ISZERO PUSH2 0xFC5 JUMPI PUSH2 0xFC5 PUSH2 0xF59 JUMP JUMPDEST PUSH1 0x40 MLOAD PUSH1 0x1F DUP3 ADD PUSH1 0x1F NOT SWAP1 DUP2 AND PUSH1 0x3F ADD AND DUP2 ADD PUSH8 0xFFFFFFFFFFFFFFFF DUP2 GT DUP3 DUP3 LT OR ISZERO PUSH2 0xFF4 JUMPI PUSH2 0xFF4 PUSH2 0xF59 JUMP JUMPDEST PUSH1 0x40 MSTORE DUP2 DUP2 MSTORE DUP3 DUP3 ADD PUSH1 0x20 ADD DUP8 LT ISZERO PUSH2 0x100B JUMPI PUSH0 PUSH0 REVERT JUMPDEST DUP2 PUSH1 0x20 DUP5 ADD PUSH1 0x20 DUP4 ADD CALLDATACOPY PUSH0 PUSH1 0x20 DUP4 DUP4 ADD ADD MSTORE DUP1 SWAP4 POP POP POP POP SWAP3 POP SWAP3 SWAP1 POP JUMP JUMPDEST PUSH0 PUSH1 0x20 DUP3 DUP5 SUB SLT ISZERO PUSH2 0x103A JUMPI PUSH0 PUSH0 REVERT JUMPDEST POP CALLDATALOAD SWAP2 SWAP1 POP JUMP JUMPDEST PUSH0 PUSH0 PUSH0 PUSH0 PUSH0 DUP6 DUP8 SUB PUSH2 0x160 DUP2 SLT ISZERO PUSH2 0x1057 JUMPI PUSH0 PUSH0 REVERT JUMPDEST PUSH2 0x100 DUP2 SLT ISZERO PUSH2 0x1065 JUMPI PUSH0 PUSH0 REVERT JUMPDEST POP DUP6 SWAP5 POP PUSH2 0x100 DUP7 ADD CALLDATALOAD PUSH8 0xFFFFFFFFFFFFFFFF DUP2 GT ISZERO PUSH2 0x1083 JUMPI PUSH0 PUSH0 REVERT JUMPDEST DUP7 ADD PUSH1 0x1F DUP2 ADD DUP9 SGT PUSH2 0x1093 JUMPI PUSH0 PUSH0 REVERT JUMPDEST DUP1 CALLDATALOAD PUSH8 0xFFFFFFFFFFFFFFFF DUP2 GT ISZERO PUSH2 0x10A9 JUMPI PUSH0 PUSH0 REVERT JUMPDEST DUP9 PUSH1 0x20 DUP3 DUP5 ADD ADD GT ISZERO PUSH2 0x10BA JUMPI PUSH0 PUSH0 REVERT JUMPDEST SWAP6 SWAP9 PUSH1 0x20 SWAP2 SWAP1 SWAP2 ADD SWAP8 POP SWAP5 SWAP6 PUSH2 0x120 DUP2 ADD CALLDATALOAD SWAP6 PUSH2 0x140 SWAP1 SWAP2 ADD CALLDATALOAD SWAP5 POP SWAP3 POP POP POP JUMP JUMPDEST DUP1 CALLDATALOAD PUSH1 0x1 PUSH1 0x1 PUSH1 0xA0 SHL SUB DUP2 AND DUP2 EQ PUSH2 0x10F2 JUMPI PUSH0 PUSH0 REVERT JUMPDEST SWAP2 SWAP1 POP JUMP JUMPDEST PUSH0 PUSH0 PUSH0 PUSH1 0x60 DUP5 DUP7 SUB SLT ISZERO PUSH2 0x1109 JUMPI PUSH0 PUSH0 REVERT JUMPDEST PUSH2 0x1112 DUP5 PUSH2 0x10DC JUMP JUMPDEST SWAP3 POP PUSH1 0x20 DUP5 ADD CALLDATALOAD PUSH4 0xFFFFFFFF DUP2 AND DUP2 EQ PUSH2 0x112A JUMPI PUSH0 PUSH0 REVERT JUMPDEST SWAP3 SWAP6 SWAP3 SWAP5 POP POP POP PUSH1 0x40 SWAP2 SWAP1 SWAP2 ADD CALLDATALOAD SWAP1 JUMP JUMPDEST PUSH0 PUSH1 0x20 DUP3 DUP5 SUB SLT ISZERO PUSH2 0x114B JUMPI PUSH0 PUSH0 REVERT JUMPDEST PUSH2 0x9B7 DUP3 PUSH2 0x10DC JUMP JUMPDEST PUSH4 0x4E487B71 PUSH1 0xE0 SHL PUSH0 MSTORE PUSH1 0x11 PUSH1 0x4 MSTORE PUSH1 0x24 PUSH0 REVERT JUMPDEST DUP2 DUP2 SUB DUP2 DUP2 GT ISZERO PUSH2 0x3A0 JUMPI PUSH2 0x3A0 PUSH2 0x1154 JUMP JUMPDEST PUSH0 PUSH1 0x20 DUP3 DUP5 SUB SLT ISZERO PUSH2 0x118B JUMPI PUSH0 PUSH0 REVERT JUMPDEST POP MLOAD SWAP2 SWAP1 POP JUMP JUMPDEST DUP1 MLOAD PUSH10 0xFFFFFFFFFFFFFFFFFFFF DUP2 AND DUP2 EQ PUSH2 0x10F2 JUMPI PUSH0 PUSH0 REVERT JUMPDEST PUSH0 PUSH0 PUSH0 PUSH0 PUSH0 PUSH1 0xA0 DUP7 DUP9 SUB SLT ISZERO PUSH2 0x11BF JUMPI PUSH0 PUSH0 REVERT JUMPDEST PUSH2 0x11C8 DUP7 PUSH2 0x1192 JUMP JUMPDEST PUSH1 0x20 DUP8 ADD MLOAD PUSH1 0x40 DUP9 ADD MLOAD PUSH1 0x60 DUP10 ADD MLOAD SWAP3 SWAP8 POP SWAP1 SWAP6 POP SWAP4 POP SWAP2 POP PUSH2 0x11ED PUSH1 0x80 DUP8 ADD PUSH2 0x1192 JUMP JUMPDEST SWAP1 POP SWAP3 SWAP6 POP SWAP3 SWAP6 SWAP1 SWAP4 POP JUMP JUMPDEST PUSH0 PUSH4 0xFFFFFFFF DUP3 AND PUSH4 0xFFFFFFFF DUP2 SUB PUSH2 0x1214 JUMPI PUSH2 0x1214 PUSH2 0x1154 JUMP JUMPDEST PUSH1 0x1 ADD SWAP3 SWAP2 POP POP JUMP JUMPDEST DUP1 DUP3 MUL DUP2 ISZERO DUP3 DUP3 DIV DUP5 EQ OR PUSH2 0x3A0 JUMPI PUSH2 0x3A0 PUSH2 0x1154 JUMP JUMPDEST DUP1 DUP3 ADD DUP1 DUP3 GT ISZERO PUSH2 0x3A0 JUMPI PUSH2 0x3A0 PUSH2 0x1154 JUMP JUMPDEST PUSH4 0x4E487B71 PUSH1 0xE0 SHL PUSH0 MSTORE PUSH1 0x12 PUSH1 0x4 MSTORE PUSH1 0x24 PUSH0 REVERT JUMPDEST PUSH0 DUP3 PUSH2 0x1269 JUMPI PUSH2 0x1269 PUSH2 0x1247 JUMP JUMPDEST POP DIV SWAP1 JUMP JUMPDEST DUP2 DUP4 MSTORE DUP2 DUP2 PUSH1 0x20 DUP6 ADD CALLDATACOPY POP PUSH0 DUP3 DUP3 ADD PUSH1 0x20 SWAP1 DUP2 ADD SWAP2 SWAP1 SWAP2 MSTORE PUSH1 0x1F SWAP1 SWAP2 ADD PUSH1 0x1F NOT AND SWAP1 SWAP2 ADD ADD SWAP1 JUMP JUMPDEST DUP6 CALLDATALOAD DUP2 MSTORE PUSH1 0x20 DUP1 DUP8 ADD CALLDATALOAD SWAP1 DUP3 ADD MSTORE PUSH1 0x40 DUP1 DUP8 ADD CALLDATALOAD SWAP1 DUP3 ADD MSTORE PUSH1 0x60 DUP1 DUP8 ADD CALLDATALOAD SWAP1 DUP3 ADD MSTORE PUSH1 0x80 DUP1 DUP8 ADD CALLDATALOAD SWAP1 DUP3 ADD MSTORE PUSH1 0xA0 DUP1 DUP8 ADD CALLDATALOAD SWAP1 DUP3 ADD MSTORE PUSH1 0xC0 DUP1 DUP8 ADD CALLDATALOAD SWAP1 DUP3 ADD MSTORE PUSH1 0xE0 DUP1 DUP8 ADD CALLDATALOAD SWAP1 DUP3 ADD MSTORE PUSH2 0x160 PUSH2 0x100 DUP3 ADD DUP2 SWAP1 MSTORE PUSH0 SWAP1 PUSH2 0x12FA SWAP1 DUP4 ADD DUP7 DUP9 PUSH2 0x126E JUMP JUMPDEST PUSH2 0x120 DUP4 ADD SWAP5 SWAP1 SWAP5 MSTORE POP PUSH2 0x140 ADD MSTORE SWAP4 SWAP3 POP POP POP JUMP JUMPDEST PUSH0 PUSH0 PUSH0 PUSH1 0x60 DUP5 DUP7 SUB SLT ISZERO PUSH2 0x1322 JUMPI PUSH0 PUSH0 REVERT JUMPDEST POP POP DUP2 MLOAD PUSH1 0x20 DUP4 ADD MLOAD PUSH1 0x40 SWAP1 SWAP4 ADD MLOAD SWAP1 SWAP5 SWAP3 SWAP4 POP SWAP2 SWAP1 POP JUMP JUMPDEST PUSH4 0x4E487B71 PUSH1 0xE0 SHL PUSH0 MSTORE PUSH1 0x21 PUSH1 0x4 MSTORE PUSH1 0x24 PUSH0 REVERT JUMPDEST PUSH0 DUP3 PUSH2 0x135D JUMPI PUSH2 0x135D PUSH2 0x1247 JUMP JUMPDEST POP MOD SWAP1 JUMP JUMPDEST DUP3 DUP2 MSTORE PUSH1 0x40 PUSH1 0x20 DUP3 ADD MSTORE PUSH0 DUP3 MLOAD DUP1 PUSH1 0x40 DUP5 ADD MSTORE DUP1 PUSH1 0x20 DUP6 ADD PUSH1 0x60 DUP6 ADD MCOPY PUSH0 PUSH1 0x60 DUP3 DUP6 ADD ADD MSTORE PUSH1 0x60 PUSH1 0x1F NOT PUSH1 0x1F DUP4 ADD AND DUP5 ADD ADD SWAP2 POP POP SWAP4 SWAP3 POP POP POP JUMP JUMPDEST PUSH0 DUP3 MLOAD DUP1 PUSH1 0x20 DUP6 ADD DUP5 MCOPY PUSH0 SWAP3 ADD SWAP2 DUP3 MSTORE POP SWAP2 SWAP1 POP JUMP INVALID LOG2 PUSH5 0x6970667358 0x22 SLT KECCAK256 0xD7 0xE8 GASPRICE 0xDB PUSH1 0xC0 0xCA LOG2 PUSH24 0x3D05B5CE954F181FE27725790A6F73680314D3E651C46064 PUSH20 0x6F6C634300081C00330000000000000000000000 "
		},
		"gasEstimates": {
			"creation": {
				"codeDepositCost": "1019600",
				"executionCost": "infinite",
				"totalCost": "infinite"
			},
			"external": {
				"CLAIM_PERIOD()": "271",
				"DECIMALS_SCALE()": "infinite",
				"LIMIT_ORDER()": "infinite",
				"PAPAYA()": "infinite",
				"TOKEN()": "infinite",
				"TOKEN_PAIR_PRICE_FEED()": "infinite",
				"WETH()": "infinite",
				"balanceOf(address)": "infinite",
				"claim((uint256,uint256,uint256,uint256,uint256,uint256,uint256,uint256),bytes,uint256,uint256)": "infinite",
				"isValidSignature(bytes32,bytes)": "infinite",
				"latestRoundData()": "infinite",
				"owner()": "infinite",
				"streamCreated(address,uint32,uint256)": "51224",
				"streamRevoked(address,uint32,uint256)": "infinite",
				"users(address)": "4763",
				"withdraw(uint256)": "infinite"
			},
			"internal": {
				"_decodeRates(uint256)": "infinite",
				"_periodsPassed(uint256,uint256)": "infinite",
				"_sync(address,uint256)": "infinite"
			}
		},
		"methodIdentifiers": {
			"CLAIM_PERIOD()": "21241dfe",
			"DECIMALS_SCALE()": "193999a0",
			"LIMIT_ORDER()": "463e7e33",
			"PAPAYA()": "68187eb8",
			"TOKEN()": "82bfefc8",
			"TOKEN_PAIR_PRICE_FEED()": "25b5b0de",
			"WETH()": "ad5c4648",
			"balanceOf(address)": "70a08231",
			"claim((uint256,uint256,uint256,uint256,uint256,uint256,uint256,uint256),bytes,uint256,uint256)": "41b96771",
			"isValidSignature(bytes32,bytes)": "1626ba7e",
			"latestRoundData()": "feaf968c",
			"owner()": "8da5cb5b",
			"streamCreated(address,uint32,uint256)": "ec70efdb",
			"streamRevoked(address,uint32,uint256)": "485ca67f",
			"users(address)": "a87430ba",
			"withdraw(uint256)": "2e1a7d4d"
		}
	},
	"abi": [
		{
			"inputs": [
				{
					"internalType": "contract IERC20",
					"name": "weth_",
					"type": "address"
				},
				{
					"internalType": "address",
					"name": "TOKEN_PAIR_PRICE_FEED_",
					"type": "address"
				},
				{
					"internalType": "contract IPapayaSimplified",
					"name": "papaya_",
					"type": "address"
				},
				{
					"internalType": "contract IOrderMixin",
					"name": "limit_order_",
					"type": "address"
				}
			],
			"stateMutability": "nonpayable",
			"type": "constructor"
		},
		{
			"inputs": [],
			"name": "ForceApproveFailed",
			"type": "error"
		},
		{
			"inputs": [],
			"name": "SafeTransferFromFailed",
			"type": "error"
		},
		{
			"inputs": [],
			"name": "WrongAmount",
			"type": "error"
		},
		{
			"inputs": [],
			"name": "WrongMakingAmount",
			"type": "error"
		},
		{
			"anonymous": false,
			"inputs": [
				{
					"indexed": false,
					"internalType": "uint256",
					"name": "makingAmount",
					"type": "uint256"
				},
				{
					"indexed": false,
					"internalType": "uint256",
					"name": "takingAmount",
					"type": "uint256"
				},
				{
					"indexed": false,
					"internalType": "bytes32",
					"name": "orderHash",
					"type": "bytes32"
				}
			],
			"name": "Claimed",
			"type": "event"
		},
		{
			"inputs": [],
			"name": "CLAIM_PERIOD",
			"outputs": [
				{
					"internalType": "uint32",
					"name": "",
					"type": "uint32"
				}
			],
			"stateMutability": "view",
			"type": "function"
		},
		{
			"inputs": [],
			"name": "DECIMALS_SCALE",
			"outputs": [
				{
					"internalType": "uint256",
					"name": "",
					"type": "uint256"
				}
			],
			"stateMutability": "view",
			"type": "function"
		},
		{
			"inputs": [],
			"name": "LIMIT_ORDER",
			"outputs": [
				{
					"internalType": "contract IOrderMixin",
					"name": "",
					"type": "address"
				}
			],
			"stateMutability": "view",
			"type": "function"
		},
		{
			"inputs": [],
			"name": "PAPAYA",
			"outputs": [
				{
					"internalType": "contract IPapayaSimplified",
					"name": "",
					"type": "address"
				}
			],
			"stateMutability": "view",
			"type": "function"
		},
		{
			"inputs": [],
			"name": "TOKEN",
			"outputs": [
				{
					"internalType": "contract IERC20",
					"name": "",
					"type": "address"
				}
			],
			"stateMutability": "view",
			"type": "function"
		},
		{
			"inputs": [],
			"name": "TOKEN_PAIR_PRICE_FEED",
			"outputs": [
				{
					"internalType": "contract AggregatorV3Interface",
					"name": "",
					"type": "address"
				}
			],
			"stateMutability": "view",
			"type": "function"
		},
		{
			"inputs": [],
			"name": "WETH",
			"outputs": [
				{
					"internalType": "contract IERC20",
					"name": "",
					"type": "address"
				}
			],
			"stateMutability": "view",
			"type": "function"
		},
		{
			"inputs": [
				{
					"internalType": "address",
					"name": "account",
					"type": "address"
				}
			],
			"name": "balanceOf",
			"outputs": [
				{
					"internalType": "uint256",
					"name": "",
					"type": "uint256"
				}
			],
			"stateMutability": "view",
			"type": "function"
		},
		{
			"inputs": [
				{
					"components": [
						{
							"internalType": "uint256",
							"name": "salt",
							"type": "uint256"
						},
						{
							"internalType": "Address",
							"name": "maker",
							"type": "uint256"
						},
						{
							"internalType": "Address",
							"name": "receiver",
							"type": "uint256"
						},
						{
							"internalType": "Address",
							"name": "makerAsset",
							"type": "uint256"
						},
						{
							"internalType": "Address",
							"name": "takerAsset",
							"type": "uint256"
						},
						{
							"internalType": "uint256",
							"name": "makingAmount",
							"type": "uint256"
						},
						{
							"internalType": "uint256",
							"name": "takingAmount",
							"type": "uint256"
						},
						{
							"internalType": "MakerTraits",
							"name": "makerTraits",
							"type": "uint256"
						}
					],
					"internalType": "struct IOrderMixin.Order",
					"name": "order",
					"type": "tuple"
				},
				{
					"internalType": "bytes",
					"name": "signature",
					"type": "bytes"
				},
				{
					"internalType": "uint256",
					"name": "amount",
					"type": "uint256"
				},
				{
					"internalType": "TakerTraits",
					"name": "takerTraits",
					"type": "uint256"
				}
			],
			"name": "claim",
			"outputs": [],
			"stateMutability": "nonpayable",
			"type": "function"
		},
		{
			"inputs": [
				{
					"internalType": "bytes32",
					"name": "hash",
					"type": "bytes32"
				},
				{
					"internalType": "bytes",
					"name": "signature",
					"type": "bytes"
				}
			],
			"name": "isValidSignature",
			"outputs": [
				{
					"internalType": "bytes4",
					"name": "",
					"type": "bytes4"
				}
			],
			"stateMutability": "view",
			"type": "function"
		},
		{
			"inputs": [],
			"name": "latestRoundData",
			"outputs": [
				{
					"internalType": "int256",
					"name": "tokenPrice",
					"type": "int256"
				}
			],
			"stateMutability": "view",
			"type": "function"
		},
		{
			"inputs": [],
			"name": "owner",
			"outputs": [
				{
					"internalType": "address",
					"name": "",
					"type": "address"
				}
			],
			"stateMutability": "view",
			"type": "function"
		},
		{
			"inputs": [
				{
					"internalType": "address",
					"name": "from",
					"type": "address"
				},
				{
					"internalType": "uint32",
					"name": "streamStarts",
					"type": "uint32"
				},
				{
					"internalType": "uint256",
					"name": "encodedRates",
					"type": "uint256"
				}
			],
			"name": "streamCreated",
			"outputs": [],
			"stateMutability": "nonpayable",
			"type": "function"
		},
		{
			"inputs": [
				{
					"internalType": "address",
					"name": "from",
					"type": "address"
				},
				{
					"internalType": "uint32",
					"name": "streamDeadline",
					"type": "uint32"
				},
				{
					"internalType": "uint256",
					"name": "encodedRates",
					"type": "uint256"
				}
			],
			"name": "streamRevoked",
			"outputs": [],
			"stateMutability": "nonpayable",
			"type": "function"
		},
		{
			"inputs": [
				{
					"internalType": "address",
					"name": "account",
					"type": "address"
				}
			],
			"name": "users",
			"outputs": [
				{
					"internalType": "uint256",
					"name": "balance",
					"type": "uint256"
				},
				{
					"internalType": "uint96",
					"name": "rate",
					"type": "uint96"
				},
				{
					"internalType": "uint32",
					"name": "updated",
					"type": "uint32"
				}
			],
			"stateMutability": "view",
			"type": "function"
		},
		{
			"inputs": [
				{
					"internalType": "uint256",
					"name": "amount",
					"type": "uint256"
				}
			],
			"name": "withdraw",
			"outputs": [],
			"stateMutability": "nonpayable",
			"type": "function"
		}
	]
}